:100000000C943E000C945B000C945B000C945B0021
:100010000C945B000C945B000C945B000C945B00F4
:100020000C945B000C945B000C945B000C945B00E4
:100030000C945B000C945B000C945B000C945B00D4
:100040000C94DC020C945B000C945B000C945B0041
:100050000C945B000C945B000C945B000C945B00B4
:100060000C945B000C945B000C945B000C945B00A4
:100070000C945B000C945B000C945B0011241FBE7D
:10008000CFEFD8E0DEBFCDBF11E0A0E0B1E0E8E700
:10009000FEE002C005900D92A439B107D9F721E026
:1000A000A4E9B1E001C01D92A539B207E1F70E94B1
:1000B00024050C941C070C940000CF93DF93EC01F3
:1000C000FC011192CF010E941502CE0103960E94FD
:1000D000DC011C821D828FE18E831886198688813F
:1000E00087B98FEF84B9DF91CF910895CF93DF93D4
:1000F000EC0103960E94DD01CE010196DF91CF91C4
:100100000C942902FC0196B19F7197830895FC011C
:1001100080850895FC0184810895FC0185810895FE
:10012000CF92DF92EF92FF920F931F93CF93DF93C3
:100130000F92CDB7DEB78C01CE0101967C010E94F3
:10014000CE03C8010E948200D8011796EC91E150BD
:10015000DE2CCF2CEE3148F5F0E0E25EF84F0C9447
:100160004A05C80101960E9488028D2D9C2D0E948F
:10017000DF030F90DF91CF911F910F91FF90EF90D0
:10018000DF90CF900895C80101960E947802EDCFCC
:10019000C80101960E943302E8CFC80101960E946F
:1001A000330281E0F8018087E0CFC80101960E9408
:1001B0005302DBCF65E270E0C80103960E94DE01C6
:1001C00040E050E06CED72E48E2D9F2D0E94E00324
:1001D000FFEF22E587E0F15020408040E1F700C0CA
:1001E00000008E2D9F2D0E941F0481E0D8011896DB
:1001F0008C93BBCFBFE7EAE1F6E0B150E040F040BE
:10020000E1F700C00000C8010E94820078012FEFD2
:10021000E21AF20AD80117968C9117978F3139F4A8
:1002200015968C91882309F49FC0C70161C0C7014E
:100230000E943302BFE7E6E2F4E0B150E040F04054
:10024000E1F700C00000F801878182FD8ECFC70171
:100250000E946A0286B18F71D80117968C93F3CFF2
:10026000FFE72AE186E0F15020408040E1F700C03E
:100270000000C8010E94820078019FEFE91AF90A84
:10028000D80117968C9117978F3151F2C7010E94B0
:100290003302BFE7E6E2F4E0B150E040F040E1F7BE
:1002A00000C00000F801878182FD5FCFC7010E9476
:1002B0006A0286B18F71D80117968C93F3CFFFE74E
:1002C0002AE186E0F15020408040E1F700C00000C4
:1002D000C8010E948200D80117968C9117978F3120
:1002E00009F04AC0C801019615962C91222331F0DD
:1002F0000E94330281E0F801848337CF0E945302C9
:1003000081E0F801858331CFFFE72AE186E0F150F3
:1003100020408040E1F700C00000C8010E94820038
:1003200078019FEFE91AF90AD80117968C9117976F
:100330008F3109F475CFC7010E943302BFE7E6E2AF
:10034000F4E0B150E040F040E1F700C00000F801F7
:10035000878182FD0ACFC7010E945C0286B18F713E
:10036000D80117968C93F3CFC7010E94530281E006
:10037000D80115968C93F9CE882309F436CF7801ED
:10038000FFEFEF1AFF0AC7010E9433022FE786E250
:1003900094E0215080409040E1F700C00000F80157
:1003A000878182FDE2CEC7010E945C0286B18F7117
:1003B000D80117968C93F3CF08950895FB0180819F
:1003C0008E7F80838081826080830895FB0180819D
:1003D0008D7F808380818160808308950F931F9338
:1003E000CF93DF93D82FC92F8B010E94DE018FE3BB
:1003F0009FE10197F1F700C00000B8018D2F9C2FFD
:100400000E94E6018FE79EE30197F1F700C000002C
:10041000DF91CF911F910F910895FB0180818D7F16
:10042000808380818E7F80830895FC0184E68083B1
:1004300011828AB18C638AB9E0E8F0E08081816A38
:100440008083E1E8F0E08081826080831092820006
:1004500008950895709389006093880050938B00ED
:1004600040938A0008958BB1837F8BB98AE790E02F
:10047000909389008093880084E890E090938B00AB
:1004800080938A0008958AE090E090938900809399
:10049000880084E990E090938B0080938A008BB170
:1004A0008C608BB908951092890010928800109288
:1004B0008B0010928A0008958BB1837F8BB91092C4
:1004C0008900109288008EE690E090938B008093D4
:1004D0008A0008958BB1837F8BB98EE690E090936C
:1004E00089008093880010928B0010928A000895F2
:1004F0008BB1837F8BB988E290E0909389008093E1
:1005000088008DE790E090938B0080938A00089597
:100510008BB1837F8BB98DE790E0909389008093B6
:10052000880088E290E090938B0080938A00089581
:10053000CF93DF93EC010E942204CE018D559F4F93
:100540000E945D00CE0183559F4F0E941502C15548
:10055000DF4F8CE49DE199838883DF91CF910895EB
:10056000CF93DF93EC0183559F4F0E942902CE0168
:100570008D559F4F0E947600CE01DF91CF910C9454
:100580004F0416BCFC01E155FF4F808187BD84B547
:10059000886084BD85B5856085BDEEE6F0E080812C
:1005A000826080830895F894E89AE9E6F0E080811B
:1005B00083608083789408958F9381E08093940181
:1005C0008F9118950E946304FC0184819581892B89
:1005D00031F4828193819583848313821282CF01C7
:1005E0000895CF93DF93EC01CD55DF4FCE010E94EC
:1005F0008D00882319F0DF91CF910895CE010E94DC
:100600009000F4CF6F927F928F929F92AF92BF92A1
:10061000CF92DF92EF92FF920F931F93CF93DF93CE
:1006200000D0CDB7DEB76C010E94D3025E0122E09C
:10063000A20EB11CC5010E94DC01CE0101967C0115
:100640000E94CE0310E000E03701760193EAE90E44
:10065000F11C46012DEA820E911CC7010E948A00FE
:100660008823B9F0C3010E94DF03C5010E94DD01A8
:100670000F900F90DF91CF911F910F91FF90EF900E
:10068000DF90CF90BF90AF909F908F907F906F90B2
:1006900008950230110509F45AC044F401151105FA
:1006A00079F00130110599F102E018C0033011050D
:1006B00009F46FC065E270E0C5010E940D02CDCF64
:1006C00065E270E0C5010E94DE01C7010E94900052
:1006D000C7010E948700811103C001E010E0EACF4A
:1006E000C6010E94C10240E050E06CED72E4C3011B
:1006F0000E94E003C4010E945C028FEF92E527E0B4
:10070000815090402040E1F700C00000E6CFC701D3
:100710000E949000809194018823F9F2C4010E9404
:100720005C028FEF92E527E0815090402040E1F796
:1007300000C00000C4010E9453028FEF99E628E137
:10074000815090402040E1F700C00000ADCFC701CC
:100750000E949000C7010E9487008823C1F065E2D3
:1007600070E0C5010E94E60140E050E06CED72E4EB
:10077000C3010E94E003C4010E945C028FEF92E576
:1007800027E0815090402040E1F700C0000003E0E6
:10079000A5CFC7010E9490008DCF08958AB1806CCB
:1007A0008AB95E98E0EBF0E0808182648083E1EBBF
:1007B000F0E08081846080831092B20008950895F3
:1007C000CF93DF9300D000D0CDB7DEB7942F852F25
:1007D00020E030E040E054E499838A836B837C839B
:1007E00069817A818B819C810E94AF069B01AC015B
:1007F00060E074E284EF9AE40E94BD0520E030E0FE
:1008000040E85FE369837A838B839C8369817A8183
:100810008B819C810E94500569837A838B839C83A2
:1008200069817A818B819C810E942F066093B3003D
:100830000F900F900F900F90DF91CF91089510922D
:10084000B3000895CF93DF93EC0118828FEF898373
:10085000CE0102960E941502CE0104960E94CE039C
:10086000CE0105960E94DC01CE0106960E94F80496
:1008700018861F821A8619861C861B861E8684E9A6
:10088000E0E0F1E0DE011F9601900D928A95E1F71C
:10089000888181B9898184B9DF91CF910895CF93FF
:1008A000DF93EC0106960E94FE04CE0105960E949D
:1008B000DD01CE0104960E94DF03CE010296DF9196
:1008C000CF910C94290207960895CF92DF92EF9270
:1008D000FF920F931F93CF93DF93EC0160E0069696
:1008E0000E94010596958795969587958D877E013F
:1008F00032E0E30EF11C6E0135E0C30ED11C8E0117
:100900000C5F1F4F8D3198F58531A0F1C7010E9412
:1009100053024F85588969897A89C8010E94E0038A
:100920008FEF99E628E1815090402040E1F700C028
:100930000000C8010E941F0465E270E0C6010E9429
:10094000DE018E85E82FF0E0EE0FFF1FEC0FFD1F9C
:1009500022E030E0308727838F5F8E87DF91CF9151
:100960001F910F91FF90EF90DF90CF9008958054EA
:100970008D3198F065E270E0C6010E940D02C80159
:100980000E941F04C701DF91CF911F910F91FF902B
:10099000EF90DF90CF900C943302C7010E94530276
:1009A00065E270E0C6010E94E601FE01E556FF4FD8
:1009B0004081518162817381C8010E94E0033FEF51
:1009C00089E698E1315080409040E1F700C0000096
:1009D000C8010E941F04C7010E9433028E85E82FC0
:1009E000F0E0EE0FFF1FEC0FFD1F21E030E0B2CF73
:1009F00010927C0086E880937A00089510927A0025
:100A0000089580917C00807E80937C0080917C00A2
:100A10006770682B60937C0080917A00806480937B
:100A20007A0080917A0084FFFCCF80917A00806107
:100A300080937A00209178008091790090E0982F3F
:100A40008827820F911D0895CDB7DEB7CD5BD10900
:100A50000FB6F894DEBF0FBECDBFCE0101960E9447
:100A60009802CE0183549F4F0E94CE03CE0183543F
:100A70009F4F0E941F048E010E541F4FC8010E94F9
:100A80005D00CE0184549F4F0E94DC01C8010E948A
:100A90009000FCCFEE0FFF1F0590F491E02D09941C
:100AA0005058BB27AA270E9468050C9475060E941F
:100AB000670638F00E946E0620F039F49F3F19F463
:100AC00026F40C9464060EF4E095E7FB0C945E06A5
:100AD000E92F0E94860658F3BA1762077307840746
:100AE000950720F079F4A6F50C94A8060EF4E0958D
:100AF0000B2EBA2FA02D0B01B90190010C01CA01D8
:100B0000A0011124FF27591B99F0593F50F4503E82
:100B100068F11A16F040A22F232F342F4427585F74
:100B2000F3CF469537952795A795F0405395C9F78C
:100B30007EF41F16BA0B620B730B840BBAF0915044
:100B4000A1F0FF0FBB1F661F771F881FC2F70EC0E3
:100B5000BA0F621F731F841F48F4879577956795B6
:100B6000B795F7959E3F08F0B0CF9395880F08F0A2
:100B70009927EE0F9795879508950E94D1050C94BB
:100B800075060E946E0658F00E94670640F029F430
:100B90005F3F29F00C945E0651110C94A9060C9449
:100BA00064060E94860668F39923B1F3552391F3F6
:100BB000951B550BBB27AA2762177307840738F0CC
:100BC0009F5F5F4F220F331F441FAA1FA9F335D029
:100BD0000E2E3AF0E0E832D091505040E695001CDD
:100BE000CAF72BD0FE2F29D0660F771F881FBB1F97
:100BF000261737074807AB07B0E809F0BB0B802D75
:100C0000BF01FF2793585F4F3AF09E3F510578F0A0
:100C10000C945E060C94A9065F3FE4F3983ED4F36F
:100C2000869577956795B795F7959F5FC9F7880F74
:100C3000911D9695879597F90895E1E0660F771FC6
:100C4000881FBB1F621773078407BA0720F0621B57
:100C5000730B840BBA0BEE1F88F7E09508950E9482
:100C60008E0688F09F5798F0B92F9927B751B0F0AA
:100C7000E1F0660F771F881F991F1AF0BA95C9F720
:100C800014C0B13091F00E94A806B1E008950C9410
:100C9000A806672F782F8827B85F39F0B93FCCF3C3
:100CA000869577956795B395D9F73EF4909580959D
:100CB000709561957F4F8F4F9F4F089597F99F676C
:100CC00080E870E060E008959FEF80EC08950024D4
:100CD0000A941616170618060906089500240A94A1
:100CE00012161306140605060895092E0394000C27
:100CF00011F4882352F0BB0F40F4BF2B11F460FFB6
:100D000004C06F5F7F4F8F4F9F4F089557FD9058DE
:100D1000440F551F59F05F3F71F04795880F97FBBF
:100D2000991F61F09F3F79F0879508951216130679
:100D30001406551FF2CF4695F1DF08C016161706A8
:100D40001806991FF1CF86957105610508940895DD
:100D5000E894BB2766277727CB0197F908950E946F
:100D6000C2060C9475060E94670638F00E946E0653
:100D700020F0952311F00C945E060C946406112467
:100D80000C94A9060E94860670F3959FC1F3950FF7
:100D900050E0551F629FF001729FBB27F00DB11DFF
:100DA000639FAA27F00DB11DAA1F649F6627B00D8F
:100DB000A11D661F829F2227B00DA11D621F739F78
:100DC000B00DA11D621F839FA00D611D221F749F86
:100DD0003327A00D611D231F849F600D211D822FCD
:100DE000762F6A2F11249F5750409AF0F1F08823F4
:100DF0004AF0EE0FFF1FBB1F661F771F881F915021
:100E00005040A9F79E3F510580F00C945E060C946B
:100E1000A9065F3FE4F3983ED4F3869577956795EE
:100E2000B795F795E7959F5FC1F7FE2B880F911D4A
:100E30009695879597F90895F894FFCFB100B10082
:100E4000B100C800D500C800FA00C300D500D50025
:100E5000D500C800D500CD003001C300DA00D500B0
:100E6000DA00D500D500D500DA00C300DA00D500DD
:080E7000DA005F01DA008401E1
:100E78000000DC427B14E942A4F0F6425CCF024356
:100E88000A970A437BD412435C8F1B435CCF2443ED
:100E9800299C2E43000039430000444366A64F4373
:100EA80000005C437B146943A4F07643A4D08243DA
:100EB8000A978A437BD49243A4909B43A4D0A4432B
:100EC800719DAE43B8FEB8430000C44366A6CF4345
:100ED8000000DC437B14E943A4F0F64300D002444D
:100EE800AE970A441FD5124400901B44A4D0244452
:100EF800719D2E445CFF38445CFF43440AA74F446D
:040F080000005C4445
:00000001FF
