:100000000C943E000C945B000C945B000C945B0021
:100010000C945B000C945B000C945B000C945B00F4
:100020000C945B000C945B000C945B000C945B00E4
:100030000C945B000C945B000C945B000C945B00D4
:100040000C941B040C945B000C945B000C945B0000
:100050000C945B000C945B000C945B000C945B00B4
:100060000C945B000C945B000C945B000C945B00A4
:100070000C945B000C945B000C945B0011241FBE7D
:10008000CFEFD8E0DEBFCDBF11E0A0E0B1E0E2E805
:10009000FFE002C005900D92A43AB107D9F721E024
:1000A000A4EAB1E001C01D92A53AB207E1F70E94AF
:1000B0009F050C94A1070C940000CF93DF93EC01F3
:1000C000FC011192CF010E943A03CE0103960E94D7
:1000D0002B021C821D828FE18E831886888187B94E
:1000E0008FEF84B9DF91CF910895CF93DF93EC0127
:1000F00003960E942C02CE010196DF91CF910C94C1
:100100004E03FC0196B19F7197830895FC01808591
:100110000895FC0184810895FC0185810895AF92C2
:10012000BF92CF92DF92EF92FF920F931F93CF93E4
:10013000DF930F92CDB7DEB78C017B01CE01019624
:100140006C010E941F05C8010E948100D80117960A
:10015000EC91E1505601EE3108F081C0F0E0ED5530
:10016000F84F0C94CF057801BFEFEB1AFB0AC701DB
:100170000E948E0386B1982F9F71F801978382FFAA
:10018000F6CF2EC07801EFEFEE1AFE0AC7010E94EB
:100190008E0386B1982F9F71D80117969C9382FF8A
:1001A000F5CF1EC07801FFEFEF1AFF0AC7010E94CA
:1001B0009E0386B1982F9F71F801978382FFF6CF37
:1001C0000FC078012FEFE21AF20AC7010E949E03C6
:1001D00086B1982F9F71D80117969C9382FFF5CF17
:1001E000C5010E9430050F90DF91CF911F910F91B3
:1001F000FF90EF90DF90CF90BF90AF90089543E7CE
:1002000050E06CE870E0C80101960E94C703E8CF97
:100210004CE850E063E770E0C80101960E94B70324
:10022000DFCFC80101960E945803DACF65E270E083
:10023000C80103960E942D02C80101960E9458032E
:1002400081E0D80118968C93CBCF44E650E068E764
:1002500070E0D9CF48E750E064E670E0DDCFC80138
:1002600001960E948503BCCF40E050E06CED72E443
:10027000C6010E943105BFEFE2E5F7E0B150E04072
:10028000F040E1F700C00000C6010E947005D8CF21
:10029000BFE7EAE1F6E0B150E040F040E1F700C02E
:1002A0000000C8010E94810068012FEFC21AD20A23
:1002B000D80117968C918F31C9F4B4E9EB16B1E0EF
:1002C000FB0639F4C6010E94580381E0F8018483DB
:1002D00087CFFCE9EF16F1E0FF0641F4C6010E946A
:1002E000850381E0D80115968C937ACF43E950E0DD
:1002F0006CE870E0C6010E946803C6010E949E037C
:1003000086B1982F9F71F801978382FFF6CF68CF4F
:10031000FFE72AE186E0F15020408040E1F700C08D
:100320000000C8010E94810068019FEFC91AD90A24
:10033000D80117968C918F3159F4B4E9EB16B1E0DE
:10034000FB0609F4BFCFFCE9EF16F1E0FF0631F23E
:1003500043E950E06CE870E0C6010E946803C60102
:100360000E949E0386B1982F9F71F801978382FFA8
:10037000F6CF36CF65E270E0C80103960E942D02E9
:10038000FFE72AE186E0F15020408040E1F700C01D
:100390000000C8010E94810068019FEFC91AD90AB4
:1003A000D80117968C918F3189F4B4E9EB16B1E03E
:1003B000FB0609F487CFFCE9EF16F1E0FF0609F42C
:1003C0008DCFF8018581882309F488CF43E950E077
:1003D0006CE870E0C6010E946803C6010E948E03AB
:1003E00086B1982F9F71F801978382FFF6CFF8CEE0
:1003F000FFE72AE186E0F15020408040E1F700C0AD
:100400000000C8010E94810068019FEFC91AD90A43
:10041000D80117968C918F3161F4B4E9EB16B1E0F5
:10042000FB0609F44FCFFCE9EF16F1E0FF0609F4F3
:1004300055CF43E950E06CE870E0C6010E946803C4
:10044000C6010E948E0386B1982F9F71F801978391
:1004500082FFF6CFC5CE08950895FB0180818E7F7F
:1004600080838081826080830895FB0180818D7FFD
:10047000808380818160808308950F931F93CF9341
:10048000DF93D82FC92F8B010E942D028FE39FE1AC
:100490000197F1F700C00000B8018D2F9C2F0E943A
:1004A00035028FE79EE30197F1F700C00000DF916E
:1004B000CF911F910F910895FB0180818D7F8083E3
:1004C00080818E7F80830895CF93DF93EC01188223
:1004D0008FEF8983CE0102960E943A03CE010496E3
:1004E0000E941F05CE0105960E942B02CE010696A2
:1004F0000E94730518861F821A8619861C861B8621
:100500001E8684E9E0E0F1E0DE011F9601900D9285
:100510008A95E1F7888181B9898184B9DF91CF918A
:100520000895CF93DF93EC0106960E947905CE01E2
:1005300005960E942C02CE0104960E943005CE0141
:100540000296DF91CF910C944E0307960895CF92B7
:10055000DF92EF92FF920F931F93CF93DF93EC0103
:1005600060E006960E947C059695879596958795FE
:100570008D877E0132E0E30EF11C6E0135E0C30E83
:10058000D11C8E010C5F1F4F8D3298F58432A0F183
:10059000C7010E9485034F85588969897A89C801F6
:1005A0000E9431058FEF99E628E18150904020406C
:1005B000E1F700C00000C8010E94700565E270E02C
:1005C000C6010E942D028E85E82FF0E0EE0FFF1F7E
:1005D000EC0FFD1F22E030E0308727838F5F8E878E
:1005E000DF91CF911F910F91FF90EF90DF90CF900F
:1005F00008958A558A3198F065E270E0C6010E943C
:100600005C02C8010E947005C701DF91CF911F9164
:100610000F91FF90EF90DF90CF900C945803C7019B
:100620000E94850365E270E0C6010E943502FE016A
:10063000E556FF4F4081518162817381C8010E945C
:1006400031053FEF89E698E1315080409040E1F775
:1006500000C00000C8010E947005C7010E94580335
:100660008E85E82FF0E0EE0FFF1FEC0FFD1F21E05D
:1006700030E0B2CFFC0184E6808311828AB18C63C2
:100680008AB9E0E8F0E08081816A8083E1E8F0E007
:100690008081826080831092820008950895709313
:1006A00089006093880050938B0040938A000895DE
:1006B0008BB1837F8BB984E690E09093890080931F
:1006C00088008EE690E090938B0080938A000895D6
:1006D000CA014BB1437F4BB9709389006093880086
:1006E00090938B0080938A0008958AE090E0909325
:1006F00089008093880084E990E090938B00809338
:100700008A008BB18C608BB9089510928900109289
:10071000880010928B0010928A0008958BB1837F1D
:100720008BB98EE190E0909389008093880081E6F8
:1007300090E090938B0080938A0008952FE788E3E0
:1007400091E0215080409040E1F700C000008BB163
:10075000837F8BB985E590E0909389008093880032
:100760008EE190E090938B0080938A0008958BB186
:10077000837F8BB984E690E0909389008093880012
:1007800088E790E090938B0080938A0008958BB166
:10079000837F8BB988E790E09093890080938800ED
:1007A00084E690E090938B0080938A000895CF9325
:1007B000DF93EC010E946402CE018D559F4F0E9491
:1007C0005D00CE0184559F4F0E943A03C255DF4F12
:1007D0008CE49DE199838883DF91CF910895CF9335
:1007E000DF93EC0184559F4F0E944E03CE018D553F
:1007F0009F4F0E947500CE01DF91CF910C94910222
:1008000016BCFC01E255FF4F808187BD84B588602E
:1008100084BD85B5856085BDEEE6F0E080818260AF
:1008200080830895F894E89AE9E6F0E08081836097
:100830008083789408958F9381E08093A4018F91B1
:1008400018950E94A502FC0184819581892B31F4C1
:10085000828193819583848313821282CF010895CC
:100860000F931F93CF93DF93EC018C010D551F4F16
:10087000C8010E948C00882329F0DF91CF911F913D
:100880000F910895CE010E94A7026CE971E0C801A2
:100890000E948F00EDCF6F927F928F929F92AF92C6
:1008A000BF92CF92DF92EF92FF920F931F93CF935D
:1008B000DF9300D0CDB7DEB76C010E9412045E0159
:1008C00022E0A20EB11CC5010E942B02CE010196AE
:1008D0007C010E941F0510E000E03701760193EAD9
:1008E000E90EF11C46012CEA820E911CC7010E9400
:1008F00089008823B9F0C3010E943005C5010E9418
:100900002C020F900F90DF91CF911F910F91FF90CC
:10091000EF90DF90CF90BF90AF909F908F907F909F
:100920006F9008950230110509F45EC044F401157A
:10093000110579F001301105A9F102E01AC0033068
:10094000110509F475C065E270E0C5010E945C0202
:10095000CDCF65E270E0C5010E942D0264E971E02F
:10096000C7010E948F00C7010E948600811103C049
:1009700001E010E0E8CFC6010E94000440E050E032
:100980006CED72E4C3010E943105C4010E948E0324
:100990008FEF92E527E0815090402040E1F700C0C2
:1009A0000000E6CF64E971E0C7010E948F008091EA
:1009B000A4018823E9F2C4010E948E038FEF92E51F
:1009C00027E0815090402040E1F700C00000C401C2
:1009D0000E9485038FEF99E628E1815090402040E6
:1009E000E1F700C00000A9CF64E971E0C7010E94EF
:1009F0008F00C7010E9486008823C1F065E270E085
:100A0000C5010E94350240E050E06CED72E4C30184
:100A10000E943105C4010E948E038FEF92E527E00A
:100A2000815090402040E1F700C0000003E0A1CFDA
:100A300064E971E0C7010E948F0085CF08958AB1F3
:100A4000806C8AB95E98E0EBF0E0808182648083FC
:100A5000E1EBF0E08081846080831092B200089521
:100A60000895CF93DF9300D000D0CDB7DEB7942F99
:100A7000852F20E030E040E054E499838A836B8343
:100A80007C8369817A818B819C810E9434079B01E0
:100A9000AC0160E074E284EF9AE40E94420620E038
:100AA00030E040E85FE369837A838B839C836981CC
:100AB0007A818B819C810E94D50569837A838B839F
:100AC0009C8369817A818B819C810E94B4066093AA
:100AD000B3000F900F900F900F90DF91CF9108957A
:100AE0001092B300089510927C0086E880937A00FB
:100AF000089510927A00089580917C00807E809302
:100B00007C0080917C006770682B60937C008091F2
:100B10007A00806480937A0080917A0084FFFCCF11
:100B200080917A00806180937A0020917800809192
:100B3000790090E0982F8827820F911D0895CDB7F6
:100B4000DEB7C056D1400FB6F894DEBF0FBECDBFA2
:100B5000CE0101960E94D703CE01805A9E4F0E947B
:100B60001F05CE01805A9E4F0E947005CE018C5AFF
:100B70009E4F0E945D008E010F541F4FC8010E94BE
:100B80006402CE01815A9E4F0E942B02CE01835AED
:100B90009E4F0E943A03C8010E94A702FCCFEE0FAD
:100BA000FF1F0590F491E02D09945058BB27AA2708
:100BB0000E94ED050C94FA060E94EC0638F00E94A3
:100BC000F30620F039F49F3F19F426F40C94E9065B
:100BD0000EF4E095E7FB0C94E306E92F0E940B0767
:100BE00058F3BA17620773078407950720F079F462
:100BF000A6F50C942D070EF4E0950B2EBA2FA02D20
:100C00000B01B90190010C01CA01A0011124FF27B9
:100C1000591B99F0593F50F4503E68F11A16F040B4
:100C2000A22F232F342F4427585FF3CF46953795B3
:100C30002795A795F0405395C9F77EF41F16BA0B78
:100C4000620B730B840BBAF09150A1F0FF0FBB1F26
:100C5000661F771F881FC2F70EC0BA0F621F731F6F
:100C6000841F48F4879577956795B795F7959E3FCC
:100C700008F0B0CF9395880F08F09927EE0F97955D
:100C8000879508950E9456060C94FA060E94F30672
:100C900058F00E94EC0640F029F45F3F29F00C94D4
:100CA000E30651110C942E070C94E9060E940B07E1
:100CB00068F39923B1F3552391F3951B550BBB278B
:100CC000AA2762177307840738F09F5F5F4F220FD0
:100CD000331F441FAA1FA9F335D00E2E3AF0E0E8C7
:100CE00032D091505040E695001CCAF72BD0FE2F11
:100CF00029D0660F771F881FBB1F261737074807A5
:100D0000AB07B0E809F0BB0B802DBF01FF2793585C
:100D10005F4F3AF09E3F510578F00C94E3060C9437
:100D20002E075F3FE4F3983ED4F386957795679559
:100D3000B795F7959F5FC9F7880F911D9695879591
:100D400097F90895E1E0660F771F881FBB1F6217B0
:100D500073078407BA0720F0621B730B840BBA0B6E
:100D6000EE1F88F7E09508950E94130788F09F57BB
:100D700098F0B92F9927B751B0F0E1F0660F771FBF
:100D8000881F991F1AF0BA95C9F714C0B13091F0B5
:100D90000E942D07B1E008950C942D07672F782F3E
:100DA0008827B85F39F0B93FCCF38695779567957A
:100DB000B395D9F73EF490958095709561957F4FE6
:100DC0008F4F9F4F089597F99F6780E870E060E02C
:100DD00008959FEF80EC089500240A9416161706D4
:100DE00018060906089500240A941216130614061C
:100DF00005060895092E0394000C11F4882352F07F
:100E0000BB0F40F4BF2B11F460FF04C06F5F7F4F36
:100E10008F4F9F4F089557FD9058440F551F59F01D
:100E20005F3F71F04795880F97FB991F61F09F3FD7
:100E300079F087950895121613061406551FF2CF00
:100E40004695F1DF08C0161617061806991FF1CF50
:100E500086957105610508940895E894BB27662777
:100E60007727CB0197F908950E9447070C94FA065B
:100E70000E94EC0638F00E94F30620F0952311F052
:100E80000C94E3060C94E90611240C942E070E949E
:100E90000B0770F3959FC1F3950F50E0551F629FAC
:100EA000F001729FBB27F00DB11D639FAA27F00DC3
:100EB000B11DAA1F649F6627B00DA11D661F829FEA
:100EC0002227B00DA11D621F739FB00DA11D621FCF
:100ED000839FA00D611D221F749F3327A00D611DEC
:100EE000231F849F600D211D822F762F6A2F1124CE
:100EF0009F5750409AF0F1F088234AF0EE0FFF1F01
:100F0000BB1F661F771F881F91505040A9F79E3F57
:100F1000510580F00C94E3060C942E075F3FE4F338
:100F2000983ED4F3869577956795B795F795E795AD
:100F30009F5FC1F7FE2B880F911D9695879597F9B6
:100F40000895F894FFCFE100FF00D20011012F01B6
:100F50002501480108012F012F012F012A012F012E
:100F600016018801C20034012F0134012F012F0125
:100F70002F013401B30034012F013401BA013401CF
:020F8000F80176
:100F82000000DC427B14E942A4F0F6425CCF02434B
:100F92000A970A437BD412435C8F1B435CCF2443E2
:100FA200299C2E43000039430000444366A64F4368
:100FB20000005C437B146943A4F07643A4D08243CF
:100FC2000A978A437BD49243A4909B43A4D0A44320
:100FD200719DAE43B8FEB8430000C44366A6CF433A
:100FE2000000DC437B14E943A4F0F64300D0024442
:100FF200AE970A441FD5124400901B44A4D0244447
:10100200719D2E445CFF38445CFF43440AA74F4461
:1010120000005C44506172746965420050617274F0
:0410220069654100BB
:00000001FF
