:100000000C9440000C9468000C9468000C946800F8
:100010000C9468000C9468000C9468000C946800C0
:100020000C9468000C9468000C9468000C946800B0
:100030000C9468000C9438010C9468000C946800CF
:100040000C9468000C9468000C9468000C94680090
:100050000C9468000C9468000C9468000C94680080
:100060000C9468000C9468000C9468000C94680070
:100070000C9468000C9468000C946800640968098A
:1000800011241FBECFEFD8E0DEBFCDBF12E0A0E04D
:10009000B1E0E2E2F7E102C005900D92A635B107AA
:1000A000D9F722E0A6E5B2E001C01D92A835B2075B
:1000B000E1F710E0CFE3D0E004C02197FE010E94F9
:1000C0008009CE33D107C9F70E9431090C94660B21
:1000D0000C94000008950895FB0180818E7F808339
:1000E0008081826080830895FB0180818D7F808381
:1000F00080818160808308950F931F93CF93DF9356
:10010000D82FC92F8B010E946C008FE39FE10197CC
:10011000F1F700C00000B8018D2F9C2F0E947400E1
:100120008FE79EE30197F1F700C00000DF91CF91C8
:100130001F910F910895FB0180818D7F80838081C5
:100140008E7F80830895FC0184E68083118284B1D0
:100150008FEF84B984B5816A84BD85B5826085BD21
:100160000895089567BD48BD089585B18B7D85B913
:100170008FE587BD84E688BD089585B18B7D85B9FF
:1001800067BD48BD08958BE587BD81E688BD85B113
:10019000846285B9089517BC18BC089585B18B7D1C
:1001A00085B982E387BD8FE588BD089585B18B7DD4
:1001B00085B98FE587BD82E388BD089585B18B7DC4
:1001C00085B988E287BD85E588BD089585B18B7DB9
:1001D00085B98FE587BD88E288BD0895CF93DF9309
:1001E000EC010E942A06CE018D559F4F0E946303A9
:1001F000CE01875B9E4F0E94A300C55BDE4F84E863
:100200009EE199838883DF91CF910895CF93DF9307
:10021000EC01875B9E4F0E94B100CE018D559F4F30
:100220000E949503CE01DF91CF910C9457069C015B
:100230007894109256021092850010928400255BEB
:100240003E4FF901808191819093890080938800CD
:10025000E0E8F0E0808188608083E1E8F0E0808180
:1002600085608083EFE6F0E080818260808308957E
:100270001F921FB61F9211248F9310928500109227
:100280008400809156028F5F809356028F911F9059
:100290001FBE1F9018950F931F93CF93DF930F925C
:1002A000CDB7DEB78B01CE0101960E94280723E06F
:1002B000A80170E060E0CE0101960E94A808CE017E
:1002C00001960E941E070F90DF91CF911F910F9111
:1002D00008958D559F4F0E94C103FC0182818111B9
:1002E00003C0818182831182CF010895CF93DF9370
:1002F00000D000D0CDB7DEB7CE0104960E9428070B
:1003000023E0AE014F5F5F4F70E060E0CE010496E6
:100310000E949A07CE0104960E941E0790E080E09A
:100320000F900F900F900F90DF91CF9108950F9342
:100330001F93CF93DF93EC018C010D551F4FC80124
:100340000E94BE03882359F0CE010E946901BC01BE
:10035000CE01DF91CF911F910F910C944B01C801F9
:100360000E94C60349E252E067E372E0C8010E94BE
:10037000C804E5CF2F923F924F925F926F927F9287
:100380008F929F92AF92BF92CF92DF92EF92FF92A5
:100390000F931F93CF93DF9300D000D0CDB7DEB77C
:1003A0006C013E0124E0620E711CC3010E946A00D0
:1003B0005E0183E0A80EB11CC5010E940F03CE01AF
:1003C00001967C010E94A30010E000E0912C812C9A
:1003D0005A2C4B2C3E2C2F2C760193EAE90EF11C63
:1003E000560127EBA21A2EEFB20AC7010E94B803EA
:1003F000882311F1832D922D0E94B100852D942D1B
:100400000E942003C3010E946B000F900F900F9079
:100410000F90DF91CF911F910F91FF90EF90DF90A0
:10042000CF90BF90AF909F908F907F906F905F9094
:100430004F903F902F9008950230110509F4B2C0FB
:100440000330110509F4DFC001301105C9F149E29B
:1004500052E06FE372E0C7010E94C804C7010E9426
:10046000B203182F882309F4D6C065E270E0C301F7
:100470000E946C00832D922D0E94CB008FEF94E39D
:100480002CE0815090402040E1F700C0000065E280
:1004900070E0C3010E949B0050E040E060EA70E021
:1004A000C5010E94E6008FEF9EE924E28150904052
:1004B0002040E1F700C00000912E01E010E095CF50
:1004C000992039F047E452E06FE372E0C7010E94DF
:1004D000C804C7010E94C3038823F1F0839483E01A
:1004E00088121AC065E270E0C3010E947400832D77
:1004F000922D0E94CB009FEF24E38CE0915020408E
:100500008040E1F700C00000C6010E94170165E2CB
:1005100070E0C3010E949B0080915602843009F074
:1005200064CFF894832D922D0E94CB009FEF2BE493
:100530008DE1915020408040E1F700C0000040EA8A
:1005400050E070E060E0C5010E94DE009FEF2BE408
:100550008DE1915020408040E1F700C00000C501CE
:100560000E94CB009FEF29E688E191502040804017
:10057000E1F700C0000050E040E060EA70E0C50133
:100580000E94E6009FEF2BE48DE1915020408040D7
:10059000E1F700C0000060E0C7010E94B503912CA4
:1005A00002E08CCF65E270E0C3010E946C0049E27A
:1005B00052E06FE372E0C7010E94C804C7010E94C5
:1005C000B203882309F411CF832D922D0E94CB0012
:1005D0009FEF24E38CE0915020408040E1F700C081
:1005E000000040EA50E070E060E0C5010E94DE00DB
:1005F0009FEF2EE984E2915020408040E1F700C057
:10060000000003E05BCF47E452E06FE372E0C70114
:100610000E94C804EACE10E000E0E7CE08958AB157
:10062000806C8AB95E98E0EBF0E080818264808320
:10063000E1EBF0E08081846080831092B200089545
:100640000895CF93DF9300D000D0CDB7DEB7942FBD
:10065000852F20E030E040E054E499838A836B8367
:100660007C8369817A818B819C810E94F90A9B013C
:10067000AC0160E074E284EF9AE40E94070A20E093
:1006800030E040E85FE369837A838B839C836981F0
:100690007A818B819C810E949A0969837A838B83FA
:1006A0009C8369817A818B819C810E94790A609305
:1006B000B3000F900F900F900F90DF91CF9108959E
:1006C0001092B3000895CF93DF93EC01FC011192D7
:1006D000CF010E94A300CE0103960E946A001C82F3
:1006E0001D828FE18E8318861986CE010A960E949C
:1006F0000F03CE010B960E94CD08CE010C960E94EE
:1007000005091D861E861F86198A84E9E1E0F1E04D
:10071000DE01529601900D928A95E1F7888187B9A2
:100720008FEF84B9DF91CF910895CF93DF93EC01E0
:100730000C960E940B09CE010B960E94E208CE0196
:100740000A960E942003CE0103960E946B00CE0100
:100750000196DF91CF910C94B100FC0196B19F718D
:1007600097830895FC0180850895FC0160870895B2
:10077000FC0184810895FC0164830895FC01858156
:1007800008950D960895FC0181850895AF92BF925A
:10079000CF92DF92EF92FF920F931F93CF93DF934D
:1007A000EC0102E310E0D12CC12C5C012CE0A20E84
:1007B000B11C60E0C5010E940E099695879596953B
:1007C0008795888BC80ED11C0150110991F7C6017D
:1007D00062E370E00E946C098E010F5F1F4F7E0183
:1007E0008AE0E80EF11C94EAC91696E0D9060CF0EE
:1007F00050C026E4C21625E0D2060CF450C08FE3A8
:1008000099E121E0815090402040E1F700C00000D4
:1008100060E0C5010E940E0996958795969587958B
:10082000888B6E0123E0C20ED11C823208F447C0CF
:10083000C8010E94CB0065E270E0C6010E9474000E
:100840004A8D5B8D6C8D7D8DC7010E9421038FEFDA
:100850009AED2AE1815090402040E1F700C000006D
:10086000C7010E94600346E950E06CE870E0C801EF
:100870000E94BD008FEF99E628E181509040204012
:10088000E1F700C000008989FE01E80FF11D91E049
:1008900046C0625271096735710508F44EC0C70140
:1008A0000E946003C801DF91CF911F910F91FF90CB
:1008B000EF90DF90CF90BF90AF900C94B500C8013F
:1008C0000E94CB004EA15FA168A579A5C7010E9437
:1008D00021038FEF99E628E1815090402040E1F715
:1008E00000C00000C7010E9460034DE750E063E7CD
:1008F00070E0C8010E94BD008FEF98EF25E18150A4
:1009000090402040E1F700C0000065E270E0C601C1
:100910000E946C008989FE01E80FF11D92E0958725
:100920008F5F898BDF91CF911F910F91FF90EF9097
:10093000DF90CF90BF90AF900895C8010E94CB0088
:1009400065E270E0CE0103960E9474004EA15FA1A3
:1009500068A579A5C7010E9421038FEF99E628E1D8
:10096000815090402040E1F700C00000C7010E9484
:1009700060034DE750E063E770E0C8010E94BD00EE
:100980008FEF98EF25E1815090402040E1F779CF3B
:10099000EF92FF920F931F93CF93DF93EC017B01B4
:1009A0008A010E94AD03EF81E150EE3108F077C07B
:1009B000F0E0ED58F44F0C9480098E010F5F1F4F4B
:1009C000C8010E94CE0086B1982F9F719F8382FF3D
:1009D000F7CF26C08E010F5F1F4FC8010E94CE00C7
:1009E00086B1982F9F719F8382FFF7CF19C08E0128
:1009F0000F5F1F4FC8010E94D60086B1982F9F71CC
:100A00009F8382FFF7CF0CC08E010F5F1F4FC8017D
:100A10000E94D60086B1982F9F719F8382FFF7CFE7
:100A2000DF91CF911F910F91FF90EF90089543E7D1
:100A300050E06CE870E0CE010196DF91CF911F91FC
:100A40000F91FF90EF900C94E6004CE850E063E7C4
:100A500070E0CE010196DF91CF911F910F91FF9031
:100A6000EF900C94DE00CE010196DF91CF911F91A3
:100A70000F91FF90EF900C94B50011E01887CE0114
:100A800001960E94B5001887CBCF44E650E068E796
:100A900070E0D1CF48E750E064E670E0DACFCE01F5
:100AA0000196DF91CF911F910F91FF90EF900C94E1
:100AB000CB0081E08887B4CF2FE789EA93E021500B
:100AC00080409040E1F700C00000CE010E94AD03DD
:100AD00022E00932120719F00E541240B1F481E0FD
:100AE00089878E010F5F1F4F43E950E06CE870E08B
:100AF000C8010E94BD00C8010E94D60086B1982F8F
:100B00009F719F8382FFF7CF8BCF8F818F3109F049
:100B100087CF9FE3E91692E0F90609F08EC0CE0177
:100B200001960E94B50081E08C837ACF8FE799EA25
:100B300023E0815090402040E1F700C00000CE014A
:100B40000E94AD0382E00932180721F00E541240D2
:100B500009F069C081E089878E010F5F1F4F43E96B
:100B600050E06CE870E0C8010E94BD00C8010E941E
:100B7000D60086B1982F9F719F8382FFF7CF50CF09
:100B80008FE799EA23E0815090402040E1F700C0D0
:100B90000000CE010E94AD0382E00734180721F067
:100BA0000952124009F03FC081E089878E010F5F32
:100BB0001F4F43E950E06CE870E0C8010E94BD009F
:100BC000C8010E94CE0086B1982F9F719F8382FF3B
:100BD000F7CF26CF8FE799EA23E08150904020405D
:100BE000E1F700C00000CE010E94AD0382E00734AF
:100BF000180719F009521240B1F481E089878E017B
:100C00000F5F1F4F43E950E06CE870E0C8010E949D
:100C1000BD00C8010E94CE0086B1982F9F719F83AE
:100C200082FFF7CFFDCE8F818F3109F0F9CE2FE310
:100C3000E21622E0F20609F472CF27E3E21622E080
:100C4000F20609F0EDCECE0101960E94CB0081E0C4
:100C50008D83E6CECF93DF93EC0118828FEF8983EB
:100C6000CE0102960E94A300CE0104960E940F03BB
:100C7000CE0105960E946A00CE0106960E940509E3
:100C800018861F821A8619861C861B861E8684E992
:100C9000E5E9F1E0DE011F9601900D928A95E1F7FA
:100CA000888181B9898184B9DF91CF910895CF93EB
:100CB000DF93EC0106960E940B09CE0105960E9477
:100CC0006B00CE0104960E942003CE010296DF91B4
:100CD000CF910C94B100079608958F929F92AF9296
:100CE000BF92CF92DF92EF92FF920F931F93CF9319
:100CF000DF93EC0154E1C52ED12CF12CE12C8C01B9
:100D00000A5F1F4F60E0C8010E940E099695879503
:100D1000969587958D87E80EF11C81E0C81AD10859
:100D200089F7C70164E170E00E946C094B0160E043
:100D3000C8010E940E0996958795969587958D878F
:100D40006E0182E0C80ED11C5E0185E0A80EB11CC8
:100D50008E010C5F1F4F84E3E81683E0F8068CF5E4
:100D600088E5E81682E0F8069CF1C6010E94CB00F7
:100D70004F85588969897A89C8010E942103C80171
:100D80000E94600365E270E0C5010E946C008E85E0
:100D9000E82FF0E0EE0FFF1FEC0FFD1F22E030E028
:100DA000308727838F5F8E87DF91CF911F910F91BF
:100DB000FF90EF90DF90CF90BF90AF909F908F907B
:100DC00008958FE5881A91088AE188169104B8F091
:100DD00065E270E0C5010E949B00C8010E946003AB
:100DE000C601DF91CF911F910F91FF90EF90DF909F
:100DF000CF90BF90AF909F908F900C94B500C6019C
:100E00000E94CB0065E270E0C5010E9474004F892A
:100E1000588D698D7A8DC8010E942103C8010E94F6
:100E20006003C6010E94B5008E85E82FF0E0EE0F4A
:100E3000FF1FEC0FFD1F21E030E0B2CF089580EAE4
:100E4000809300011092B90080E28093B800089569
:100E5000FC0180E88083CF010C941F07982F9370CA
:100E6000891305C0880F806A8093000108958FEF71
:100E70000895FA0194EA24E89093BC008091BC00A4
:100E800087FFFCCF809100018093BB002093BC00C2
:100E90008091BC0087FFFCCF8091B900883161F759
:100EA00084EA8093BC008091BC0087FFFCCF8091D6
:100EB00000018093BB0084E88093BC008091BC005B
:100EC00087FFFCCF7093BB0084E88093BC008091C7
:100ED000BC0087FFFCCF6093BB0084E88093BC001C
:100EE0008091BC0087FFFCCF8091BC0087FFFCCFC6
:100EF00084EA8093BC008091BC0087FFFCCF809186
:100F000000018F5F8093BB0084E88093BC008091D8
:100F1000BC0087FFFCCF84E88093BC008091BC00BC
:100F200087FFFCCF8091BB00808384E98093BC0065
:100F300080E0089594EA34E89093BC008091BC006E
:100F400087FFFCCF809100018093BB003093BC00F1
:100F50008091BC0087FFFCCF8091B900883161F798
:100F600084EA8093BC008091BC0087FFFCCF809115
:100F700000018093BB0084E88093BC008091BC009A
:100F800087FFFCCF7093BB0084E88093BC00809106
:100F9000BC0087FFFCCF6093BB0084E88093BC005B
:100FA0008091BC0087FFFCCF84EA8093BC008091D5
:100FB000BC0087FFFCCF809100018F5F8093BB0056
:100FC00084E88093BC008091BC0087FFFCCF84EC58
:100FD000211105C084E98093BC0080E00895213090
:100FE00009F484E88093BC009091BC0097FFFCCF8B
:100FF000FA019091BB0091932150AF01E9CF94EA9F
:1010000024E89093BC008091BC0087FFFCCF8091C6
:1010100000018093BB002093BC008091BC0087FF3F
:10102000FCCF8091B900883161F784EA8093BC00DD
:101030008091BC0087FFFCCF809100018093BB00B2
:1010400084E88093BC008091BC0087FFFCCF709344
:10105000BB0084E88093BC008091BC0087FFFCCF7C
:101060006093BB0084E88093BC008091BC0087FF44
:10107000FCCF4093BB0084E88093BC008091BC000F
:1010800087FFFCCF84E98093BC0080E00895FB01DA
:10109000260F372F311DDC018C918150990B862B47
:1010A0009F2B2817390718F09C012F5F3F4F822F85
:1010B0008E1B24EA34E82093BC009091BC0097FF7B
:1010C000FCCF909100019093BB003093BC009091B5
:1010D000BC0097FFFCCF9091B900983161F794EA7A
:1010E0009093BC009091BC0097FFFCCF90910001C1
:1010F0009093BB0094E89093BC009091BC0097FF44
:10110000FCCFF093BB0094E89093BC009091BC009E
:1011100097FFFCCFE093BB0094E89093BC009091C4
:10112000BC0097FFFCCF982F24E8911104C094E9EC
:101130009093BC000895FA0131913093BB00209345
:10114000BC003091BC0037FFFCCF9150AF01EDCF18
:10115000DF92EF92FF920F931F93CF93DF93D82EDE
:10116000D92F7B018A01C22F2C2FA801B7018D2D09
:101170009D2F0E944708282F30E0E20EF31EC81B67
:10118000020F131FC111F0CF80E0DF91CF911F91AB
:101190000F91FF90EF90DF9008951092C5008FECB3
:1011A0008093C400E0ECF0E08081806C8083E1EC0F
:1011B000F0E0808188618083E2ECF0E080818660ED
:1011C0008083089508958091C00085FFFCCF6093CF
:1011D000C60008958091C00087FFFCCF8091C600B3
:1011E00008950F931F93CF93DF93182F092FEB01CF
:1011F0006991611105C0DF91CF911F910F91089501
:10120000812F902F0E94E308F3CF10927C0086E894
:1012100080937A00089510927A00089580917C005E
:10122000807E80937C0080917C006770682B609347
:101230007C0080917A00806480937A0080917A00AB
:1012400084FFFCCF80917A00806180937A002091A6
:1012500078008091790090E0982F8827820F911D67
:101260000895CDB7DEB7C055D1400FB6F894DEBFB4
:101270000FBECDBFCE01805B9E4F0E946A00CE01A3
:10128000825B9E4F0E94A300CE0101960E94EE0059
:10129000CE0101960E94BA01CE0101960E9406017C
:1012A000CE01825B9E4F0E94B100CE01805B9E4FBB
:1012B0000E946B0090E080E0C05BDE4F0FB6F894B8
:1012C000DEBF0FBECDBF089587E592E00C940F03FB
:1012D00087E592E00C94200397FB072E16F4009408
:1012E00007D077FD09D00E94860907FC05D03EF49F
:1012F000909581959F4F0895709561957F4F0895C2
:10130000EE0FFF1F0590F491E02D0994AA1BBB1B63
:1013100051E107C0AA1FBB1FA617B70710F0A61BF5
:10132000B70B881F991F5A95A9F780959095BC0116
:10133000CD0108955058BB27AA270E94B2090C94EA
:10134000BF0A0E94B10A38F00E94B80A20F039F4AE
:101350009F3F19F426F40C94AE0A0EF4E095E7FBD7
:101360000C94A80AE92F0E94D00A58F3BA17620712
:1013700073078407950720F079F4A6F50C94F20A18
:101380000EF4E0950B2EBA2FA02D0B01B9019001A0
:101390000C01CA01A0011124FF27591B99F0593FE4
:1013A00050F4503E68F11A16F040A22F232F342F2C
:1013B0004427585FF3CF469537952795A795F0407A
:1013C0005395C9F77EF41F16BA0B620B730B840B8F
:1013D000BAF09150A1F0FF0FBB1F661F771F881F47
:1013E000C2F70EC0BA0F621F731F841F48F487959F
:1013F00077956795B795F7959E3F08F0B0CF939591
:10140000880F08F09927EE0F9795879508950E9409
:101410001B0A0C94BF0A0E94B80A58F00E94B10A35
:1014200040F029F45F3F29F00C94A80A51110C9464
:10143000F30A0C94AE0A0E94D00A68F39923B1F320
:10144000552391F3951B550BBB27AA2762177307EA
:10145000840738F09F5F5F4F220F331F441FAA1F7E
:10146000A9F335D00E2E3AF0E0E832D0915050403A
:10147000E695001CCAF72BD0FE2F29D0660F771FE8
:10148000881FBB1F261737074807AB07B0E809F0CE
:10149000BB0B802DBF01FF2793585F4F3AF09E3F53
:1014A000510578F00C94A80A0C94F30A5F3FE4F31A
:1014B000983ED4F3869577956795B795F7959F5F96
:1014C000C9F7880F911D9695879597F90895E1E0E2
:1014D000660F771F881FBB1F621773078407BA0741
:1014E00020F0621B730B840BBA0BEE1F88F7E0959C
:1014F00008950E94D80A88F09F5798F0B92F99272D
:10150000B751B0F0E1F0660F771F881F991F1AF0EE
:10151000BA95C9F714C0B13091F00E94F20AB1E057
:1015200008950C94F20A672F782F8827B85F39F056
:10153000B93FCCF3869577956795B395D9F73EF487
:1015400090958095709561957F4F8F4F9F4F08952F
:1015500097F99F6780E870E060E008959FEF80EC66
:10156000089500240A941616170618060906089509
:1015700000240A9412161306140605060895092E6F
:101580000394000C11F4882352F0BB0F40F4BF2BDE
:1015900011F460FF04C06F5F7F4F8F4F9F4F08951E
:1015A00057FD9058440F551F59F05F3F71F0479514
:1015B000880F97FB991F61F09F3F79F087950895F9
:1015C000121613061406551FF2CF4695F1DF08C018
:1015D000161617061806991FF1CF86957105610535
:1015E00008940895E894BB2766277727CB0197F9DD
:1015F00008950E940C0B0C94BF0A0E94B10A38F0A7
:101600000E94B80A20F0952311F00C94A80A0C94BB
:10161000AE0A11240C94F30A0E94D00A70F3959F2D
:10162000C1F3950F50E0551F629FF001729FBB27D9
:10163000F00DB11D639FAA27F00DB11DAA1F649F75
:101640006627B00DA11D661F829F2227B00DA11D28
:10165000621F739FB00DA11D621F839FA00D611DAE
:10166000221F749F3327A00D611D231F849F600DCF
:10167000211D822F762F6A2F11249F5750409AF0F8
:10168000F1F088234AF0EE0FFF1FBB1F661F771F84
:10169000881F91505040A9F79E3F510580F00C944F
:1016A000A80A0C94F30A5F3FE4F3983ED4F38695BE
:1016B00077956795B795F795E7959F5FC1F7FE2BEF
:1016C000880F911D9695879597F9089510E0CFE3BF
:1016D000D0E004C0FE010E9480092196C034D107E9
:1016E000C9F7F894FFCF04051705F70433054F0534
:1016F00045055C0525054F054F054F054A054F0576
:101700003D059605EA0459054F0559054F054F0556
:101710004F055905DD0459054F055905C005590503
:02172000EA05D8
:10172200A00000DC427B14E942A4F0F6425CCF0246
:10173200430A970A437BD412435C8F1B435CCF243A
:1017420043299C2E43000039430000444366A64FC0
:101752004300005C437B146943A4F07643A4D08227
:10176200430A978A437BD49243A4909B43A4D0A478
:1017720043719DAE43B8FEB8430000C44366A6CF92
:10178200430000DC437B14E943A4F0F64300D0029B
:1017920044AE970A441FD5124400901B44A4D0249F
:1017A20044719D2E445CFF38445CFF43440AA74FBA
:1017B2004400005C440000DC427B14E942A4F0F6E1
:1017C200425CCF02430A970A437BD412435C8F1BCD
:1017D200435CCF2443299C2E43000039430000443C
:1017E2004366A64F4300005C437B146943A4F07632
:1017F20043A4D082430A978A437BD49243A4909B0A
:1018020043A4D0A443719DAE43B8FEB8430000C4C4
:101812004366A6CF430000DC437B14E943A4F0F601
:101822004300D00244AE970A441FD5124400901BD5
:1018320044A4D02444719D2E445CFF38445CFF4391
:10184200440AA74F4400005C446465757844697299
:10185200656374696F6E005061727469654100500E
:101862006172746965420044726F69746500476110
:06187200756368650000CB
:00000001FF
