:100000000C9440000C9468000C9468000C946800F8
:100010000C9468000C9468000C9468000C946800C0
:100020000C9468000C9468000C9468000C946800B0
:100030000C9468000C9468000C9468000C946800A0
:100040000C9468000C9468000C9468000C94680090
:100050000C9468000C9468000C9468000C94680080
:100060000C9468000C9468000C9468000C94680070
:100070000C9468000C9468000C9468009903A90320
:1000800011241FBECFEFD8E0DEBFCDBF11E0A0E04E
:10009000B1E0E0E3FBE002C005900D92A230B107B1
:1000A000D9F721E0A2E0B1E001C01D92A730B2076C
:1000B000E1F710E0CFE3D0E004C02197FE010E94F9
:1000C000B903CE33D107C9F70E9443030C948B05C3
:1000D0000C94000008950895FB0180818E7F808339
:1000E0008081826080830895FB0180818D7F808381
:1000F00080818160808308950F931F93CF93DF9356
:10010000D82FC92F8B010E946C008FE39FE10197CC
:10011000F1F700C00000B8018D2F9C2F0E947400E1
:100120008FE79EE30197F1F700C00000DF91CF91C8
:100130001F910F910895FB0180818D7F80838081C5
:100140008E7F80830895089580EA80930001109245
:10015000B90080E28093B8000895FC0180E88083B4
:10016000CF010C94A400982F9370891305C0880FB9
:10017000806A8093000108958FEF0895FA0194EA50
:1001800024E89093BC008091BC0087FFFCCF809155
:1001900000018093BB002093BC008091BC0087FFCE
:1001A000FCCF8091B900883161F784EA8093BC006C
:1001B0008091BC0087FFFCCF809100018093BB0041
:1001C00084E88093BC008091BC0087FFFCCF7093D3
:1001D000BB0084E88093BC008091BC0087FFFCCF0B
:1001E0006093BB0084E88093BC008091BC0087FFD3
:1001F000FCCF8091BC0087FFFCCF84EA8093BC00D9
:100200008091BC0087FFFCCF809100018F5F8093BD
:10021000BB0084E88093BC008091BC0087FFFCCFCA
:1002200084E88093BC008091BC0087FFFCCF809164
:10023000BB00808384E98093BC0080E0089594EA49
:1002400034E89093BC008091BC0087FFFCCF809184
:1002500000018093BB003093BC008091BC0087FFFD
:10026000FCCF8091B900883161F784EA8093BC00AB
:100270008091BC0087FFFCCF809100018093BB0080
:1002800084E88093BC008091BC0087FFFCCF709312
:10029000BB0084E88093BC008091BC0087FFFCCF4A
:1002A0006093BB0084E88093BC008091BC0087FF12
:1002B000FCCF84EA8093BC008091BC0087FFFCCF18
:1002C000809100018F5F8093BB0084E88093BC0025
:1002D0008091BC0087FFFCCF84EC211105C084E92C
:1002E0008093BC0080E00895213009F484E8809375
:1002F000BC009091BC0097FFFCCFFA019091BB002D
:1003000091932150AF01E9CF94EA24E89093BC0087
:100310008091BC0087FFFCCF809100018093BB00DF
:100320002093BC008091BC0087FFFCCF8091B90076
:10033000883161F784EA8093BC008091BC0087FF1C
:10034000FCCF809100018093BB0084E88093BC00C7
:100350008091BC0087FFFCCF7093BB0084E8809342
:10036000BC008091BC0087FFFCCF6093BB0084E899
:100370008093BC008091BC0087FFFCCF4093BB0002
:1003800084E88093BC008091BC0087FFFCCF84E9A7
:100390008093BC0080E00895FB01260F372F311DAC
:1003A000DC018C918150990B862B9F2B28173907E4
:1003B00018F09C012F5F3F4F822F8E1B24EA34E8F8
:1003C0002093BC009091BC0097FFFCCF909100015E
:1003D0009093BB003093BC009091BC0097FFFCCF82
:1003E0009091B900983161F794EA9093BC00909194
:1003F000BC0097FFFCCF909100019093BB0094E864
:100400009093BC009091BC0097FFFCCFF093BB0091
:1004100094E89093BC009091BC0097FFFCCFE093D0
:10042000BB0094E89093BC009091BC0097FFFCCF78
:10043000982F24E8911104C094E99093BC0008958A
:10044000FA0131913093BB002093BC003091BC0085
:1004500037FFFCCF9150AF01EDCFDF92EF92FF92CB
:100460000F931F93CF93DF93D82ED92F7B018A014F
:10047000C22F2C2FA801B7018D2D9D2F0E94CC01DA
:10048000282F30E0E20EF31EC81B020F131FC1110C
:10049000F0CF80E0DF91CF911F910F91FF90EF900F
:1004A000DF900895FC018AE5808311828AB18C6314
:1004B0008AB9E0E8F0E08081816A8083E1E8F0E0D9
:1004C00080818260808310928200089508957093E5
:1004D00089006093880050938B0040938A000895B0
:1004E0008BB1836F8BB986E890E0909389008093FD
:1004F00088008BE990E090938B0080938A000895A8
:100500008AE790E0909389008093880080E890E0EB
:1005100090938B0080938A008BB18C608BB9089587
:10052000109289001092880010928B0010928A001D
:100530000895FC01808190E0A8E8B0E02AEA30E06C
:1005400011963C932E93EAE8F0E0918380832FE7A5
:1005500083E893E3215080409040E1F700C0000021
:1005600011961C921E92118210820895FC018081C6
:1005700090E0A8E8B0E011969C938E93EAE8F0E052
:100580008AEA90E0918380832FE78BE99FE22150F4
:1005900080409040E1F700C0000011961C921E922E
:1005A000118210820895FC01808190E0218130E069
:1005B000309389002093880090938B0080938A0069
:1005C0000895FC01818190E0208130E03093890022
:1005D0002093880090938B0080938A0008958AB1BD
:1005E000806C8AB95E98E0EBF0E080818264808361
:1005F000E1EBF0E08081866080831092B200089584
:100600000895CF93DF9300D000D0CDB7DEB7942FFD
:10061000852F20E030E040E054E499838A836B83A7
:100620007C8369817A818B819C810E941E059B015C
:10063000AC0160E074E284EF9AE40E942C0420E0B4
:1006400030E040E85FE369837A838B839C83698130
:100650007A818B819C810E94BF0369837A838B831B
:100660009C8369817A818B819C810E949E04609326
:10067000B3000F900F900F900F90DF91CF910895DE
:100680001092B300089517B88FEF81B981B986B180
:1006900086B1282F247082FF0EC0982F917159F4D3
:1006A00062E270E083E091E00E947C0085E091E0EE
:1006B0000E947002EDCF982F9370933039F422236B
:1006C00029F085E091E00E949902E2CF382F38713D
:1006D000383139F4222329F085E091E00E94B602F6
:1006E000D7CF8C70992369F0811118C062E270E055
:1006F00083E091E00E94740085E091E00E94E102B5
:10070000C7CF882359F062E270E083E091E00E9455
:100710006C0085E091E00E94D302BACF62E270E003
:1007200083E091E00E949B0085E091E00E949002AE
:10073000AFCF85E091E00E94520284E091E00E94F8
:10074000AD0083E091E00E946A0082E091E00C94A9
:10075000EF0282E091E00E94000383E091E00E94BA
:100760006B0084E091E00E94A30085E091E00C948E
:100770006602EE0FFF1F0590F491E02D099450588A
:10078000BB27AA270E94D7030C94E4040E94D60436
:1007900038F00E94DD0420F039F49F3F19F426F46C
:1007A0000C94D3040EF4E095E7FB0C94CD04E92FF0
:1007B0000E94F50458F3BA17620773078407950778
:1007C00020F079F4A6F50C9417050EF4E0950B2EA5
:1007D000BA2FA02D0B01B90190010C01CA01A00193
:1007E0001124FF27591B99F0593F50F4503E68F1EE
:1007F0001A16F040A22F232F342F4427585FF3CF2F
:10080000469537952795A795F0405395C9F77EF4FF
:100810001F16BA0B620B730B840BBAF09150A1F048
:10082000FF0FBB1F661F771F881FC2F70EC0BA0FCE
:10083000621F731F841F48F4879577956795B79556
:10084000F7959E3F08F0B0CF9395880F08F0992751
:10085000EE0F9795879508950E9440040C94E40448
:100860000E94DD0458F00E94D60440F029F45F3F56
:1008700029F00C94CD0451110C9418050C94D30458
:100880000E94F50468F39923B1F3552391F3951B66
:10089000550BBB27AA2762177307840738F09F5FA1
:1008A0005F4F220F331F441FAA1FA9F335D00E2E0E
:1008B0003AF0E0E832D091505040E695001CCAF77B
:1008C0002BD0FE2F29D0660F771F881FBB1F26173E
:1008D00037074807AB07B0E809F0BB0B802DBF0115
:1008E000FF2793585F4F3AF09E3F510578F00C94E4
:1008F000CD040C9418055F3FE4F3983ED4F386953D
:1009000077956795B795F7959F5FC9F7880F911D04
:100910009695879597F90895E1E0660F771F881FF0
:10092000BB1F621773078407BA0720F0621B730BA3
:10093000840BBA0BEE1F88F7E09508950E94FD0422
:1009400088F09F5798F0B92F9927B751B0F0E1F090
:10095000660F771F881F991F1AF0BA95C9F714C040
:10096000B13091F00E941705B1E008950C9417057D
:10097000672F782F8827B85F39F0B93FCCF3869579
:1009800077956795B395D9F73EF4909580957095D6
:1009900061957F4F8F4F9F4F089597F99F6780E82C
:1009A00070E060E008959FEF80EC089500240A94C1
:1009B0001616170618060906089500240A9412163A
:1009C0001306140605060895092E0394000C11F46D
:1009D000882352F0BB0F40F4BF2B11F460FF04C01A
:1009E0006F5F7F4F8F4F9F4F089557FD9058440F73
:1009F000551F59F05F3F71F04795880F97FB991F7E
:100A000061F09F3F79F0879508951216130614063A
:100A1000551FF2CF4695F1DF08C0161617061806C7
:100A2000991FF1CF86957105610508940895E894A2
:100A3000BB2766277727CB0197F908950E943105D8
:100A40000C94E4040E94D60438F00E94DD0420F0E7
:100A5000952311F00C94CD040C94D30411240C9420
:100A600018050E94F50470F3959FC1F3950F50E0AF
:100A7000551F629FF001729FBB27F00DB11D639F50
:100A8000AA27F00DB11DAA1F649F6627B00DA11DF6
:100A9000661F829F2227B00DA11D621F739FB00D9C
:100AA000A11D621F839FA00D611D221F749F33270C
:100AB000A00D611D231F849F600D211D822F762FA5
:100AC0006A2F11249F5750409AF0F1F088234AF082
:100AD000EE0FFF1FBB1F661F771F881F91505040EE
:100AE000A9F79E3F510580F00C94CD040C94180595
:100AF0005F3FE4F3983ED4F3869577956795B79575
:100B0000F795E7959F5FC1F7FE2B880F911D96958E
:100B1000879597F9089510E0CFE3D0E004C0FE0177
:100B20000E94B9032196C034D107C9F7F894FFCFCA
:020B3000A00023
:00000001FF
