:100000000C943E000C945B000C945B000C945B0021
:100010000C945B000C945B000C945B000C945B00F4
:100020000C945B000C945B000C945B000C945B00E4
:100030000C945B000C945B000C945B000C945B00D4
:100040000C941D030C945B000C945B000C945B00FF
:100050000C945B000C945B000C945B000C945B00B4
:100060000C945B000C945B000C945B000C945B00A4
:100070000C945B000C945B000C945B0011241FBE7D
:10008000CFEFD8E0DEBFCDBF11E0A0E0B1E0E4E00B
:10009000FFE002C005900D92A439B107D9F721E025
:1000A000A4E9B1E001C01D92A539B207E1F70E94B1
:1000B00065050C9462070C940000CF93DF93EC016C
:1000C000FC011192CF010E944902CE0103960E94C9
:1000D00010021C821D828FE18E831886888187B969
:1000E0008FEF84B9DF91CF910895CF93DF93EC0127
:1000F00003960E941102CE010196DF91CF910C94DC
:100100005D02FC0196B19F7197830895FC01808583
:100110000895FC0184810895FC0185810895CF92A2
:10012000DF92EF92FF920F931F93CF93DF930F9283
:10013000CDB7DEB78C01CE0101967C010E940F0481
:10014000C8010E948100D8011796EC91E150DE2C85
:10015000CF2CEE3108F051C0F0E0EC59F84F0C9480
:10016000900543E750E066E970E0C80101960E94FF
:10017000C9028D2D9C2D0E9420040F90DF91CF91FC
:100180001F910F91FF90EF90DF90CF90089543E77C
:1001900050E06CE870E0E9CF43E750E061E970E0DF
:1001A000E4CF4CE850E063E770E0C80101960E949C
:1001B000B902DFCF46E950E0F6CF41E950E0F3CF96
:1001C000C80101960E946702D4CF65E270E0C801C1
:1001D00003960E941202C80101960E94670281E004
:1001E000F8018087C6CF44E650E068E770E0BDCFF5
:1001F00048E750E064E670E0D8CFC80101960E945D
:100200009402B7CF40E050E06CED72E48E2D9F2D4C
:100210000E942104FFEF22E587E0F150204080405A
:10022000E1F700C000008E2D9F2D0E94600481E048
:10023000D80118968C939DCFBFE7EAE1F6E0B15064
:10024000E040F040E1F700C00000C8010E948100DA
:1002500078012FEFE21AF20AD80117968C911797BE
:100260008F3139F415968C91882309F4AEC0C701FB
:100270006DC043E950E06CE870E0C7010E9477026E
:10028000BFE7E7E9F6E0B150E040F040E1F700C039
:100290000000C7010E94AB0286B1982F9F71D80160
:1002A00017969C9382FFF5CF64CFBFE7EAE1F6E0B3
:1002B000B150E040F040E1F700C00000C8010E94EA
:1002C000810078012FEFE21AF20AD80117968C917B
:1002D00017978F3139F243E950E06CE870E0C701BD
:1002E0000E947702BFE7E7E9F6E0B150E040F04056
:1002F000E1F700C00000C7010E94AB0286B1982F51
:100300009F71D80117969C9382FFF5CF32CF65E29B
:1003100070E0C80103960E941202BFE7EAE1F6E02E
:10032000B150E040F040E1F700C00000C8010E9479
:100330008100D80117968C9117978F3109F04DC025
:10034000C801019615962C91222331F00E94670274
:1003500081E0F80184830DCF0E94940281E0F801CE
:10036000858307CFBFE7EAE1F6E0B150E040F04017
:10037000E1F700C00000C8010E94810078012FEF62
:10038000E21AF20AD80117968C9117978F3109F467
:1003900069CF43E950E06CE870E0C7010E94770242
:1003A000BFE7E7E9F6E0B150E040F040E1F700C018
:1003B0000000C7010E949D0286B1982F9F71D8014D
:1003C00017969C9382FFF5CFD4CEC7010E9494026A
:1003D00081E0D80115968C93CCCE882309F427CFE1
:1003E0007801FFEFEF1AFF0A43E950E06CE870E094
:1003F000C7010E9477022FE787E996E021508040ED
:100400009040E1F700C00000C7010E949D0286B144
:10041000982F9F71D80117969C9382FFF5CFA9CE94
:1004200008950895FB0180818E7F808380818260A2
:1004300080830895FB0180818D7F8083808181602E
:10044000808308950F931F93CF93DF93D82FC92FE5
:100450008B010E9412028FE39FE10197F1F700C028
:100460000000B8018D2F9C2F0E941A028FE79EE397
:100470000197F1F700C00000DF91CF911F910F911C
:100480000895FB0180818D7F808380818E7F8083B2
:100490000895FC0184E6808311828AB18C638AB955
:1004A000E0E8F0E08081816A8083E1E8F0E080812B
:1004B000826080831092820008950895709389006D
:1004C0006093880050938B0040938A0008958BB10D
:1004D000837F8BB98EE690E09093890080938800AB
:1004E00088E790E090938B0080938A000895CA017A
:1004F0004BB1437F4BB97093890060938800909310
:100500008B0080938A0008958AE090E090938900A0
:100510008093880084E990E090938B0080938A0018
:100520008BB18C608BB9089510928900109288006D
:1005300010928B0010928A0008958BB1837F8BB943
:1005400010928900109288008DE790E090938B00C4
:1005500080938A0008958BB1837F8BB98DE790E0FB
:10056000909389008093880010928B0010928A00EB
:1005700008958BB1837F8BB984E690E090938900D6
:100580008093880088E790E090938B0080938A00A6
:1005900008958BB1837F8BB988E790E090938900B1
:1005A0008093880084E690E090938B0080938A008B
:1005B0000895CF93DF93EC010E946304CE018D5523
:1005C0009F4F0E945D00CE0184559F4F0E944902BB
:1005D000C255DF4F8CE49DE199838883DF91CF91F1
:1005E0000895CF93DF93EC0184559F4F0E945D02E5
:1005F000CE018D559F4F0E947500CE01DF91CF91A6
:100600000C94900416BCFC01E255FF4F808187BD1D
:1006100084B5886084BD85B5856085BDEEE6F0E073
:100620008081826080830895F894E89AE9E6F0E09A
:10063000808183608083789408958F9381E0809394
:1006400094018F9118950E94A404FC0184819581E6
:10065000892B31F482819381958384831382128262
:10066000CF010895CF93DF93EC01CD55DF4FCE013D
:100670000E948C00882319F0DF91CF910895CE015C
:100680000E948F00F4CF6F927F928F929F92AF92D1
:10069000BF92CF92DF92EF92FF920F931F93CF936F
:1006A000DF9300D0CDB7DEB76C010E9414035E016A
:1006B00022E0A20EB11CC5010E941002CE010196DB
:1006C0007C010E940F0410E000E03701760193EAFC
:1006D000E90EF11C46012CEA820E911CC7010E9412
:1006E00089008823B9F0C3010E942004C5010E943B
:1006F00011020F900F90DF91CF911F910F91FF90FA
:10070000EF90DF90CF90BF90AF909F908F907F90B1
:100710006F9008950230110509F45AC044F4011590
:10072000110579F00130110599F102E018C003308C
:10073000110509F46FC065E270E0C5010E94410235
:10074000CDCF65E270E0C5010E941202C7010E9490
:100750008F00C7010E948600811103C001E010E0F4
:10076000EACFC6010E94020340E050E06CED72E463
:10077000C3010E942104C4010E949D028FEF92E5F3
:1007800027E0815090402040E1F700C00000E6CF14
:10079000C7010E948F00809194018823F9F2C4015F
:1007A0000E949D028FEF92E527E08150904020400B
:1007B000E1F700C00000C4010E9494028FEF99E6A7
:1007C00028E1815090402040E1F700C00000ADCF0B
:1007D000C7010E948F00C7010E9486008823C1F0D4
:1007E00065E270E0C5010E941A0240E050E06CED45
:1007F00072E4C3010E942104C4010E949D028FEF94
:1008000092E527E0815090402040E1F700C00000D1
:1008100003E0A5CFC7010E948F008DCF08958AB154
:10082000806C8AB95E98E0EBF0E08081826480831E
:10083000E1EBF0E08081846080831092B200089543
:100840000895CF93DF9300D000D0CDB7DEB7942FBB
:10085000852F20E030E040E054E499838A836B8365
:100860007C8369817A818B819C810E94F5069B0142
:10087000AC0160E074E284EF9AE40E94030620E099
:1008800030E040E85FE369837A838B839C836981EE
:100890007A818B819C810E94960569837A838B8300
:1008A0009C8369817A818B819C810E94750660930B
:1008B000B3000F900F900F900F90DF91CF9108959C
:1008C0001092B3000895CF93DF93EC0118828FEF5D
:1008D0008983CE0102960E944902CE0104960E94AD
:1008E0000F04CE0105960E941002CE0106960E94CA
:1008F000390518861F821A8619861C861B861E8655
:1009000084E9E0E0F1E0DE011F9601900D928A9506
:10091000E1F7888181B9898184B9DF91CF91089508
:10092000CF93DF93EC0106960E943F05CE0105961A
:100930000E941102CE0104960E942004CE0102966C
:10094000DF91CF910C945D0207960895CF92DF92CC
:10095000EF92FF920F931F93CF93DF93EC0160E030
:1009600006960E94420596958795969587958D8760
:100970007E0132E0E30EF11C6E0135E0C30ED11CA6
:100980008E010C5F1F4F8D3198F58531A0F1C701A5
:100990000E9494024F85588969897A89C8010E940A
:1009A00021048FEF99E628E1815090402040E1F743
:1009B00000C00000C8010E94600465E270E0C6014A
:1009C0000E9412028E85E82FF0E0EE0FFF1FEC0F61
:1009D000FD1F22E030E0308727838F5F8E87DF9115
:1009E000CF911F910F91FF90EF90DF90CF900895DE
:1009F00080548D3198F065E270E0C6010E9441029A
:100A0000C8010E946004C701DF91CF911F910F912F
:100A1000FF90EF90DF90CF900C946702C7010E9487
:100A2000940265E270E0C6010E941A02FE01E556DA
:100A3000FF4F4081518162817381C8010E9421046E
:100A40003FEF89E698E1315080409040E1F700C0E7
:100A50000000C8010E946004C7010E9467028E85E1
:100A6000E82FF0E0EE0FFF1FEC0FFD1F21E030E05C
:100A7000B2CF10927C0086E880937A00089510929D
:100A80007A00089580917C00807E80937C00809124
:100A90007C006770682B60937C0080917A00806492
:100AA00080937A0080917A0084FFFCCF80917A0055
:100AB000806180937A00209178008091790090E0A5
:100AC000982F8827820F911D0895CDB7DEB7CD5B93
:100AD000D1090FB6F894DEBF0FBECDBFCE0101968F
:100AE0000E94D902CE0183549F4F0E940F04CE0171
:100AF00083549F4F0E9460048E010F541F4FC80102
:100B00000E945D00CE0184549F4F0E941002CE01CE
:100B100086549F4F0E944902C8010E948F00FCCF5B
:100B2000EE0FFF1F0590F491E02D09945058BB275C
:100B3000AA270E94AE050C94BB060E94AD0638F0B1
:100B40000E94B40620F039F49F3F19F426F40C9467
:100B5000AA060EF4E095E7FB0C94A406E92F0E9488
:100B6000CC0658F3BA17620773078407950720F07D
:100B700079F4A6F50C94EE060EF4E0950B2EBA2F40
:100B8000A02D0B01B90190010C01CA01A001112493
:100B9000FF27591B99F0593F50F4503E68F11A163F
:100BA000F040A22F232F342F4427585FF3CF4695D0
:100BB00037952795A795F0405395C9F77EF41F16F2
:100BC000BA0B620B730B840BBAF09150A1F0FF0FBC
:100BD000BB1F661F771F881FC2F70EC0BA0F621FA8
:100BE000731F841F48F4879577956795B795F79598
:100BF0009E3F08F0B0CF9395880F08F09927EE0F2D
:100C00009795879508950E9417060C94BB060E943D
:100C1000B40658F00E94AD0640F029F45F3F29F079
:100C20000C94A40651110C94EF060C94AA060E9491
:100C3000CC0668F39923B1F3552391F3951B550B1B
:100C4000BB27AA2762177307840738F09F5F5F4F9F
:100C5000220F331F441FAA1FA9F335D00E2E3AF0DE
:100C6000E0E832D091505040E695001CCAF72BD0F6
:100C7000FE2F29D0660F771F881FBB1F2617370747
:100C80004807AB07B0E809F0BB0B802DBF01FF2779
:100C900093585F4F3AF09E3F510578F00C94A406AC
:100CA0000C94EF065F3FE4F3983ED4F38695779576
:100CB0006795B795F7959F5FC9F7880F911D969532
:100CC000879597F90895E1E0660F771F881FBB1F8E
:100CD000621773078407BA0720F0621B730B840B3B
:100CE000BA0BEE1F88F7E09508950E94D40688F0AD
:100CF0009F5798F0B92F9927B751B0F0E1F0660FE0
:100D0000771F881F991F1AF0BA95C9F714C0B13020
:100D100091F00E94EE06B1E008950C94EE06672F64
:100D2000782F8827B85F39F0B93FCCF3869577954F
:100D30006795B395D9F73EF4909580957095619538
:100D40007F4F8F4F9F4F089597F99F6780E870E01E
:100D500060E008959FEF80EC089500240A94161631
:100D6000170618060906089500240A941216130699
:100D7000140605060895092E0394000C11F4882327
:100D800052F0BB0F40F4BF2B11F460FF04C06F5F43
:100D90007F4F8F4F9F4F089557FD9058440F551F19
:100DA00059F05F3F71F04795880F97FB991F61F0ED
:100DB0009F3F79F087950895121613061406551F64
:100DC000F2CF4695F1DF08C0161617061806991FD0
:100DD000F1CF86957105610508940895E894BB27C5
:100DE00066277727CB0197F908950E9408070C948E
:100DF000BB060E94AD0638F00E94B40620F0952391
:100E000011F00C94A4060C94AA0611240C94EF067D
:100E10000E94CC0670F3959FC1F3950F50E0551FCB
:100E2000629FF001729FBB27F00DB11D639FAA273F
:100E3000F00DB11DAA1F649F6627B00DA11D661F8E
:100E4000829F2227B00DA11D621F739FB00DA11DAF
:100E5000621F839FA00D611D221F749F3327A00D69
:100E6000611D231F849F600D211D822F762F6A2F05
:100E700011249F5750409AF0F1F088234AF0EE0F6A
:100E8000FF1FBB1F661F771F881F91505040A9F797
:100E90009E3F510580F00C94A4060C94EF065F3F32
:100EA000E4F3983ED4F3869577956795B795F795D3
:100EB000E7959F5FC1F7FE2B880F911D969587954B
:100EC00097F90895F894FFCFB100C700CC00E00077
:100ED000FD00F3001C01D100FD00FD00FD00F80045
:100EE000FD00E5005501DA000201FD000201FD00F0
:100EF000FD00FD000201DD000201FD00020187018D
:040F00000201B20137
:100F04000000DC427B14E942A4F0F6425CCF0243C9
:100F14000A970A437BD412435C8F1B435CCF244360
:100F2400299C2E43000039430000444366A64F43E6
:100F340000005C437B146943A4F07643A4D082434D
:100F44000A978A437BD49243A4909B43A4D0A4439E
:100F5400719DAE43B8FEB8430000C44366A6CF43B8
:100F64000000DC437B14E943A4F0F64300D00244C0
:100F7400AE970A441FD5124400901B44A4D02444C5
:100F8400719D2E445CFF38445CFF43440AA74F44E0
:040F940000005C44B9
:00000001FF
