:100000000C9440000C9468000C9468000C946800F8
:100010000C9468000C9468000C9468000C946800C0
:100020000C9468000C9468000C9468000C946800B0
:100030000C9468000C9442010C9468000C946800C5
:100040000C9468000C9468000C9468000C94680090
:100050000C9468000C9468000C9468000C94680080
:100060000C9468000C9468000C9468000C94680070
:100070000C9468000C9468000C946800540C580CA4
:1000800011241FBECFEFD8E0DEBFCDBF12E0A0E04D
:10009000B1E0E6EFFCE102C005900D92A437B10794
:1000A000D9F722E0A4E7B2E001C01D92A737B2075A
:1000B000E1F710E0CFE3D0E004C02197FE010E94F9
:1000C000700CCE33D107C9F70E94190C0C94560E50
:1000D0000C94000008950895FB0180818E7F808339
:1000E0008081826080830895FB0180818D7F808381
:1000F00080818160808308950F931F93CF93DF9356
:10010000D82FC92F8B010E946C008FE39FE10197CC
:10011000F1F700C00000B8018D2F9C2F0E947400E1
:100120008FE79EE30197F1F700C00000DF91CF91C8
:100130001F910F910895FB0180818D7F80838081C5
:100140008E7F80830895FC0184E68083118284B1D0
:100150008FEF84B984B5816A84BD85B5826085BD21
:100160000895089567BD48BD089585B18B7D85B913
:1001700081E687BD86E688BD089585B18B7D85B90A
:1001800067BD48BD089567BD48BD85B1846285B926
:1001900008958BE587BD86E688BD85B1846285B903
:1001A000089517BC18BC089585B18B7D85B988E288
:1001B00087BD8DE588BD089585B18B7D85B981E6C4
:1001C00087BD88E288BD089585B18B7D85B988E2B9
:1001D00087BD85E588BD089585B18B7D85B98FE59F
:1001E00087BD88E288BD08950C94BD000C94BD00C5
:1001F000CF93DF93EC010E941209CE018D559F4FE2
:100200000E942005CE01875B9E4F0E94A300C55B24
:10021000DE4F82E49FE099838883DF91CF91089538
:10022000CF93DF93EC01875B9E4F0E94B100CE011C
:100230008D559F4F0E945205CE01DF91CF910C94B6
:100240003F099C01789410927502109285001092DB
:100250008400255B3E4FF901808191819093890054
:1002600080938800E0E8F0E0808188608083E1E8A6
:10027000F0E0808185608083EFE6F0E0808182603D
:10028000808308951F921FB61F9211248F9310929E
:10029000850010928400809175028F5F80937502B3
:1002A000843118F081E0809374028F911F901FBEFB
:1002B0001F9018950F931F93CF93DF930F92CDB795
:1002C000DEB78B01CE0101960E94100A23E0A8013F
:1002D00070E060E0CE0101960E94900BCE01019685
:1002E0000E94060A0F90DF91CF911F910F91089500
:1002F0008D559F4F0E947E05FC018281811103C0B4
:10030000818182831182CF010895CF93DF9300D042
:1003100000D0CDB7DEB7CE0104960E94100A23E0CC
:10032000AE014F5F5F4F70E060E0CE0104960E9427
:10033000820ACE0104960E94060A90E080E00F90A7
:100340000F900F900F90DF91CF9108950F931F930F
:10035000CF93DF93EC018C010D551F4FC8010E9414
:100360007B05882359F0CE010E947801BC01CE01A3
:10037000DF91CF911F910F910C945A01C8010E94F7
:10038000570749E252E067E372E0C8010E9459084A
:10039000E5CF2F923F924F925F926F927F928F9212
:1003A0009F92AF92BF92CF92DF92EF92FF920F9304
:1003B0001F93CF93DF9300D000D0CDB7DEB75C01A1
:1003C0003E0124E0620E711CC3010E946A004E01CE
:1003D00083E0880E911CC4010E94CC04CE010196DA
:1003E0007C010E94A30010E000E0C12CD72C582C07
:1003F000492C3E2C7F2C750193EAE90EF11C450136
:1004000027EB821A2EEF920AC7010E9475058823F6
:1004100049F165E270E0862D9D2D0E947400832DC8
:10042000972D0E94B100852D942D0E94DD04862D0C
:100430009D2D0E946B000F900F900F900F90DF91F9
:10044000CF911F910F91FF90EF90DF90CF90BF90D1
:10045000AF909F908F907F906F905F904F903F9064
:100460002F9008950330110509F42DC18CF401304B
:10047000110551F10230110509F451C001151105A2
:10048000B1F065E270E0862D9D2D0E949B00BCCFEF
:100490000430110509F44EC10530110591F749E208
:1004A00052E067E372E0C7010E945908ADCF49E20C
:1004B00052E06FE372E0C7010E945908C7010E9431
:1004C0006F05082F10E0A0CF65E270E0862D9D2D0E
:1004D0000E946C00832D972D0E94B5008FE79AE152
:1004E00026E0815090402040E1F700C0000065E226
:1004F00070E0862D9D2D0E949B0047E452E061E054
:10050000C7010E940206C5010E94210160E0C701E7
:100510000E94830502E010E0CC24C39475CFCC2068
:1005200039F046E552E06FE372E0C7010E945908D6
:10053000C7010E94800590917502882309F458C074
:10054000943108F455C0F89465E270E0862D9D2D35
:100550000E9474004AE750E06BE770E0832D972D0E
:100560000E94BD008FEF99E628E181509040204025
:10057000E1F700C0000065E270E0862D9D2D0E942D
:100580009B00832D972D0E94D1008FEF92E527E0ED
:10059000815090402040E1F700C0000060E0C701BA
:1005A0000E948305CC2081F044E750E070E060E0D9
:1005B000C4010E94F4008FEF94E32CE0815090403E
:1005C0002040E1F700C00000C5010E9421014EE774
:1005D00050E068E770E0C4010E94BD008FEF91EE2B
:1005E00024E0815090402040E1F700C000000CCF93
:1005F000953009F009CF80917402882309F404CF63
:10060000F894832D972D0E94D10065E270E0862D2D
:100610009D2D0E9474008FE79AE126E08150904062
:100620002040E1F700C0000065E270E0862D9D2DBE
:100630000E949B008FEF99E628E181509040204076
:10064000E1F700C000004DE750E070E060E0C40159
:100650000E94F4008FEF96E121E18150904020400C
:10066000E1F700C00000C4010E94D1008FEF99E6BD
:1006700028E1815090402040E1F700C0000050E0A8
:1006800040E06DE770E0C4010E94F6008FEF9DE846
:1006900022E1815090402040E1F700C0000060E07E
:1006A000C7010E947205832D972D0E94D1008FE70C
:1006B0009AE126E0815090402040E1F700C0000020
:1006C000C12C03E0FFCE49E252E06FE372E0C701C4
:1006D0000E945908C7010E946F05282E882309F43B
:1006E00093CE65E270E0862D9D2D0E946C00832DD7
:1006F000972D0E94B5008FE79AE126E08150904047
:100700002040E1F700C0000065E270E0862D9D2DDD
:100710000E949B0047E452E061E0C7010E9402068C
:10072000C5010E94210160E0C7010E947805C22C2A
:1007300004E0C8CECC2039F046E552E067E472E030
:10074000C7010E94590860E0C7010E947805C701EF
:100750000E948005882309F457CE80917502833169
:1007600008F452CE65E270E0862D9D2D0E94740043
:10077000832D972D0E94B5008FE79AE126E08150E6
:1007800090402040E1F700C0000065E270E0862D57
:100790009D2D0E949B0060E0C7010E948305CC2034
:1007A00081F044E750E070E060E0C4010E94F40092
:1007B0008FE79BE828E0815090402040E1F700C09F
:1007C0000000F89405E07ECE9F92AF92BF92CF9248
:1007D000DF92EF92FF920F931F93CF93DF9300D09E
:1007E0000F92CDB7DEB78C017E0123E0E20EF11C43
:1007F000C7010E946A00CE0101966C010E94A3000D
:10080000C8010E942101580193EAA90EB11C8091F0
:100810007502883008F45AC096B04FE550E070E099
:1008200060E0C6010E94F40094FEF6CFC6010E946B
:10083000D1002FEF89E698E1215080409040E1F708
:1008400000C00000C8010E942101809175028F3113
:1008500008F444C065E270E0C7010E946C00F8949F
:1008600086B18F7109F43EC065E270E0C7010E9455
:10087000740016B149E252E067E372E0C5010E94DC
:1008800059081F71B1F72FEF89E698E12150804098
:100890009040E1F700C0000065E270E0C7010E94EF
:1008A0009B00C6010E94B100C7010E946B000F901F
:1008B0000F900F90DF91CF911F910F91FF90EF90CC
:1008C000DF90CF90BF90AF909F90089549E252E0A3
:1008D00067E372E0C5010E94590899CFC5010E94E3
:1008E0001807B3CF16B1C6010E94B5001F711031B1
:1008F000C9F7BACFCF93DF93EC01C75BDE4F46E970
:1009000050E066E970E0CE010E94C3002FE785EF5A
:1009100090E2215080409040E1F700C00000CE01FD
:100920000E94D1002FEF83ED90E321508040904052
:10093000E1F700C0000046E950E070E060E0CE0161
:100940000E94F4002FEF8CEB9FE1215080409040FB
:10095000E1F700C00000CE010E94D1002FEF83ED2F
:1009600090E3215080409040E1F700C0000046E94C
:1009700050E066E970E0CE010E94BD002FEF85EAED
:100980009EE0215080409040E1F700C00000CE0181
:10099000DF91CF910C94D1008AB1806C8AB95E98B6
:1009A000E0EBF0E0808182648083E1EBF0E0808125
:1009B000846080831092B20008950895CF93DF93EE
:1009C00000D000D0CDB7DEB7942F852F20E030E0E7
:1009D00040E054E499838A836B837C8369817A81C4
:1009E0008B819C810E94E90D9B01AC0160E074E267
:1009F00084EF9AE40E94F70C20E030E040E85FE3E7
:100A000069837A838B839C8369817A818B819C81C2
:100A10000E948A0C69837A838B839C8369817A81A3
:100A20008B819C810E94690D6093B3000F900F90A1
:100A30000F900F90DF91CF9108951092B300089519
:100A4000CF93DF93EC01FC011192CF010E94A30030
:100A5000CE0103960E946A001C821D828FE18E8364
:100A600018861986CE010A960E94CC04CE010B96F8
:100A70000E94B50BCE010C960E94ED0B1D861E86C2
:100A80001F86198A84E9E1E0F1E0DE0152960190C7
:100A90000D928A95E1F7888187B98FEF84B9DF914C
:100AA000CF910895CF93DF93EC010C960E94F30B46
:100AB000CE010B960E94CA0BCE010A960E94DD045D
:100AC000CE0103960E946B00CE010196DF91CF917B
:100AD0000C94B100FC0196B19F7197830895FC01BD
:100AE00080850895FC0160870895FC018481089544
:100AF000FC0164830895FC01858108950D96089595
:100B0000FC0181850895FC0161870895CF92DF92F1
:100B1000FF920F931F93CF93DF938C01F62EEA0180
:100B20006C012FEFC21AD20A6623C9F0C6010E94D7
:100B3000B5008FE799EAE3E081509040E040E1F7AB
:100B400000C00000F2E0CD35DF0749F42FE785EB68
:100B500091E0215080409040E1F700C00000E2E0C9
:100B6000CF33DE0721F0F2E0C733DF0741F5C601DE
:100B70000E94DC00C8010E946A05F801878181306B
:100B800071F744E850E06DE770E0C6010E94BD00D7
:100B9000FF2069F0F2E0C733DF07E9F42FEF8BEDB8
:100BA00095E0215080409040E1F700C00000DF91C7
:100BB000CF911F910F91FF90DF90CF90089522E089
:100BC000C734D207B9F650E040E063E770E0C601F1
:100BD0000E94F600CFCFE2E0CF33DE0741F4FFEF13
:100BE00021EE84E0F15020408040E1F7DECFCD558A
:100BF000D240E9F6EFEFF9EC28E0E150F040204078
:100C0000E1F7D3CFCF92DF92FF920F931F93CF9351
:100C1000DF938C01F62EEA016C012FEFC21AD20A83
:100C20006623C9F0C6010E94B5008FE799EAE3E0A8
:100C300081509040E040E1F700C00000F2E0C7348E
:100C4000DF0749F42FEF80E792E021508040904089
:100C5000E1F700C00000E2E0CF33DE0721F0F2E070
:100C6000C733DF0741F5C6010E94D400C8010E94C6
:100C70006A05F801878184FFEECF44E850E06DE714
:100C800070E0C6010E94BD00FF2069F0F2E0C733AA
:100C9000DF07E9F42FEF8BED95E021508040904085
:100CA000E1F700C00000DF91CF911F910F91FF90FD
:100CB000DF90CF90089522E0C734D207B9F644E719
:100CC00050E070E060E0C6010E94F400CFCFE2E0A7
:100CD000C734DE0741F4FFEF29EC88E0F1502040F3
:100CE0008040E1F7DECFCF53D240E9F6EFEFF1EEEF
:100CF00024E0E150F0402040E1F7D3CFDF92EF92C3
:100D0000FF920F931F93CF93DF93EC018B017A0136
:100D10002FE789EA93E0215080409040E1F700C03E
:100D20000000CE010E946A05DD24D394D9868F810C
:100D30008F31D9F422E00733120769F4CE0101960E
:100D40000E94D100DD82DF91CF911F910F91FF9022
:100D5000EF90DF90089582E00F33180731F4CE0151
:100D600001960E94B500DC82EECF99E2E91692E08E
:100D7000F90629F02CE6E21622E0F20621F7A80196
:100D800061E0CE01DF91CF911F910F91FF90EF9025
:100D9000DF900C948605DF92EF92FF920F931F93E2
:100DA000CF93DF93EC018B017A012FE789EA93E07F
:100DB000215080409040E1F700C00000CE010E9429
:100DC0006A05DD24D394D9868F818F31D9F422E04E
:100DD0000733120769F4CE0101960E94D100DD822B
:100DE000DF91CF911F910F91FF90EF90DF900895C9
:100DF00082E00F33180731F4CE0101960E94B5004E
:100E0000DC82EECF99E2E91692E0F90629F026E5B8
:100E1000E21622E0F20621F7A80161E0CE01DF919F
:100E2000CF911F910F91FF90EF90DF900C940206ED
:100E3000CF93DF93EC010E946A058F81803199F096
:100E400068F48D7F813061F441E750E060E270E04A
:100E5000CE010196DF91CF910C94F400883119F006
:100E6000DF91CF91089540E250E065E770E0CE0158
:100E70000196DF91CF910C94F600CF93DF93EC01B4
:100E80002FE788E391E0215080409040E1F700C0D7
:100E90000000CE010E946A058F818E3011F481E03E
:100EA0008887CE010196DF91CF910C94B500AF9267
:100EB000BF92CF92DF92EF92FF920F931F93CF9347
:100EC000DF93EC0102E310E0D12CC12C5C012CE09B
:100ED000A20EB11C60E0C5010E94F60B96958795A5
:100EE00096958795888BC80ED11C0150110991F7F2
:100EF000C60162E370E00E945C0C8E010F5F1F4F21
:100F00007E018AE0E80EF11C94EAC91696E0D90643
:100F10000CF050C026E4C21625E0D2060CF450C0F6
:100F20008FE399E121E0815090402040E1F700C03B
:100F3000000060E0C5010E94F60B96958795969596
:100F40008795888B6E0123E0C20ED11C823208F493
:100F500047C0C8010E94D10065E270E0C6010E944E
:100F600074004A8D5B8D6C8D7D8DC7010E94DE04FF
:100F70008FEF9AED2AE1815090402040E1F700C0C8
:100F80000000C7010E941D0546E950E06CE870E0D2
:100F9000C8010E94BD008FEF99E628E18150904082
:100FA0002040E1F700C000008989FE01E80FF11D33
:100FB00091E046C0625271096735710508F44EC070
:100FC000C7010E941D05C801DF91CF911F910F91AC
:100FD000FF90EF90DF90CF90BF90AF900C94B50052
:100FE000C8010E94D1004EA15FA168A579A5C701E3
:100FF0000E94DE048FEF99E628E181509040204066
:10100000E1F700C00000C7010E941D054DE750E058
:1010100063E770E0C8010E94BD008FEF98EF25E103
:10102000815090402040E1F700C0000065E270E090
:10103000C6010E946C008989FE01E80FF11D92E053
:1010400095878F5F898BDF91CF911F910F91FF90D3
:10105000EF90DF90CF90BF90AF900895C8010E94AD
:10106000D10065E270E0CE0103960E9474004EA1AB
:101070005FA168A579A5C7010E94DE048FEF99E6FC
:1010800028E1815090402040E1F700C00000C701F6
:101090000E941D054DE750E063E770E0C8010E9423
:1010A000BD008FEF98EF25E1815090402040E1F79F
:1010B00079CFEF92FF920F931F93CF93DF93EC01C1
:1010C0008B017A010E946A05EF81E931A0F4E111F8
:1010D0000AC0CE010196DF91CF911F910F91FF9031
:1010E000EF900C94D100E150E83198F7F0E0ED5921
:1010F000F14F0C94700CE951E73058F791E0892FCB
:101100000E2E01C0880F0A94EAF7282F257109F0E6
:1011100070C0887209F07BC0E630D9F699870F530A
:101120001240B9F6A7016FE372E0CE010E947E067D
:10113000D0CF47E352E060E0CE01DF91CF911F9125
:101140000F91FF90EF900C948605CE010196DF91F0
:10115000CF911F910F91FF90EF900C94EC0081E0E4
:1011600089874EE150E060E570E0CE010196DF91A5
:10117000CF911F910F91FF90EF900C94F600CE014C
:101180000196DF91CF911F910F91FF90EF900C94FA
:10119000E40047E352E060E0CE01DF91CF911F9180
:1011A0000F91FF90EF900C94020640E550E06EE145
:1011B00070E0CE0101960E94F40081E08987DF9102
:1011C000CF911F910F91FF90EF900895CE0101965E
:1011D000DF91CF911F910F91FF90EF900C94B5008C
:1011E000CE01DF91CF911F910F91FF90EF900C9462
:1011F0003D0781E08887E3CFA701B801CE01DF91E9
:10120000CF911F910F91FF90EF900C947E06A70154
:10121000B801CE01DF91CF911F910F91FF90EF9018
:101220000C94CB06CF93DF93EC0118828FEF898368
:10123000CE0102960E94A300CE0104960E94CC0427
:10124000CE0105960E946A00CE0106960E94ED0B23
:1012500018861F821A8619861C861B861E8684E9BC
:10126000E5E9F1E0DE011F9601900D928A95E1F724
:10127000888181B9898184B9DF91CF910895CF9315
:10128000DF93EC0106960E94F30BCE0105960E94B7
:101290006B00CE0104960E94DD04CE010296DF9120
:1012A000CF910C94B100079608958F929F92AF92C0
:1012B000BF92CF92DF92EF92FF920F931F93CF9343
:1012C000DF93EC0154E1C52ED12CF12CE12C8C01E3
:1012D0000A5F1F4F60E0C8010E94F60B9695879544
:1012E000969587958D87E80EF11C81E0C81AD10884
:1012F00089F7C70164E170E00E945C0C4B0160E07B
:10130000C8010E94F60B96958795969587958D87CF
:101310006E0182E0C80ED11C5E0185E0A80EB11CF2
:101320008E010C5F1F4F84E3E81683E0F8068CF50E
:1013300088E5E81682E0F8069CF1C6010E94D1001B
:101340004F85588969897A89C8010E94DE04C801DD
:101350000E941D0565E270E0C5010E946C008E854B
:10136000E82FF0E0EE0FFF1FEC0FFD1F22E030E052
:10137000308727838F5F8E87DF91CF911F910F91E9
:10138000FF90EF90DF90CF90BF90AF909F908F90A5
:1013900008958FE5881A91088AE188169104B8F0BB
:1013A00065E270E0C5010E949B00C8010E941D0516
:1013B000C601DF91CF911F910F91FF90EF90DF90C9
:1013C000CF90BF90AF909F908F900C94B500C601C6
:1013D0000E94D10065E270E0C5010E9474004F894F
:1013E000588D698D7A8DC8010E94DE04C8010E9463
:1013F0001D05C6010E94B5008E85E82FF0E0EE0FB6
:10140000FF1FEC0FFD1F21E030E0B2CF089580EA0E
:10141000809300011092B90080E28093B800089593
:10142000FC0180E88083CF010C94070A982F937009
:10143000891305C0880F806A8093000108958FEF9B
:101440000895FA0194EA24E89093BC008091BC00CE
:1014500087FFFCCF809100018093BB002093BC00EC
:101460008091BC0087FFFCCF8091B900883161F783
:1014700084EA8093BC008091BC0087FFFCCF809100
:1014800000018093BB0084E88093BC008091BC0085
:1014900087FFFCCF7093BB0084E88093BC008091F1
:1014A000BC0087FFFCCF6093BB0084E88093BC0046
:1014B0008091BC0087FFFCCF8091BC0087FFFCCFF0
:1014C00084EA8093BC008091BC0087FFFCCF8091B0
:1014D00000018F5F8093BB0084E88093BC00809103
:1014E000BC0087FFFCCF84E88093BC008091BC00E7
:1014F00087FFFCCF8091BB00808384E98093BC0090
:1015000080E0089594EA34E89093BC008091BC0098
:1015100087FFFCCF809100018093BB003093BC001B
:101520008091BC0087FFFCCF8091B900883161F7C2
:1015300084EA8093BC008091BC0087FFFCCF80913F
:1015400000018093BB0084E88093BC008091BC00C4
:1015500087FFFCCF7093BB0084E88093BC00809130
:10156000BC0087FFFCCF6093BB0084E88093BC0085
:101570008091BC0087FFFCCF84EA8093BC008091FF
:10158000BC0087FFFCCF809100018F5F8093BB0080
:1015900084E88093BC008091BC0087FFFCCF84EC82
:1015A000211105C084E98093BC0080E008952130BA
:1015B00009F484E88093BC009091BC0097FFFCCFB5
:1015C000FA019091BB0091932150AF01E9CF94EAC9
:1015D00024E89093BC008091BC0087FFFCCF8091F1
:1015E00000018093BB002093BC008091BC0087FF6A
:1015F000FCCF8091B900883161F784EA8093BC0008
:101600008091BC0087FFFCCF809100018093BB00DC
:1016100084E88093BC008091BC0087FFFCCF70936E
:10162000BB0084E88093BC008091BC0087FFFCCFA6
:101630006093BB0084E88093BC008091BC0087FF6E
:10164000FCCF4093BB0084E88093BC008091BC0039
:1016500087FFFCCF84E98093BC0080E00895FB0104
:10166000260F372F311DDC018C918150990B862B71
:101670009F2B2817390718F09C012F5F3F4F822FAF
:101680008E1B24EA34E82093BC009091BC0097FFA5
:10169000FCCF909100019093BB003093BC009091DF
:1016A000BC0097FFFCCF9091B900983161F794EAA4
:1016B0009093BC009091BC0097FFFCCF90910001EB
:1016C0009093BB0094E89093BC009091BC0097FF6E
:1016D000FCCFF093BB0094E89093BC009091BC00C9
:1016E00097FFFCCFE093BB0094E89093BC009091EF
:1016F000BC0097FFFCCF982F24E8911104C094E917
:101700009093BC000895FA0131913093BB0020936F
:10171000BC003091BC0037FFFCCF9150AF01EDCF42
:10172000DF92EF92FF920F931F93CF93DF93D82E08
:10173000D92F7B018A01C22F2C2FA801B7018D2D33
:101740009D2F0E942F0B282F30E0E20EF31EC81BA6
:10175000020F131FC111F0CF80E0DF91CF911F91D5
:101760000F91FF90EF90DF9008951092C5008FECDD
:101770008093C400E0ECF0E08081806C8083E1EC39
:10178000F0E0808188618083E2ECF0E08081866017
:101790008083089508958091C00085FFFCCF6093F9
:1017A000C60008958091C00087FFFCCF8091C600DD
:1017B00008950F931F93CF93DF93182F092FEB01F9
:1017C0006991611105C0DF91CF911F910F9108952B
:1017D000812F902F0E94CB0BF3CF10927C0086E8D4
:1017E00080937A00089510927A00089580917C0089
:1017F000807E80937C0080917C006770682B609372
:101800007C0080917A00806480937A0080917A00D5
:1018100084FFFCCF80917A00806180937A002091D0
:1018200078008091790090E0982F8827820F911D91
:101830000895CDB7DEB7C055D1400FB6F894DEBFDE
:101840000FBECDBFCE01805B9E4F0E946A00CE01CD
:10185000825B9E4F0E94A300CE0101960E94F80079
:10186000CE0101960E94C901CE0101960E94E403B7
:10187000CE0101960E947A04CE0101960E941001C9
:10188000CE01825B9E4F0E94B100CE01805B9E4FD5
:101890000E946B0090E080E0C05BDE4F0FB6F894D2
:1018A000DEBF0FBECDBF089586E792E00C94CC0456
:1018B00086E792E00C94DD0497FB072E16F4009463
:1018C00007D077FD09D00E94760C07FC05D03EF4C6
:1018D000909581959F4F0895709561957F4F0895DC
:1018E000EE0FFF1F0590F491E02D0994AA1BBB1B7E
:1018F00051E107C0AA1FBB1FA617B70710F0A61B10
:10190000B70B881F991F5A95A9F780959095BC0130
:10191000CD0108955058BB27AA270E94A20C0C9411
:10192000AF0D0E94A10D38F00E94A80D20F039F4EF
:101930009F3F19F426F40C949E0D0EF4E095E7FBFE
:101940000C94980DE92F0E94C00D58F3BA17620746
:1019500073078407950720F079F4A6F50C94E20D3F
:101960000EF4E0950B2EBA2FA02D0B01B9019001BA
:101970000C01CA01A0011124FF27591B99F0593FFE
:1019800050F4503E68F11A16F040A22F232F342F46
:101990004427585FF3CF469537952795A795F04094
:1019A0005395C9F77EF41F16BA0B620B730B840BA9
:1019B000BAF09150A1F0FF0FBB1F661F771F881F61
:1019C000C2F70EC0BA0F621F731F841F48F48795B9
:1019D00077956795B795F7959E3F08F0B0CF9395AB
:1019E000880F08F09927EE0F9795879508950E9424
:1019F0000B0D0C94AF0D0E94A80D58F00E94A10D84
:101A000040F029F45F3F29F00C94980D51110C948B
:101A1000E30D0C949E0D0E94C00D68F39923B1F361
:101A2000552391F3951B550BBB27AA276217730704
:101A3000840738F09F5F5F4F220F331F441FAA1F98
:101A4000A9F335D00E2E3AF0E0E832D09150504054
:101A5000E695001CCAF72BD0FE2F29D0660F771F02
:101A6000881FBB1F261737074807AB07B0E809F0E8
:101A7000BB0B802DBF01FF2793585F4F3AF09E3F6D
:101A8000510578F00C94980D0C94E30D5F3FE4F34E
:101A9000983ED4F3869577956795B795F7959F5FB0
:101AA000C9F7880F911D9695879597F90895E1E0FC
:101AB000660F771F881FBB1F621773078407BA075B
:101AC00020F0621B730B840BBA0BEE1F88F7E095B6
:101AD00008950E94C80D88F09F5798F0B92F992754
:101AE000B751B0F0E1F0660F771F881F991F1AF009
:101AF000BA95C9F714C0B13091F00E94E20DB1E07F
:101B000008950C94E20D672F782F8827B85F39F07D
:101B1000B93FCCF3869577956795B395D9F73EF4A1
:101B200090958095709561957F4F8F4F9F4F089549
:101B300097F99F6780E870E060E008959FEF80EC80
:101B4000089500240A941616170618060906089523
:101B500000240A9412161306140605060895092E89
:101B60000394000C11F4882352F0BB0F40F4BF2BF8
:101B700011F460FF04C06F5F7F4F8F4F9F4F089538
:101B800057FD9058440F551F59F05F3F71F047952E
:101B9000880F97FB991F61F09F3F79F08795089513
:101BA000121613061406551FF2CF4695F1DF08C032
:101BB000161617061806991FF1CF8695710561054F
:101BC00008940895E894BB2766277727CB0197F9F7
:101BD00008950E94FC0D0C94AF0D0E94A10D38F0E9
:101BE0000E94A80D20F0952311F00C94980D0C94F0
:101BF0009E0D11240C94E30D0E94C00D70F3959F6F
:101C0000C1F3950F50E0551F629FF001729FBB27F3
:101C1000F00DB11D639FAA27F00DB11DAA1F649F8F
:101C20006627B00DA11D661F829F2227B00DA11D42
:101C3000621F739FB00DA11D621F839FA00D611DC8
:101C4000221F749F3327A00D611D231F849F600DE9
:101C5000211D822F762F6A2F11249F5750409AF012
:101C6000F1F088234AF0EE0FFF1FBB1F661F771F9E
:101C7000881F91505040A9F79E3F510580F00C9469
:101C8000980D0C94E30D5F3FE4F3983ED4F38695F2
:101C900077956795B795F795E7959F5FC1F7FE2B09
:101CA000880F911D9695879597F9089510E0CFE3D9
:101CB000D0E004C0FE010E94700C2196C034D10710
:101CC000C9F7F894FFCF9908A508AF08E608690896
:101CD000A508FC08BF08690869086908BF08690801
:101CE000F008FC08C908F9086908F90869086908D2
:061CF0006908F908D5089F
:101CF600A00000DC427B14E942A4F0F6425CCF026D
:101D0600430A970A437BD412435C8F1B435CCF2460
:101D160043299C2E43000039430000444366A64FE6
:101D26004300005C437B146943A4F07643A4D0824D
:101D3600430A978A437BD49243A4909B43A4D0A49E
:101D460043719DAE43B8FEB8430000C44366A6CFB8
:101D5600430000DC437B14E943A4F0F64300D002C1
:101D660044AE970A441FD5124400901B44A4D024C5
:101D760044719D2E445CFF38445CFF43440AA74FE0
:101D86004400005C440000DC427B14E942A4F0F607
:101D9600425CCF02430A970A437BD412435C8F1BF3
:101DA600435CCF2443299C2E430000394300004462
:101DB6004366A64F4300005C437B146943A4F07658
:101DC60043A4D082430A978A437BD49243A4909B30
:101DD60043A4D0A443719DAE43B8FEB8430000C4EB
:101DE6004366A6CF430000DC437B14E943A4F0F628
:101DF6004300D00244AE970A441FD5124400901BFC
:101E060044A4D02444719D2E445CFF38445CFF43B7
:101E1600440AA74F4400005C4464657578446972BF
:101E2600656374696F6E0050617274696541005034
:101E360061727469654200506172746965425F64DB
:101E4600726F6974650044726F69746500506172DF
:101E5600746965425F6761756368650047617563AC
:041E660068650000AB
:00000001FF
