:100000000C9440000C9499000C94AB000C94680084
:100010000C9468000C9468000C9468000C946800C0
:100020000C9468000C9468000C9468000C946800B0
:100030000C9468000C9422020C9468000C946800E4
:100040000C9468000C9468000C9468000C94680090
:100050000C9468000C9468000C9468000C94680080
:100060000C9468000C9468000C9468000C94680070
:100070000C9468000C9468000C946800A30DA70D04
:1000800011241FBECFEFD8E0DEBFCDBF12E0A0E04D
:10009000B1E0E4E9FFE102C005900D92A437B10799
:1000A000D9F722E0A4E7B2E001C01D92A937B20758
:1000B000E1F710E0CFE3D0E004C02197FE010E94F9
:1000C000BF0DCE33D107C9F70E948A0D0C94A50F3E
:1000D0000C940000CF93DF93EC01FC01119211927C
:1000E000CF010E94D801CE01815B9E4FDF91CF915D
:1000F0000C944301CF93DF93EC01815B9E4F0E94F0
:100100004401CE010296DF91CF910C94F001F89456
:10011000E99AE9E6F0E080818C6080837894089524
:10012000F894E89AE9E6F0E080818360808378942F
:1001300008958F938FB78F939F938FE59AEE0197D2
:10014000F1F700C0000081E0809375029F918F91CC
:100150008FBF8F9118952F932FB72F938F939F93C6
:100160002FEF89EF90E0215080409040E1F700C0F0
:100170000000809174028F5F809374029F918F9131
:100180002F912FBF2F9118950F931F93CF93DF932C
:10019000EC01888199818130910561F1823091056E
:1001A00009F448C0892B09F58E01015B1E4F65E2F9
:1001B00070E0C8010E94590180917502882369F09E
:1001C00040ED57E065E270E0C8010E946901CE0190
:1001D00002960E948602109275028091740281300C
:1001E00021F481E090E099838883DF91CF911F9182
:1001F0000F9108958E01015B1E4F65E270E0C8010A
:100200000E94510180917502882369F040ED57E00A
:1002100065E270E0C8010E946901CE0102960E9469
:10022000BA0210927502809174028230F1F682E077
:1002300090E0D9CF8E01015B1E4F4AE050E065E2AD
:1002400070E0C8010E94A40180917502882389F0A2
:1002500040ED57E065E270E0C8010E946901CE01FF
:1002600002960E943805109275021092740219824B
:10027000188280917402833009F0B7CF19821882F6
:1002800010927402B2CF0895089529B18FE19EE4CF
:100290000197F1F700C0000099B181E0291380E0D7
:1002A0000895FB0180818E7F8083808182608083BE
:1002B0000895FB0180818D7F8083808181608083B0
:1002C0000895FB0180818D7F808380818E7F808374
:1002D0000895CF92DF92FF920F931F93CF93DF93F6
:1002E000D82FC92F8B01CA0160E971E00E94AB0DC4
:1002F0006B01F12CB8018D2F9C2FFC141D044CF0C8
:10030000DF91CF911F910F91FF90DF90CF900C94D0
:1003100061010E9451012FEF81EE94E02150804055
:100320009040E1F700C00000B8018D2F9C2F0E9483
:1003300059012FEF81EE94E0215080409040E1F789
:1003400000C00000F394D6CFDF92EF92FF920F939C
:100350001F93CF93DF938C017B01EA0157FD279612
:1003600083E0D595C7958A95E1F7D12CB701C801EF
:10037000DC161D064CF0DF91CF911F910F91FF907D
:10038000EF90DF900C9461010E9451018FE39FE197
:100390000197F1F700C00000B701C8010E945901A0
:1003A0008FE79EE30197F1F700C00000D394DECF02
:1003B000CF93DF93EC010E942E0ACE018D559F4F03
:1003C0000E943706CE01875B9E4F0E94D10CC55B11
:1003D000DE4F82E49FE099838883DF91CF91089577
:1003E000CF93DF93EC01875B9E4F0E94DF0CCE0121
:1003F0008D559F4F0E946906CE01DF91CF910C94DD
:100400005B0A9C01789410927702109285001092FA
:100410008400255B3E4FF901808191819093890092
:1004200080938800E0E8F0E0808188608083E1E8E4
:10043000F0E0808185608083EFE6F0E0808182607B
:10044000808308951F921FB61F9211248F931092DC
:10045000850010928400809177028F5F80937702ED
:10046000843118F081E0809376028F911F901FBE37
:100470001F9018950F931F93CF93DF930F92CDB7D3
:10048000DEB78B01CE0101960E942C0B23E0A80160
:1004900070E060E0CE0101960E94AC0CCE010196A6
:1004A0000E94220B0F90DF91CF911F910F91089521
:1004B0008D559F4F0E949506FC018281811103C0DA
:1004C000818182831182CF010895CF93DF9300D081
:1004D00000D0CDB7DEB7CE0104960E942C0B23E0EE
:1004E000AE014F5F5F4F70E060E0CE0104960E9466
:1004F0009E0BCE0104960E94220B90E080E00F90AC
:100500000F900F900F90DF91CF9108950F931F934D
:10051000CF93DF93EC0146E750E068E770E0875B3C
:100520009E4F0E94EB0C2FEF89E698E1215080400E
:100530009040E1F700C000008E010D551F4FC8012B
:100540000E949206882359F0CE010E945802BC01F5
:10055000CE01DF91CF911F910F910C943A02C80107
:100560000E94600849E252E067E372E0C8010E941D
:100570006209E5CF2F923F924F925F926F927F92E6
:100580008F929F92AF92BF92CF92DF92EF92FF92A3
:100590000F931F93CF93DF9300D000D0CDB7DEB77A
:1005A0005C013E0124E0620E711CC3010E94430104
:1005B0004E0183E0880E911CC4010E94E305CE0128
:1005C00001967C010E94D10C10E000E0C12CD72CD8
:1005D000582C492C3E2C7F2C750193EAE90EF11C16
:1005E000450127EB821A2EEF920AC7010E948C0662
:1005F000882349F165E270E0862D9D2D0E94590106
:10060000832D972D0E94DF0C852D942D0E94F405DB
:10061000862D9D2D0E9444010F900F900F900F90FA
:10062000DF91CF911F910F91FF90EF90DF90CF90CE
:10063000BF90AF909F908F907F906F905F904F9002
:100640003F902F9008950330110509F42DC18CF4CB
:100650000130110551F10230110509F451C00115A5
:100660001105B1F065E270E0862D9D2D0E946101BB
:10067000BCCF0430110509F44EC10530110591F7C6
:1006800049E252E06FE372E0C7010E946209ADCF18
:1006900049E252E06FE372E0C7010E946209C701BC
:1006A0000E948606082F10E0A0CF65E270E0862D3C
:1006B0009D2D0E945101832D972D0E94E30C8FE701
:1006C0009AE126E0815090402040E1F700C0000010
:1006D00065E270E0862D9D2D0E94610147E452E0A5
:1006E00061E0C7010E949D06C5010E94010260E011
:1006F000C7010E949A0602E010E0CC24C39475CF93
:10070000CC2039F046E552E06FE372E0C7010E9469
:100710006209C7010E94970690917702882309F425
:1007200058C0933108F455C0F89465E270E0862D06
:100730009D2D0E9459014AE750E06BE770E0832D40
:10074000972D0E94EB0C8FEF99E628E181509040A5
:100750002040E1F700C0000065E270E0862D9D2D8D
:100760000E946101832D972D0E94FF0C8FEF92E56F
:1007700027E0815090402040E1F700C0000060E099
:10078000C7010E949A06CC2081F050E040E064E767
:1007900070E0C4010E94240D8FEF94E32CE081509F
:1007A00090402040E1F700C00000C5010E94010216
:1007B0004EE750E068E770E0C4010E94EB0C8FEF59
:1007C00091EE24E0815090402040E1F700C000000D
:1007D0000CCF953009F009CF80917602882309F477
:1007E00004CFF894832D972D0E94FF0C65E270E0F2
:1007F000862D9D2D0E9459018FE79AE126E08150B8
:1008000090402040E1F700C0000065E270E0862DD6
:100810009D2D0E9461018FEF99E628E18150904063
:100820002040E1F700C0000050E040E06DE770E0DC
:10083000C4010E94240D8FEF9BEA2DE0815090406F
:100840002040E1F700C00000C4010E94FF0C8FEFC0
:1008500099E628E1815090402040E1F700C0000077
:100860004DE750E070E060E0C4010E94220D8FEF80
:1008700091EB2CE0815090402040E1F700C0000057
:1008800060E0C7010E948906832D972D0E94FF0C0E
:100890008FE79AE126E0815090402040E1F700C0C8
:1008A0000000C12C03E0FFCE49E252E06FE372E0AA
:1008B000C7010E946209C7010E948606282E88236C
:1008C00009F493CE65E270E0862D9D2D0E945101C2
:1008D000832D972D0E94E30C8FE79AE126E081504B
:1008E00090402040E1F700C0000065E270E0862DF6
:1008F0009D2D0E94610147E452E061E0C7010E9422
:100900009D06C5010E94010260E0C7010E948F069A
:10091000C22C04E0C8CECC2039F046E552E067E4B2
:1009200072E0C7010E94620960E0C7010E948F0661
:10093000C7010E949706882309F457CE8091770259
:10094000833108F452CE65E270E0862D9D2D0E9421
:1009500059014AE750E06BE770E0832D972D0E9424
:10096000EB0C8FEF99E628E1815090402040E1F7B1
:1009700000C0000065E270E0862D9D2D0E9461019F
:10098000832D972D0E94FF0C8FEF92E527E0815079
:1009900090402040E1F700C0000060E0C7010E94E5
:1009A0009A06CC2081F050E040E062E770E0C4019C
:1009B0000E94240D8FE79BE828E081509040204062
:1009C000E1F700C00000F89405E06DCECF93DF930F
:1009D000EC01C75BDE4F46E950E066E970E0CE010E
:1009E0000E94F10C2FE785EF90E22150804090406B
:1009F000E1F700C00000CE010E94FF0C2FEF83ED55
:100A000090E3215080409040E1F700C0000046E9AB
:100A100050E070E060E0CE010E94220D2FEF8CEBE1
:100A20009FE1215080409040E1F700C00000CE01DE
:100A30000E94FF0C2FEF83ED90E321508040904007
:100A4000E1F700C0000046E950E066E970E0CE0141
:100A50000E94EB0C2FEF85EA9EE0215080409040F1
:100A6000E1F700C00000CE01DF91CF910C94FF0CA4
:100A70008F929F92BF92CF92DF92EF92FF920F934D
:100A80001F93CF93DF9300D00F92CDB7DEB78C01C9
:100A90007E0123E0E20EF11CC7010E944301CE015A
:100AA00001966C010E94D10C4EE650E06EE670E0BB
:100AB000C6010E94EB0C9FEF29E688E1915020408F
:100AC0008040E1F700C00000C8010E940102480117
:100AD00093EA890E911C80917702883008F45EC0F9
:100AE000B6B04FE550E070E060E0C6010E94220D14
:100AF000B4FEF6CFC6010E94FF0C2FEF89E698E105
:100B0000215080409040E1F700C00000C8010E94E1
:100B10000102809177028E3108F448C065E270E0EE
:100B2000C7010E945101F89486B18F7109F442C047
:100B300065E270E0C7010E945901B6B049E252E097
:100B400067E372E0C4010E9462098B2D8F71A9F7DF
:100B50002FEF89E698E1215080409040E1F700C0F6
:100B6000000065E270E0C7010E946101C8010E94B7
:100B7000E604C6010E94DF0CC7010E9444010F90E9
:100B80000F900F90DF91CF911F910F91FF90EF90F9
:100B9000DF90CF90BF909F908F90089549E252E0F0
:100BA00067E372E0C4010E94620995CFC4010E940C
:100BB0001708AFCFB6B0C6010E94E30C8B2D8F7122
:100BC0008031C1F7B5CF8AB1806C8AB95E98E0EB0D
:100BD000F0E0808182648083E1EBF0E080818460DA
:100BE00080831092B20008950895CF93DF9300D0D0
:100BF00000D0CDB7DEB7942F852F20E030E040E065
:100C000054E499838A836B837C8369817A818B81A5
:100C10009C810E94380F9B01AC0160E074E284EF7C
:100C20009AE40E94460E20E030E040E85FE36983EA
:100C30007A838B839C8369817A818B819C810E94DA
:100C4000D90D69837A838B839C8369817A818B81B7
:100C50009C810E94B80E6093B3000F900F900F908C
:100C60000F90DF91CF9108951092B3000895CF9324
:100C7000DF93EC01FC011192CF010E94D10CCE0157
:100C800003960E9443011C821D828FE18E83188689
:100C90001986CE010A960E94E305CE010B960E94AA
:100CA000260DCE010C960E945E0D1D861E861F86A7
:100CB000198A84E9E1E0F1E0DE01529601900D929B
:100CC0008A95E1F7888187B98FEF84B9DF91CF9159
:100CD0000895CF93DF93EC010C960E94640DCE0132
:100CE0000B960E943B0DCE010A960E94F405CE01A0
:100CF00003960E944401CE010196DF91CF910C949E
:100D0000DF0CFC0196B19F7197830895FC018085EB
:100D10000895FC0160870895FC0184810895FC0119
:100D200064830895FC01858108950D960895FC0162
:100D300081850895FC0161870895CF92DF92FF922B
:100D40000F931F93CF93DF938C01F62EEA016C0172
:100D50002FEFC21AD20A6623C9F0C6010E94E30C23
:100D60008FE799EAE3E081509040E040E1F700C06E
:100D70000000F2E0C734DF0749F42FEF82E597E087
:100D8000215080409040E1F700C00000E2E0CF3306
:100D9000DE0721F0F2E0C733DF0741F5C6010E940C
:100DA0000A0DC8010E948106F8018781823071F71F
:100DB00041E750E063E770E0C6010E94EB0CFF20C2
:100DC00069F0F2E0CF33DF07E9F42FEF81EE94E032
:100DD000215080409040E1F700C00000DF91CF91AA
:100DE0001F910F91FF90DF90CF90089522E0C734BC
:100DF000D207B9F650E040E062E670E0C6010E941A
:100E0000240DCFCFC754D24049F7FFEF29EC88E03B
:100E1000F15020408040E1F7DFCFCF92DF92FF9288
:100E20000F931F93CF93DF938C01F62EEA016C0191
:100E30002FEFC21AD20A6623C9F0C6010E94E30C42
:100E40008FE799EAE3E081509040E040E1F700C08D
:100E50000000F2E0CD35DF0749F42FEF86E791E09F
:100E6000215080409040E1F700C00000E2E0CF3325
:100E7000DE0721F0F2E0C733DF0741F5C6010E942B
:100E8000020DC8010E948106F801878183FFEECF21
:100E900041E750E063E770E0C6010E94EB0CFF20E1
:100EA00069F0F2E0CD35DF07E9F42FEF89EC98E047
:100EB000215080409040E1F700C00000DF91CF91C9
:100EC0001F910F91FF90DF90CF90089522E0CD35D4
:100ED000D207B9F646E650E070E060E0C6010E9435
:100EE000220DCFCFCF53D24049F7FFEF21EE84E060
:100EF000F15020408040E1F7DFCFDF92EF92FF9288
:100F00000F931F93CF93DF93EC018B017A012FEFA7
:100F100081EE94E0215080409040E1F700C0000055
:100F2000CE010E948106DD24D394D9868F818F3132
:100F3000D9F422E00733120769F4CE0101960E942A
:100F4000FF0CDD82DF91CF911F910F91FF90EF9009
:100F5000DF90089582E00F33180731F4CE01019637
:100F60000E94E30CDC82EECF99E2E91692E0F906EA
:100F700029F026E5E21622E0F20621F7A80161E059
:100F8000CE01DF91CF911F910F91FF90EF90DF90F5
:100F90000C949D06DF92EF92FF920F931F93CF93D5
:100FA000DF93EC018B017A012FE78DE995E0215069
:100FB00080409040E1F700C00000CE010E94810611
:100FC000DD24D394D9868F818F31D9F422E0073381
:100FD000120769F4CE0101960E94FF0CDD82DF91B9
:100FE000CF911F910F91FF90EF90DF90089582E0D5
:100FF0000F33180731F4CE0101960E94E30CDC8216
:10100000EECF99E2E91692E0F90629F02CE6E21615
:1010100022E0F20621F7A80161E0CE01DF91CF9135
:101020001F910F91FF90EF90DF900C940D07CF93DD
:10103000DF93EC010E9481068F81803199F068F482
:101040008D7F813061F441E750E060E270E0CE01D5
:101050000196DF91CF910C94220D883119F0DF9128
:10106000CF91089540E250E065E770E0CE0101962F
:10107000DF91CF910C94240DCF93DF93EC012FE7F8
:1010800088E391E0215080409040E1F700C00000EB
:10109000CE010E9481068F818E3041F481E08887E5
:1010A000CE010196DF91CF910C94E30C982F977F9E
:1010B000973019F08D7F8C3199F781E08987F0CFD7
:1010C000AF92BF92CF92DF92EF92FF920F931F9356
:1010D000CF93DF93EC0102E310E0D12CC12C5C0133
:1010E0002CE0A20EB11C60E0C5010E94670D969530
:1010F000879596958795888BC80ED11C015011094C
:1011000091F7C60162E370E00E94AB0D8E010F5FA4
:101110001F4F7E018AE0E80EF11C94EAC91696E0A2
:10112000D9060CF050C026E4C21625E0D2060CF415
:1011300050C08FE399E121E0815090402040E1F7D9
:1011400000C0000060E0C5010E94670D969587957C
:1011500096958795888B6E0123E0C20ED11C823252
:1011600008F447C0C8010E94FF0C65E270E0C601A8
:101170000E9459014A8D5B8D6C8D7D8DC7010E9447
:10118000F5058FEF9AED2AE1815090402040E1F77C
:1011900000C00000C7010E94340646E950E06CE838
:1011A00070E0C8010E94EB0C8FEF99E628E18150B6
:1011B00090402040E1F700C000008989FE01E80F5F
:1011C000F11D91E046C0625271096735710508F45E
:1011D0004EC0C7010E943406C801DF91CF911F9114
:1011E0000F91FF90EF90DF90CF90BF90AF900C9455
:1011F000E30CC8010E94FF0C4EA15FA168A579A570
:10120000C7010E94F5058FEF99E628E181509040D3
:101210002040E1F700C00000C7010E9434064DE7FE
:1012200050E063E770E0C8010E94EB0C8FEF98EF8D
:1012300025E1815090402040E1F700C0000065E2C8
:1012400070E0C6010E9451018989FE01E80FF11D7D
:1012500092E095878F5F898BDF91CF911F910F91DE
:10126000FF90EF90DF90CF90BF90AF900895C801AE
:101270000E94FF0C65E270E0CE0103960E945901C6
:101280004EA15FA168A579A5C7010E94F5058FEF62
:1012900099E628E1815090402040E1F700C000002D
:1012A000C7010E9434064DE750E063E770E0C801D3
:1012B0000E94EB0C8FEF98EF25E181509040204089
:1012C000E1F779CFEF92FF920F931F93CF93DF93C4
:1012D000EC018B017A010E948106EF81E931A0F4D3
:1012E000E1110AC0CE010196DF91CF911F910F91BC
:1012F000FF90EF900C94FF0CE150E83198F7F0E08C
:10130000EE54F04F0C94BF0DE951E73058F791E0DF
:10131000892F0E2E01C0880F0A94EAF7282F257115
:1013200009F083C0887209F08EC0E630D9F699873B
:101330000F531240B9F6A7016FE372E0CE010E948D
:101340007D07D0CF47E352E060E0CE01DF91CF913F
:101350001F910F91FF90EF900C949D06CE01019686
:10136000DF91CF911F910F91FF90EF900C941A0D88
:1013700081E089874EE150E060E570E0CE010196A2
:10138000DF91CF911F910F91FF90EF900C94240D5E
:10139000CE010196DF91CF911F910F91FF90EF90B9
:1013A0000C94120D47E352E060E0CE01DF91CF9143
:1013B0001F910F91FF90EF900C940D0740E550E0C6
:1013C0006EE170E0CE0101960E94220D81E08987D6
:1013D000DF91CF911F910F91FF90EF900895CE0173
:1013E000019622E00734120719F00D55124061F4FE
:1013F0004AE550E06CE570E0DF91CF911F910F91CD
:10140000FF90EF900C94EB0CDF91CF911F910F9117
:10141000FF90EF900C94E30CCE01DF91CF911F91E0
:101420000F91FF90EF900C943C0881E08887D0CF1B
:10143000A701B801CE01DF91CF911F910F91FF90CD
:10144000EF900C947D07A701B801CE01DF91CF91F9
:101450001F910F91FF90EF900C94CA07CF93DF93E9
:10146000EC0118828FEF8983CE0102960E94D10C85
:10147000CE0104960E94E305CE0105960E94430129
:10148000CE0106960E945E0D18861F821A86198666
:101490001C861B861E8684E9E5E9F1E0DE011F96C5
:1014A00001900D928A95E1F7888181B9898184B98B
:1014B000DF91CF910895CF93DF93EC0106960E94C0
:1014C000640DCE0105960E944401CE0104960E944F
:1014D000F405CE010296DF91CF910C94DF0C0796B4
:1014E00008958F929F92AF92BF92CF92DF92EF9228
:1014F000FF920F931F93CF93DF93EC0154E1C52E1E
:10150000D12CF12CE12C8C010A5F1F4F60E0C80147
:101510000E94670D96958795969587958D87E80E1D
:10152000F11C81E0C81AD10889F7C70164E170E0B5
:101530000E94AB0D4B0160E0C8010E94670D9695BB
:101540008795969587958D876E0182E0C80ED11C90
:101550005E0185E0A80EB11C8E010C5F1F4F84E375
:10156000E81683E0F8068CF588E5E81682E0F806D0
:101570009CF1C6010E94FF0C4F85588969897A89C0
:10158000C8010E94F505C8010E94340665E270E0BA
:10159000C5010E9451018E85E82FF0E0EE0FFF1F7C
:1015A000EC0FFD1F22E030E0308727838F5F8E87AE
:1015B000DF91CF911F910F91FF90EF90DF90CF902F
:1015C000BF90AF909F908F9008958FE5881A9108F3
:1015D0008AE188169104B8F065E270E0C5010E94C6
:1015E0006101C8010E943406C601DF91CF911F91AD
:1015F0000F91FF90EF90DF90CF90BF90AF909F90B2
:101600008F900C94E30CC6010E94FF0C65E270E021
:10161000C5010E9459014F89588D698D7A8DC80185
:101620000E94F505C8010E943406C6010E94E30C21
:101630008E85E82FF0E0EE0FFF1FEC0FFD1F21E07D
:1016400030E0B2CF089580EA809300011092B90093
:1016500080E28093B8000895FC0180E88083CF0188
:101660000C94230B982F9370891305C0880F806A00
:101670008093000108958FEF0895FA0194EA24E819
:101680009093BC008091BC0087FFFCCF809100014B
:101690008093BB002093BC008091BC0087FFFCCFEF
:1016A0008091B900883161F784EA8093BC00809111
:1016B000BC0087FFFCCF809100018093BB0084E8D1
:1016C0008093BC008091BC0087FFFCCF7093BB006F
:1016D00084E88093BC008091BC0087FFFCCF6093BE
:1016E000BB0084E88093BC008091BC0087FFFCCFE6
:1016F0008091BC0087FFFCCF84EA8093BC0080917E
:10170000BC0087FFFCCF809100018F5F8093BB00FE
:1017100084E88093BC008091BC0087FFFCCF84E804
:101720008093BC008091BC0087FFFCCF8091BB0000
:10173000808384E98093BC0080E0089594EA34E8D3
:101740009093BC008091BC0087FFFCCF809100018A
:101750008093BB003093BC008091BC0087FFFCCF1E
:101760008091B900883161F784EA8093BC00809150
:10177000BC0087FFFCCF809100018093BB0084E810
:101780008093BC008091BC0087FFFCCF7093BB00AE
:1017900084E88093BC008091BC0087FFFCCF6093FD
:1017A000BB0084E88093BC008091BC0087FFFCCF25
:1017B00084EA8093BC008091BC0087FFFCCF8091BD
:1017C00000018F5F8093BB0084E88093BC00809110
:1017D000BC0087FFFCCF84EC211105C084E9809315
:1017E000BC0080E00895213009F484E88093BC00B7
:1017F0009091BC0097FFFCCFFA019091BB009193B0
:101800002150AF01E9CF94EA24E89093BC00809185
:10181000BC0087FFFCCF809100018093BB00209328
:10182000BC008091BC0087FFFCCF8091B90088315B
:1018300061F784EA8093BC008091BC0087FFFCCFF5
:10184000809100018093BB0084E88093BC0080916C
:10185000BC0087FFFCCF7093BB0084E88093BC0082
:101860008091BC0087FFFCCF6093BB0084E880932D
:10187000BC008091BC0087FFFCCF4093BB0084E894
:101880008093BC008091BC0087FFFCCF84E98093EB
:10189000BC0080E00895FB01260F372F311DDC01CD
:1018A0008C918150990B862B9F2B2817390718F0A4
:1018B0009C012F5F3F4F822F8E1B24EA34E8209338
:1018C000BC009091BC0097FFFCCF909100019093D9
:1018D000BB003093BC009091BC0097FFFCCF90916F
:1018E000B900983161F794EA9093BC009091BC00E4
:1018F00097FFFCCF909100019093BB0094E89093E8
:10190000BC009091BC0097FFFCCFF093BB0094E823
:101910009093BC009091BC0097FFFCCFE093BB007C
:1019200094E89093BC009091BC0097FFFCCF982F57
:1019300024E8911104C094E99093BC000895FA0141
:1019400031913093BB002093BC003091BC0037FF35
:10195000FCCF9150AF01EDCFDF92EF92FF920F934A
:101960001F93CF93DF93D82ED92F7B018A01C22FEB
:101970002C2FA801B7018D2D9D2F0E944B0C282FD5
:1019800030E0E20EF31EC81B020F131FC111F0CF8F
:1019900080E0DF91CF911F910F91FF90EF90DF904A
:1019A0000895FC0184E68083118284B18FEF84B9AD
:1019B00084B5816A84BD85B5826085BD089508952A
:1019C00067BD48BD089585B18B7D85B981E687BD2A
:1019D0008FE588BD089585B18B7D85B967BD48BD0C
:1019E000089567BD48BD85B1846285B908958BE5CA
:1019F00087BD86E688BD85B1846285B9089517BC28
:101A000018BC089585B18B7D85B986E287BD8FE5C9
:101A100088BD089585B18B7D85B981E687BD8FE14D
:101A200088BD089585B18B7D85B988E287BD85E540
:101A300088BD089585B18B7D85B98FE587BD88E226
:101A400088BD08950C94EB0C0C94EB0C1092C5001F
:101A50008FEC8093C400E0ECF0E08081806C8083A8
:101A6000E1ECF0E0808188618083E2ECF0E080814D
:101A700086608083089508958091C00085FFFCCF23
:101A80006093C60008958091C00087FFFCCF8091CD
:101A9000C60008950F931F93CF93DF93182F092F3C
:101AA000EB016991611105C0DF91CF911F910F91F9
:101AB0000895812F902F0E943C0DF3CF10927C004F
:101AC00086E880937A00089510927A0008958091B4
:101AD0007C00807E80937C0080917C006770682B06
:101AE00060937C0080917A00806480937A0080917A
:101AF0007A0084FFFCCF80917A00806180937A0025
:101B0000209178008091790090E0982F8827820FAB
:101B1000911D0895CDB7DEB7C055D1400FB6F894EA
:101B2000DEBF0FBECDBF8E010F5F1F4FC8010E94E9
:101B30006A00C8010E948700C8010E949000C80185
:101B40000E94C400FCCF88E792E00C94E30588E78C
:101B500092E00C94F40597FB072E16F4009407D03E
:101B600077FD09D00E94C50D07FC05D03EF4909585
:101B700081959F4F0895709561957F4F0895EE0F61
:101B8000FF1F0590F491E02D0994AA1BBB1B51E1A6
:101B900007C0AA1FBB1FA617B70710F0A61BB70BDD
:101BA000881F991F5A95A9F780959095BC01CD0182
:101BB00008955058BB27AA270E94F10D0C94FE0EE1
:101BC0000E94F00E38F00E94F70E20F039F49F3F8B
:101BD00019F426F40C94ED0E0EF4E095E7FB0C944A
:101BE000E70EE92F0E940F0F58F3BA176207730729
:101BF0008407950720F079F4A6F50C94310F0EF4C4
:101C0000E0950B2EBA2FA02D0B01B90190010C010C
:101C1000CA01A0011124FF27591B99F0593F50F424
:101C2000503E68F11A16F040A22F232F342F44277C
:101C3000585FF3CF469537952795A795F040539574
:101C4000C9F77EF41F16BA0B620B730B840BBAF044
:101C50009150A1F0FF0FBB1F661F771F881FC2F7AF
:101C60000EC0BA0F621F731F841F48F487957795C3
:101C70006795B795F7959E3F08F0B0CF9395880F7D
:101C800008F09927EE0F9795879508950E945A0EB0
:101C90000C94FE0E0E94F70E58F00E94F00E40F0D9
:101CA00029F45F3F29F00C94E70E51110C94320F88
:101CB0000C94ED0E0E940F0F68F39923B1F3552396
:101CC00091F3951B550BBB27AA276217730784074F
:101CD00038F09F5F5F4F220F331F441FAA1FA9F3E5
:101CE00035D00E2E3AF0E0E832D091505040E695D3
:101CF000001CCAF72BD0FE2F29D0660F771F881F34
:101D0000BB1F261737074807AB07B0E809F0BB0B26
:101D1000802DBF01FF2793585F4F3AF09E3F51053A
:101D200078F00C94E70E0C94320F5F3FE4F3983E8A
:101D3000D4F3869577956795B795F7959F5FC9F723
:101D4000880F911D9695879597F90895E1E0660FA4
:101D5000771F881FBB1F621773078407BA0720F01D
:101D6000621B730B840BBA0BEE1F88F7E095089586
:101D70000E94170F88F09F5798F0B92F9927B751F5
:101D8000B0F0E1F0660F771F881F991F1AF0BA951F
:101D9000C9F714C0B13091F00E94310FB1E008953D
:101DA0000C94310F672F782F8827B85F39F0B93F2F
:101DB000CCF3869577956795B395D9F73EF49095D2
:101DC0008095709561957F4F8F4F9F4F089597F93C
:101DD0009F6780E870E060E008959FEF80EC0895D1
:101DE00000240A94161617061806090608950024FA
:101DF0000A9412161306140605060895092E039474
:101E0000000C11F4882352F0BB0F40F4BF2B11F4E7
:101E100060FF04C06F5F7F4F8F4F9F4F089557FD46
:101E20009058440F551F59F05F3F71F04795880F48
:101E300097FB991F61F09F3F79F0879508951216DF
:101E400013061406551FF2CF4695F1DF08C016168B
:101E500017061806991FF1CF86957105610508943C
:101E60000895E894BB2766277727CB0197F9089553
:101E70000E944B0F0C94FE0E0E94F00E38F00E9450
:101E8000F70E20F0952311F00C94E70E0C94ED0E54
:101E900011240C94320F0E940F0F70F3959FC1F321
:101EA000950F50E0551F629FF001729FBB27F00D08
:101EB000B11D639FAA27F00DB11DAA1F649F66275D
:101EC000B00DA11D661F829F2227B00DA11D621FAC
:101ED000739FB00DA11D621F839FA00D611D221F66
:101EE000749F3327A00D611D231F849F600D211D4A
:101EF000822F762F6A2F11249F5750409AF0F1F0CD
:101F000088234AF0EE0FFF1FBB1F661F771F881F35
:101F100091505040A9F79E3F510580F00C94E70E78
:101F20000C94320F5F3FE4F3983ED4F38695779597
:101F30006795B795F795E7959F5FC1F7FE2B880FDB
:101F4000911D9695879597F9089510E0CFE3D0E01D
:101F500004C0FE010E94BF0D2196C034D107C9F70D
:101F6000F894FFCFA209AE09B809EF097209AE09CA
:101F7000180AC809720972097209C80972090C0A9B
:101F8000180AD209150A7209150A7209720972092A
:041F9000150ADE0947
:101F9400A00000DC427B14E942A4F0F6425CCF02CC
:101FA400430A970A437BD412435C8F1B435CCF24C0
:101FB40043299C2E43000039430000444366A64F46
:101FC4004300005C437B146943A4F07643A4D082AD
:101FD400430A978A437BD49243A4909B43A4D0A4FE
:101FE40043719DAE43B8FEB8430000C44366A6CF18
:101FF400430000DC437B14E943A4F0F64300D00221
:1020040044AE970A441FD5124400901B44A4D02424
:1020140044719D2E445CFF38445CFF43440AA74F3F
:102024004400005C440000DC427B14E942A4F0F666
:10203400425CCF02430A970A437BD412435C8F1B52
:10204400435CCF2443299C2E4300003943000044C1
:102054004366A64F4300005C437B146943A4F076B7
:1020640043A4D082430A978A437BD49243A4909B8F
:1020740043A4D0A443719DAE43B8FEB8430000C44A
:102084004366A6CF430000DC437B14E943A4F0F687
:102094004300D00244AE970A441FD5124400901B5B
:1020A40044A4D02444719D2E445CFF38445CFF4317
:1020B400440AA74F4400005C44646575784469721F
:1020C400656374696F6E0050617274696541005094
:1020D40061727469654200506172746965425F6738
:1020E4006175636865004761756368650050617276
:1020F400746965425F64726F6974650044726F69E4
:0421040074650000FE
:00000001FF
