:100000000C9440000C9468000C9468000C946800F8
:100010000C9468000C9468000C9468000C946800C0
:100020000C9468000C9468000C9468000C946800B0
:100030000C9468000C9468000C9468000C946800A0
:100040000C9468000C9468000C9468000C94680090
:100050000C9468000C9468000C9468000C94680080
:100060000C9468000C9468000C9468000C94680070
:100070000C9468000C9468000C946800200434040C
:1000800011241FBECFEFD8E0DEBFCDBF11E0A0E04E
:10009000B1E0EEE4FCE002C005900D92A639B10794
:1000A000D9F721E0A6E9B1E001C01D92AD39B20750
:1000B000E1F710E0CFE3D0E004C02197FE010E94F9
:1000C0004804CE33D107C9F70E94A9030C941A063D
:1000D0000C94000060E086E991E00E949D009695F6
:1000E00087959695879580939C0180919C01863297
:1000F00040F4823248F065E270E088E991E00C94C7
:10010000C20080558A3030F065E270E088E991E005
:100110000C94F1008AE991E00E94E60265E270E049
:1001200088E991E00C94CA0010927C0086E88093E4
:100130007A00089510927A00089580917C00807E64
:1001400080937C0080917C006770682B60937C00BA
:1001500080917A00806480937A0080917A0084FF95
:10016000FCCF80917A00806180937A0020917800A2
:100170008091790090E0982F8827820F911D089533
:1001800008950895FB0180818E7F80838081826045
:1001900080830895FB0180818D7F808380818160D1
:1001A000808308950F931F93CF93DF93D82FC92F88
:1001B0008B010E94C2008FE39FE10197F1F700C01D
:1001C0000000B8018D2F9C2F0E94CA008FE79EE38C
:1001D0000197F1F700C00000DF91CF911F910F91BF
:1001E0000895FB0180818D7F808380818E7F808355
:1001F0000895089580EA809394011092B90080E2F6
:100200008093B8000895FC0180E88083CF010C94AE
:10021000FA00982F9370891305C0880F806A809325
:10022000940108958FEF0895FA0194EA24E89093D9
:10023000BC008091BC0087FFFCCF8091940180932B
:10024000BB002093BC008091BC0087FFFCCF809155
:10025000B900883161F784EA8093BC008091BC00CA
:1002600087FFFCCF809194018093BB0084E880934A
:10027000BC008091BC0087FFFCCF7093BB0084E87A
:100280008093BC008091BC0087FFFCCF6093BB00D3
:1002900084E88093BC008091BC0087FFFCCF8091F4
:1002A000BC0087FFFCCF84EA8093BC008091BC0037
:1002B00087FFFCCF809194018F5F8093BB0084E81F
:1002C0008093BC008091BC0087FFFCCF84E88093C2
:1002D000BC008091BC0087FFFCCF8091BB00808375
:1002E00084E98093BC0080E0089594EA34E8909318
:1002F000BC008091BC0087FFFCCF8091940180936B
:10030000BB003093BC008091BC0087FFFCCF809184
:10031000B900883161F784EA8093BC008091BC0009
:1003200087FFFCCF809194018093BB0084E8809389
:10033000BC008091BC0087FFFCCF7093BB0084E8B9
:100340008093BC008091BC0087FFFCCF6093BB0012
:1003500084E88093BC008091BC0087FFFCCF84EAD6
:100360008093BC008091BC0087FFFCCF80919401FA
:100370008F5F8093BB0084E88093BC008091BC00B9
:1003800087FFFCCF84EC211105C084E98093BC0079
:1003900080E00895213009F484E88093BC009091B6
:1003A000BC0097FFFCCFFA019091BB0091932150C4
:1003B000AF01E9CF94EA24E89093BC008091BC009F
:1003C00087FFFCCF809194018093BB002093BC00F9
:1003D0008091BC0087FFFCCF8091B900883161F724
:1003E00084EA8093BC008091BC0087FFFCCF8091A1
:1003F00094018093BB0084E88093BC008091BC0092
:1004000087FFFCCF7093BB0084E88093BC00809191
:10041000BC0087FFFCCF6093BB0084E88093BC00E6
:100420008091BC0087FFFCCF4093BB0084E88093A1
:10043000BC008091BC0087FFFCCF84E98093BC00A6
:1004400080E00895FB01260F372F311DDC018C91D0
:100450008150990B862B9F2B2817390718F09C0188
:100460002F5F3F4F822F8E1B24EA34E82093BC007D
:100470009091BC0097FFFCCF909194019093BB00AA
:100480003093BC009091BC0097FFFCCF9091B900D5
:10049000983161F794EA9093BC009091BC0097FF6B
:1004A000FCCF909194019093BB0094E89093BC0092
:1004B0009091BC0097FFFCCFF093BB0094E8909321
:1004C000BC009091BC0097FFFCCFE093BB0094E888
:1004D0009093BC009091BC0097FFFCCF982F24E82C
:1004E000911104C094E99093BC000895FA013191F0
:1004F0003093BB002093BC003091BC0037FFFCCF91
:100500009150AF01EDCFDF92EF92FF920F931F93C7
:10051000CF93DF93D82ED92F7B018A01C22F2C2FA6
:10052000A801B7018D2D9D2F0E942202282F30E0B7
:10053000E20EF31EC81B020F131FC111F0CF80E0A3
:10054000DF91CF911F910F91FF90EF90DF90089571
:10055000FC0189E3808311828AB18C638AB9E0E867
:10056000F0E08081816A8083E1E8F0E08081826050
:10057000808310928200089508957093890060939B
:10058000880050938B0040938A0008958BB1836F4D
:100590008BB988EB90E090938900809388008AEA79
:1005A00090E090938B0080938A0008958CE890E00F
:1005B000909389008093880084E990E090938B0069
:1005C00080938A008BB18C608BB90895109289005A
:1005D0001092880010928B0010928A0008950E9459
:1005E000C6022FEF89EF90E0215080409040E1F764
:1005F00000C00000A8E8B0E011961C921E92EAE844
:10060000F0E08EE890E0918380832FE784E89EE11C
:10061000215080409040E1F700C0000011961C92EC
:100620001E921182108208950E94C6022FE78FEA5F
:1006300092E0215080409040E1F700C00000A8E81F
:10064000B0E08EE890E011969C938E93EAE8F0E09B
:10065000118210822FEF89E698E12150804090406E
:10066000E1F700C0000011961C921E9211821082C8
:100670000895FC01808190E0218130E03093890071
:100680002093880090938B0080938A000895FC014A
:10069000818190E0208130E03093890020938800B0
:1006A00090938B0080938A0008958AB1806C8AB9F8
:1006B0005E98E0EBF0E0808182648083E1EBF0E023
:1006C0008081866080831092B20008950895CF9350
:1006D000DF9300D000D0CDB7DEB7942F852F20E078
:1006E00030E040E054E499838A836B837C836981A2
:1006F0007A818B819C810E94AD059B01AC0160E0F9
:1007000074E284EF9AE40E94BB0420E030E040E809
:100710005FE369837A838B839C8369817A818B8190
:100720009C810E944E0469837A838B839C836981B8
:100730007A818B819C810E942D056093B3000F907C
:100740000F900F900F90DF91CF9108951092B3000A
:10075000089511B88FEF84B98AB986B12FEF83E27B
:1007600094EF215080409040E1F700C000000E94CB
:100770006A0086B1382F347082FF0EC0982F9171B5
:1007800059F48AE991E00E94C60262E270E088E9C9
:1007900091E00E94F100EBCF982F9370282F2071E9
:1007A000933079F4332369F021110DC062E270E0D7
:1007B00088E991E00E94CA008AE991E00E9414034E
:1007C000D6CF2223A9F0282F2C702C3089F499231E
:1007D00021F081FF0DC080FD0BC062E270E088E96E
:1007E00091E00E94C2008AE991E00E94EF02BFCF2F
:1007F0008C70992369F0811118C062E270E088E979
:1008000091E00E94F1008AE991E00E944703AFCF96
:10081000882359F062E270E088E991E00E94F100DB
:100820008AE991E00E943903A2CF62E270E088E990
:1008300091E00E94F1008AE991E00E94E60297CFE0
:100840008AE991E00E94A80289E991E00E940301EF
:1008500088E991E00E94C00087E991E00E94550379
:1008600086E991E00C94940086E991E00E949A0058
:1008700087E991E00E94660388E991E00E94C10047
:1008800089E991E00E94F9008AE991E00C94BC02A8
:10089000EE0FFF1F0590F491E02D09945058BB27EF
:1008A000AA270E9466040C9473050E94650538F01F
:1008B0000E946C0520F039F49F3F19F426F40C9443
:1008C00062050EF4E095E7FB0C945C05E92F0E94AD
:1008D000840558F3BA17620773078407950720F059
:1008E00079F4A6F50C94A6050EF4E0950B2EBA2F1C
:1008F000A02D0B01B90190010C01CA01A001112426
:10090000FF27591B99F0593F50F4503E68F11A16D1
:10091000F040A22F232F342F4427585FF3CF469562
:1009200037952795A795F0405395C9F77EF41F1684
:10093000BA0B620B730B840BBAF09150A1F0FF0F4E
:10094000BB1F661F771F881FC2F70EC0BA0F621F3A
:10095000731F841F48F4879577956795B795F7952A
:100960009E3F08F0B0CF9395880F08F09927EE0FBF
:100970009795879508950E94CF040C9473050E9463
:100980006C0558F00E94650540F029F45F3F29F09E
:100990000C945C0551110C94A7050C9462050E94FF
:1009A000840568F39923B1F3552391F3951B550BF7
:1009B000BB27AA2762177307840738F09F5F5F4F32
:1009C000220F331F441FAA1FA9F335D00E2E3AF071
:1009D000E0E832D091505040E695001CCAF72BD089
:1009E000FE2F29D0660F771F881FBB1F26173707DA
:1009F0004807AB07B0E809F0BB0B802DBF01FF270C
:100A000093585F4F3AF09E3F510578F00C945C0587
:100A10000C94A7055F3FE4F3983ED4F38695779551
:100A20006795B795F7959F5FC9F7880F911D9695C4
:100A3000879597F90895E1E0660F771F881FBB1F20
:100A4000621773078407BA0720F0621B730B840BCD
:100A5000BA0BEE1F88F7E09508950E948C0588F088
:100A60009F5798F0B92F9927B751B0F0E1F0660F72
:100A7000771F881F991F1AF0BA95C9F714C0B130B3
:100A800091F00E94A605B1E008950C94A605672F89
:100A9000782F8827B85F39F0B93FCCF386957795E2
:100AA0006795B395D9F73EF49095809570956195CB
:100AB0007F4F8F4F9F4F089597F99F6780E870E0B1
:100AC00060E008959FEF80EC089500240A941616C4
:100AD000170618060906089500240A94121613062C
:100AE000140605060895092E0394000C11F48823BA
:100AF00052F0BB0F40F4BF2B11F460FF04C06F5FD6
:100B00007F4F8F4F9F4F089557FD9058440F551FAB
:100B100059F05F3F71F04795880F97FB991F61F07F
:100B20009F3F79F087950895121613061406551FF6
:100B3000F2CF4695F1DF08C0161617061806991F62
:100B4000F1CF86957105610508940895E894BB2757
:100B500066277727CB0197F908950E94C0050C946A
:100B600073050E94650538F00E946C0520F09523FE
:100B700011F00C945C050C94620511240C94A705EB
:100B80000E94840570F3959FC1F3950F50E0551FA7
:100B9000629FF001729FBB27F00DB11D639FAA27D2
:100BA000F00DB11DAA1F649F6627B00DA11D661F21
:100BB000829F2227B00DA11D621F739FB00DA11D42
:100BC000621F839FA00D611D221F749F3327A00DFC
:100BD000611D231F849F600D211D822F762F6A2F98
:100BE00011249F5750409AF0F1F088234AF0EE0FFD
:100BF000FF1FBB1F661F771F881F91505040A9F72A
:100C00009E3F510580F00C945C050C94A7055F3F56
:100C1000E4F3983ED4F3869577956795B795F79565
:100C2000E7959F5FC1F7FE2B880F911D96958795DD
:100C300097F9089510E0CFE3D0E004C0FE010E94D0
:0E0C400048042196C034D107C9F7F894FFCFBD
:100C4E000000DC427B14E942A4F0F6425CCF024382
:100C5E000A970A437BD412435C8F1B435CCF244319
:100C6E00299C2E43000039430000444366A64F439F
:100C7E0000005C437B146943A4F07643A4D0824306
:100C8E000A978A437BD49243A4909B43A4D0A44357
:100C9E00719DAE43B8FEB8430000C44366A6CF4371
:100CAE000000DC437B14E943A4F0F64300D0024479
:100CBE00AE970A441FD5124400901B44A4D024447E
:100CCE00719D2E445CFF38445CFF43440AA74F4499
:060CDE0000005C44A000D0
:00000001FF
