:100000000C9440000C9468000C9468000C946800F8
:100010000C9468000C9468000C9468000C946800C0
:100020000C9468000C9468000C9468000C946800B0
:100030000C9468000C9468000C9468000C946800A0
:100040000C940B050C9468000C9468000C946800E8
:100050000C9468000C9468000C9468000C94680080
:100060000C9468000C9468000C9468000C94680070
:100070000C9468000C9468000C946800FD0601075D
:1000800011241FBECFEFD8E0DEBFCDBF12E0A0E04D
:10009000B1E0E4E5F2E102C005900D92A833B107AA
:1000A000D9F722E0A8E3B2E001C01D92AA33B2075B
:1000B000E1F710E0CFE3D0E004C02197FE010E94F9
:1000C0001907CE33D107C9F70E94C8060C94FF0860
:1000D0000C940000CF93DF93EC01FC011192CF014F
:1000E0000E942A04CE0103960E94FD021C821D82FA
:1000F0008FE18E831886CE0109960E941006CE01EC
:100100000A960E946406CE010B960E949C061D86EC
:100110001C861F861E86198A188A1B8A84E9E0E0DD
:10012000F1E0DE01549601900D928A95E1F7888105
:1001300087B98FEF84B9DF91CF910895CF93DF9383
:10014000EC010B960E94A206CE010A960E94790647
:10015000CE0109960E942106CE0103960E94FE025E
:10016000CE010196DF91CF910C943E04FC0196B133
:100170009F7197830895FC0180850895FC01848117
:100180000895FC0185810895AF92BF92CF92DF92CE
:10019000EF92FF920F931F93CF93DF93EC0102E353
:1001A00010E0D12CC12C5C012BE0A20EB11C60E050
:1001B000C5010E94A50696958795969587958A8B89
:1001C000C80ED11C0150110991F7C60162E370E01D
:1001D0000E9405078E010F5F1F4F7E0189E0E80E28
:1001E000F11C94EAC91696E0D9060CF055C026E435
:1001F000C21625E0D2060CF455C08FEF99EF20E02F
:10020000815090402040E1F700C0000060E0C5014F
:100210000E94A50696958795969587958A8B6E017F
:1002200023E0C20ED11C823208F44CC0C8010E94E7
:10023000750465E270E0C6010E9407034C8D5D8D78
:100240006E8D7F8DC7010E9422068FEF99E628E10F
:10025000815090402040E1F700C00000C7010E949B
:10026000610646E950E06CE870E0C8010E9458045D
:100270008FEF98EF25E1815090402040E1F700C0DA
:1002800000008B89E82FF0E03696EE0FFF1FEC0F91
:10029000FD1F21E030E04BC06252710967357105E6
:1002A00008F454C0C7010E946106C801DF91CF91D4
:1002B0001F910F91FF90EF90DF90CF90BF90AF9084
:1002C0000C944804C8010E9475044C895D896E89AC
:1002D0007F89C7010E9422068FEF99E628E18150AD
:1002E00090402040E1F700C00000C7010E94610675
:1002F00046E950E06CE870E0C8010E9458048FEFB6
:1003000098EF25E1815090402040E1F700C00000C7
:1003100065E270E0C6010E94FF028B89E82FF0E0E1
:100320003696EE0FFF1FEC0FFD1F22E030E0318309
:1003300020838F5F8B8BDF91CF911F910F91FF9067
:10034000EF90DF90CF90BF90AF900895C8010E94CA
:10035000750465E270E0CE0103966ECFEF92FF92D6
:100360000F931F93CF93DF93EC018B010E94B60094
:10037000EF81E150EE3108F076C0F0E0E45FF64F37
:100380000C9419078E010F5F1F4FC8010E947E0455
:1003900086B1982F9F719F8382FFF7CF26C08E0171
:1003A0000F5F1F4FC8010E947E0486B1982F9F7176
:1003B0009F8382FFF7CF19C08E010F5F1F4FC801C7
:1003C0000E948E0486B1982F9F719F8382FFF7CF82
:1003D0000CC08E010F5F1F4FC8010E948E0486B1B2
:1003E000982F9F719F8382FFF7CFDF91CF911F914D
:1003F0000F91FF90EF90089543E750E06CE870E0B4
:10040000CE010196DF91CF911F910F91FF90EF9058
:100410000C94B7044CE850E063E770E0CE0101961D
:10042000DF91CF911F910F91FF90EF900C94A70453
:10043000CE010196DF91CF911F910F91FF90EF9028
:100440000C944804CE0101960E94480481E08887FC
:10045000CCCF44E650E068E770E0D2CF48E750E008
:1004600064E670E0DBCFCE010196DF91CF911F9162
:100470000F91FF90EF900C9475042FE78AE196E0BE
:10048000215080409040E1F700C00000CE010E9462
:10049000B6007E012FEFE21AF20A8F818F3199F4B4
:1004A00082E00033180731F4C7010E94480481E05C
:1004B0008C839BCF0852124031F4C7010E9475040F
:1004C00081E08D8392CF43E950E06CE870E0C70192
:1004D0000E945804C7010E948E0486B1982F9F7114
:1004E0009F8382FFF7CF81CF2FE78AE196E02150EB
:1004F00080409040E1F700C00000CE010E94B600AD
:100500007E012FEFE21AF20A8F818F3139F482E0F7
:100510000033180749F20852124079F243E950E0DB
:100520006CE870E0C7010E945804C7010E948E0465
:1005300086B1982F9F719F8382FFF7CF56CF2FE709
:100540008AE196E0215080409040E1F700C0000031
:10055000CE010E94B6007E012FEFE21AF20A8F81CF
:100560008F3169F482E00033180709F49DCF0852F7
:10057000124009F4A2CF8D81882309F49ECF43E96C
:1005800050E06CE870E0C7010E945804C7010E9467
:100590007E0486B1982F9F719F8382FFF7CF25CF6E
:1005A0002FE78AE196E0215080409040E1F700C0BB
:1005B0000000CE010E94B6007E012FEFE21AF20A7F
:1005C0008F818F3149F482E00033180709F46CCF32
:1005D0000852124009F471CF43E950E06CE870E032
:1005E000C7010E945804C7010E947E0486B1982F5B
:1005F0009F719F8382FFF7CFF8CE08950895FB0186
:1006000080818E7F80838081826080830895FB015A
:1006100080818D7F808380818160808308950F93A6
:100620001F93CF93DF93D82FC92F8B010E94FF0216
:100630008FE39FE10197F1F700C00000B8018D2F13
:100640009C2F0E9407038FE79EE30197F1F700C0FC
:100650000000DF91CF911F910F910895FB018081E0
:100660008D7F808380818E7F80830895CF93DF93F9
:10067000EC0118828FEF8983CE0102960E942A0432
:10068000CE0104960E941006CE0105960E94FD023E
:10069000CE0106960E949C0618861F821A8619862D
:1006A0001C861B861E8684E9E4E9F1E0DE011F96C4
:1006B00001900D928A95E1F7888181B9898184B989
:1006C000DF91CF910895CF93DF93EC0106960E94BE
:1006D000A206CE0105960E94FE02CE0104960E945B
:1006E0002106CE010296DF91CF910C943E0407962D
:1006F00008958F929F92AF92BF92CF92DF92EF9226
:10070000FF920F931F93CF93DF93EC0154E1C52E1B
:10071000D12CF12CE12C8C010A5F1F4F60E0C80145
:100720000E94A50696958795969587958D87E80EE4
:10073000F11C81E0C81AD10889F7C70164E170E0B3
:100740000E9405074B0160E0C8010E94A50696952E
:100750008795969587958D876E0182E0C80ED11C8E
:100760005E0185E0A80EB11C8E010C5F1F4F84E373
:10077000E81683E0F8068CF588E5E81682E0F806CE
:100780009CF1C6010E9475044F85588969897A8950
:10079000C8010E942206C8010E94610665E270E05D
:1007A000C5010E94FF028E85E82FF0E0EE0FFF1FCB
:1007B000EC0FFD1F22E030E0308727838F5F8E87AC
:1007C000DF91CF911F910F91FF90EF90DF90CF902D
:1007D000BF90AF909F908F9008958FE5881A9108F1
:1007E0008AE188169104B8F065E270E0C5010E94C4
:1007F0002E03C8010E946106C601DF91CF911F91AF
:100800000F91FF90EF90DF90CF90BF90AF909F90AF
:100810008F900C944804C6010E94750465E270E054
:10082000C5010E9407034F89588D698D7A8DC801D3
:100830000E942206C8010E946106C6010E94480467
:100840008E85E82FF0E0EE0FFF1FEC0FFD1F21E07B
:1008500030E0B2CFFC0184E6808311828AB18C63E0
:100860008AB9E0E8F0E08081816A8083E1E8F0E025
:100870008081826080831092820008950895709331
:1008800089006093880050938B0040938A000895FC
:100890008BB1837F8BB984E690E09093890080933D
:1008A00088008EE690E090938B0080938A000895F4
:1008B000CA014BB1437F4BB97093890060938800A4
:1008C00090938B0080938A0008958AE090E0909343
:1008D00089008093880084E990E090938B00809356
:1008E0008A008BB18C608BB90895109289001092A8
:1008F000880010928B0010928A0008958BB1837F3C
:100900008BB98EE190E0909389008093880081E616
:1009100090E090938B0080938A0008952FE788E3FE
:1009200091E0215080409040E1F700C000008BB181
:10093000837F8BB985E590E0909389008093880050
:100940008EE190E090938B0080938A0008958BB1A4
:10095000837F8BB984E690E0909389008093880030
:1009600088E790E090938B0080938A0008958BB184
:10097000837F8BB988E790E090938900809388000B
:1009800084E690E090938B0080938A000895CF9343
:10099000DF93EC010E943603CE018D559F4F0E94DC
:1009A0006A00CE01855B9E4F0E942A04C35BDE4F26
:1009B0008CE49DE199838883DF91CF910895CF9353
:1009C000DF93EC01855B9E4F0E943E04CE018D5566
:1009D0009F4F0E949E00CE01DF91CF910C94630344
:1009E00016BCFC01E35BFE4F808187BD84B5886047
:1009F00084BD85B5856085BDEEE6F0E080818260CE
:100A000080830895F894E89AE9E6F0E080818360B5
:100A10008083789408958F9381E0809339028F9139
:100A200018950E947703FC0184819581892B31F40C
:100A3000828193819583848313821282CF010895EA
:100A40000F931F93CF93DF93EC018C010D551F4F34
:100A5000C8010E94C100882329F0DF91CF911F9126
:100A60000F910895CE010E94790368E272E0C801F7
:100A70000E94AE01EDCF6F927F928F929F92AF92C4
:100A8000BF92CF92DF92EF92FF920F931F93CF937B
:100A9000DF9300D0CDB7DEB76C010E9402055E0186
:100AA00022E0A20EB11CC5010E94FD02CE010196FA
:100AB0007C010E94100610E000E03701760193EA05
:100AC000E90EF11C460125EB821A2EEF920AC701AE
:100AD0000E94BE008823B9F0C3010E942106C5010F
:100AE0000E94FE020F900F90DF91CF911F910F9106
:100AF000FF90EF90DF90CF90BF90AF909F908F903E
:100B00007F906F9008950230110509F45EC044F49F
:100B10000115110579F001301105A9F102E01AC0A3
:100B20000330110509F475C065E270E0C5010E944B
:100B30002E03CDCF65E270E0C5010E94FF0260E3A5
:100B400072E0C7010E94AE01C7010E94BB00811183
:100B500003C001E010E0E8CFC6010E94F00440E0CD
:100B600050E06CED72E4C3010E942206C4010E94B1
:100B70007E048FEF92E527E0815090402040E1F71E
:100B800000C00000E6CF60E372E0C7010E94AE0142
:100B9000809139028823E9F2C4010E947E048FEF1C
:100BA00092E527E0815090402040E1F700C000002E
:100BB000C4010E9475048FEF99E628E181509040AE
:100BC0002040E1F700C00000A9CF60E372E0C70158
:100BD0000E94AE01C7010E94BB008823C1F065E2FC
:100BE00070E0C5010E94070340E050E06CED72E444
:100BF000C3010E942206C4010E947E048FEF92E589
:100C000027E0815090402040E1F700C0000003E061
:100C1000A1CF60E372E0C7010E94AE0185CF0895C5
:100C20008AB1806C8AB95E98E0EBF0E080818264E2
:100C30008083E1EBF0E08081846080831092B200D9
:100C400008950895CF93DF9300D000D0CDB7DEB7DD
:100C5000942F852F20E030E040E054E499838A838C
:100C60006B837C8369817A818B819C810E9492084D
:100C70009B01AC0160E074E284EF9AE40E94A0075B
:100C800020E030E040E85FE369837A838B839C83D4
:100C900069817A818B819C810E94330769837A8381
:100CA0008B839C8369817A818B819C810E9412084D
:100CB0006093B3000F900F900F900F90DF91CF9142
:100CC00008951092B30008951092C5008FEC8093A0
:100CD000C400E0ECF0E08081806C8083E1ECF0E027
:100CE000808188618083E2ECF0E08081866080838F
:100CF000089508958091C00085FFFCCF6093C600E1
:100D000008958091C00087FFFCCF8091C6000895B0
:100D10000F931F93CF93DF93182F092FEB01699146
:100D2000611105C0DF91CF911F910F910895812F1F
:100D3000902F0E947A06F3CF10927C0086E8809371
:100D40007A00089510927A00089580917C00807E48
:100D500080937C0080917C006770682B60937C009E
:100D600080917A00806480937A0080917A0084FF79
:100D7000FCCF80917A00806180937A002091780086
:100D80008091790090E0982F8827820F911D089517
:100D9000CDB7DEB7CE59D2400FB6F894DEBF0FBE46
:100DA000CDBFCE0101960E94C704CE0182569D4F51
:100DB0000E941006CE0182569D4F0E9461068E0150
:100DC000005B1E4FC8010E946A00CE0188509E4FF2
:100DD0000E943603CE0183569D4F0E94FD02CE0134
:100DE00085569D4F0E942A04C8010E94C40068E2F3
:100DF00072E0C8010E94AE01F7CF88E392E00C9444
:100E0000100688E392E00C94210697FB072E16F457
:100E1000009407D077FD09D00E941F0707FC05D07A
:100E20003EF4909581959F4F0895709561957F4F01
:100E30000895EE0FFF1F0590F491E02D0994AA1B71
:100E4000BB1B51E107C0AA1FBB1FA617B70710F0B5
:100E5000A61BB70B881F991F5A95A9F780959095E7
:100E6000BC01CD0108955058BB27AA270E944B070B
:100E70000C9458080E944A0838F00E94510820F04B
:100E800039F49F3F19F426F40C9447080EF4E095CA
:100E9000E7FB0C944108E92F0E94690858F3BA1740
:100EA000620773078407950720F079F4A6F50C9480
:100EB0008B080EF4E0950B2EBA2FA02D0B01B90173
:100EC00090010C01CA01A0011124FF27591B99F0C0
:100ED000593F50F4503E68F11A16F040A22F232FCC
:100EE000342F4427585FF3CF469537952795A7951C
:100EF000F0405395C9F77EF41F16BA0B620B730BC3
:100F0000840BBAF09150A1F0FF0FBB1F661F771F33
:100F1000881FC2F70EC0BA0F621F731F841F48F4E8
:100F2000879577956795B795F7959E3F08F0B0CF71
:100F30009395880F08F09927EE0F97958795089558
:100F40000E94B4070C9458080E94510858F00E945F
:100F50004A0840F029F45F3F29F00C9441085111F0
:100F60000C948C080C9447080E94690868F3992334
:100F7000B1F3552391F3951B550BBB27AA27621795
:100F80007307840738F09F5F5F4F220F331F441FA2
:100F9000AA1FA9F335D00E2E3AF0E0E832D09150D6
:100FA0005040E695001CCAF72BD0FE2F29D0660FC3
:100FB000771F881FBB1F261737074807AB07B0E806
:100FC00009F0BB0B802DBF01FF2793585F4F3AF00C
:100FD0009E3F510578F00C9441080C948C085F3FBB
:100FE000E4F3983ED4F3869577956795B795F79592
:100FF0009F5FC9F7880F911D9695879597F908957A
:10100000E1E0660F771F881FBB1F62177307840715
:10101000BA0720F0621B730B840BBA0BEE1F88F724
:10102000E09508950E94710888F09F5798F0B92FB5
:101030009927B751B0F0E1F0660F771F881F991F0D
:101040001AF0BA95C9F714C0B13091F00E948B081C
:10105000B1E008950C948B08672F782F8827B85F2C
:1010600039F0B93FCCF3869577956795B395D9F765
:101070003EF490958095709561957F4F8F4F9F4F6F
:10108000089597F99F6780E870E060E008959FEF0A
:1010900080EC089500240A9416161706180609060F
:1010A000089500240A9412161306140605060895DE
:1010B000092E0394000C11F4882352F0BB0F40F466
:1010C000BF2B11F460FF04C06F5F7F4F8F4F9F4FA6
:1010D000089557FD9058440F551F59F05F3F71F028
:1010E0004795880F97FB991F61F09F3F79F087958F
:1010F0000895121613061406551FF2CF4695F1DF18
:1011000008C0161617061806991FF1CF86957105A7
:10111000610508940895E894BB2766277727CB01DB
:1011200097F908950E94A5080C9458080E944A084F
:1011300038F00E94510820F0952311F00C944108DA
:101140000C94470811240C948C080E94690870F3D1
:10115000959FC1F3950F50E0551F629FF001729F5C
:10116000BB27F00DB11D639FAA27F00DB11DAA1F6B
:10117000649F6627B00DA11D661F829F2227B00DB8
:10118000A11D621F739FB00DA11D621F839FA00D43
:10119000611D221F749F3327A00D611D231F849F93
:1011A000600D211D822F762F6A2F11249F575040EA
:1011B0009AF0F1F088234AF0EE0FFF1FBB1F661F65
:1011C000771F881F91505040A9F79E3F510580F02E
:1011D0000C9441080C948C085F3FE4F3983ED4F3E0
:1011E000869577956795B795F795E7959F5FC1F7D2
:1011F000FE2B880F911D9695879597F9089510E01D
:10120000CFE3D0E004C0FE010E9419072196C0344C
:10121000D107C9F7F894FFCFE901FC01DC011802FE
:10122000330229023D020A023302330233022E0244
:10123000330222027402CF01260233022602330255
:10124000330233022602C2012602330226029F0223
:041250002602D002A0
:101254000000DC427B14E942A4F0F6425CCF024376
:101264000A970A437BD412435C8F1B435CCF24430D
:10127400299C2E43000039430000444366A64F4393
:1012840000005C437B146943A4F07643A4D08243FA
:101294000A978A437BD49243A4909B43A4D0A4434B
:1012A400719DAE43B8FEB8430000C44366A6CF4365
:1012B4000000DC437B14E943A4F0F64300D002446D
:1012C400AE970A441FD5124400901B44A4D0244472
:1012D400719D2E445CFF38445CFF43440AA74F448D
:1012E40000005C440000DC427B14E942A4F0F642B6
:1012F4005CCF02430A970A437BD412435C8F1B439F
:101304005CCF2443299C2E4300003943000044430E
:1013140066A64F4300005C437B146943A4F0764304
:10132400A4D082430A978A437BD49243A4909B43DC
:10133400A4D0A443719DAE43B8FEB8430000C44397
:1013440066A6CF430000DC437B14E943A4F0F643D4
:1013540000D00244AE970A441FD5124400901B44A7
:10136400A4D02444719D2E445CFF38445CFF434464
:101374000AA74F4400005C445061727469654100DF
:081384005061727469654200BA
:00000001FF
