:100000000C9440000C9499000C94AB000C94680084
:100010000C9468000C9468000C9468000C946800C0
:100020000C9468000C9468000C9468000C946800B0
:100030000C9468000C9437080C9468000C946800C9
:100040000C9468000C9468000C9468000C94680090
:100050000C9468000C9468000C9468000C94680080
:100060000C9468000C9468000C9468000C94680070
:100070000C9468000C9468000C946800230E270E02
:1000800011241FBECFEFD8E0DEBFCDBF12E0A0E04D
:10009000B1E0E4E9F0E202C005900D92A437B107A7
:1000A000D9F722E0A4E7B2E001C01D92A937B20758
:1000B000E1F710E0CFE3D0E004C02197FE010E94F9
:1000C0003F0ECE33D107C9F70E94000E0C942510C5
:1000D0000C940000CF93DF93EC01FC01119211927C
:1000E000CF010E94E307CE018E5A9E4FDF91CF9140
:1000F0000C944A05CF93DF93EC018E5A9E4F0E94D9
:100100004B05CE010296DF91CF910C940008F89434
:10011000E99AE9E6F0E080818C6080837894089524
:10012000F894E89AE9E6F0E080818360808378942F
:1001300008958F938FB78F939F938FE59AEE0197D2
:10014000F1F700C0000081E0809375029F918F91CC
:100150008FBF8F9118952F932FB72F938F939F93C6
:100160002FE788E391E0215080409040E1F700C004
:100170000000809174028F5F809374029F918F9131
:100180002F912FBF2F9118950F931F93CF93DF932C
:10019000EC01888199818130910561F1823091056E
:1001A00009F448C0892B09F58E010E5A1E4F65E2ED
:1001B00070E0C8010E94600580917502882369F093
:1001C00040ED57E065E270E0C8010E947005CE0185
:1001D00002960E949D0810927502809174028130EF
:1001E00021F481E090E099838883DF91CF911F9182
:1001F0000F9108958E010E5A1E4F65E270E0C801FE
:100200000E94580580917502882369F040ED57E0FF
:1002100065E270E0C8010E947005CE0102960E945E
:10022000C60810927502809174028230F1F682E065
:1002300090E0D9CF8E010E5A1E4F4AE050E065E2A1
:1002400070E0C8010E94AB0580917502882389F097
:1002500040ED57E065E270E0C8010E947005CE01F4
:1002600002960E94E10B109275021092740219829C
:10027000188280917402833009F0B7CF19821882F6
:1002800010927402B2CFCF93DF93EC01FC01119274
:10029000CF010E948E07CE0103960E944A051C8260
:1002A0001D828FE18E8318861986CE010A960E94E0
:1002B0008C0CCE010B960E94E9051D861C86CE0192
:1002C0000E960E94E00C1F86188A198A1B8A84E900
:1002D000E1E0F1E0DE01549601900D928A95E1F79C
:1002E000888181B98FEF84B9DF91CF910895CF9341
:1002F000DF93EC010E960E94E60CCE010B960E9455
:10030000DF05CE010A960E949D0CCE0103960E9445
:100310004B05CE010196DF91CF910C949C07FC0117
:1003200090B19F7197830895FC0180850895FC0129
:1003300060870895FC0184810895FC016483089519
:10034000FC01858108950F960895FC01818508952B
:10035000FC0161870895CF92DF92FF920F931F9364
:10036000CF93DF938C01F62EEA016C012FEFC21AB6
:10037000D20A6623C9F0C6010E94A0078FE799EA56
:10038000E3E081509040E040E1F700C00000F2E07F
:10039000C932DF0749F42FEF82E597E02150804012
:1003A0009040E1F700C00000E2E0C833DE0721F032
:1003B000F2E0C034DF0741F5C6010E94C707C8015B
:1003C0000E948F01F8018781823071F741E750E088
:1003D00063E770E0C6010E94A807FF2069F0F2E021
:1003E000C833DF07E9F42FEF81EE94E0215080401D
:1003F0009040E1F700C00000DF91CF911F910F9175
:10040000FF90DF90CF90089522E0C932D207B9F66D
:1004100050E040E062E670E0C6010E94E107CFCF05
:10042000C952D24049F7FFEF29EC88E0F150204053
:100430008040E1F7DFCFCF92DF92FF920F931F93BF
:10044000CF93DF938C01F62EEA016C012FEFC21AD5
:10045000D20A6623C9F0C6010E94A0078FE799EA75
:10046000E3E081509040E040E1F700C00000F2E09E
:10047000C834DF0749F42FEF86E791E02150804030
:100480009040E1F700C00000E2E0C833DE0721F051
:10049000F2E0C034DF0741F5C6010E94BF07C80182
:1004A0000E948F01F801878183FFEECF41E750E082
:1004B00063E770E0C6010E94A807FF2069F0F2E040
:1004C000C834DF07E9F42FEF89EC98E02150804031
:1004D0009040E1F700C00000DF91CF911F910F9194
:1004E000FF90DF90CF90089522E0C834D207B9F68C
:1004F00046E650E070E060E0C6010E94DF07CFCF23
:10050000C853D24049F7FFEF21EE84E0F15020407C
:100510008040E1F7DFCFDF92EF92FF920F931F93BE
:10052000CF93DF93EC018B017A012FEF81EE94E002
:10053000215080409040E1F700C00000CE010E94B1
:100540008F01DD24D394D9868F818F31D9F422E0B5
:100550000034120769F4CE0101960E94BC07DD82C7
:10056000DF91CF911F910F91FF90EF90DF90089551
:1005700082E00833180731F4CE0101960E94A007EB
:10058000DC82EECF97E5E91692E0F90629F025E640
:10059000E21622E0F20621F7A80161E0CE01DF9128
:1005A000CF911F910F91FF90EF90DF900C94AB01D2
:1005B000DF92EF92FF920F931F93CF93DF93EC01A3
:1005C0008B017A012FE78DE995E021508040904022
:1005D000E1F700C00000CE010E948F01DD24D3941A
:1005E000D9868F818F31D9F422E00034120769F463
:1005F000CE0101960E94BC07DD82DF91CF911F9151
:100600000F91FF90EF90DF90089582E00833180774
:1006100031F4CE0101960E94A007DC82EECF97E56F
:10062000E91692E0F90629F02CE6E21622E0F2063D
:1006300021F7A80161E0CE01DF91CF911F910F91C9
:10064000FF90EF90DF900C941B02CF93DF93EC01AF
:100650000E948F018F81803199F068F48D7F813005
:1006600061F441E750E060E270E0CE010196DF9175
:10067000CF910C94DF07883119F0DF91CF91089565
:1006800040E250E065E770E0CE010196DF91CF9146
:100690000C94E107CF93DF93EC012FE788E391E01F
:1006A000215080409040E1F700C00000CE010E9440
:1006B0008F018F818E3041F481E08887CE010196D1
:1006C000DF91CF910C94A007982F977F973019F066
:1006D0008D7F8C3199F781E08987F0CFAF92BF92FF
:1006E000CF92DF92EF92FF920F931F93CF93DF93FE
:1006F000EC0142E3C42ED12C10E000E07C012EE09E
:10070000E20EF11C66E0C7010E94E90C9695879500
:10071000969587958A8B080F111D81E0C81AD1081C
:1007200089F7C80162E370E00E942B0E043A96E05C
:1007300019070CF05FC0063415400CF461C08FE35C
:1007400099E121E0815090402040E1F700C0000095
:1007500066E0C7010E94E90C969587959695879566
:100760008A8B8E010F5F1F4F5E0123E0A20EB11C2A
:100770007E012AE0E20EF11C6E012BE0C20ED11CBC
:10078000823208F448C0C8010E94BC0765E270E0EC
:10079000C5010E9460054CAD5DAD6EAD7FADC7017A
:1007A0000E949E0C8FEF9AED2AE1815090402040EC
:1007B000E1F700C00000C7010E94DD0C45E850E0F1
:1007C00067E870E0C8010E94A8078FEF99E628E16A
:1007D000815090402040E1F700C000006C857D858D
:1007E00041E0C6010E94C0068B89FE01E80FF11DA1
:1007F00091E047C0625271096735710508F445C040
:10080000DF91CF911F910F91FF90EF90DF90CF90EC
:10081000BF90AF900895C8010E94BC074C8D5D8DBC
:100820006E8D7F8DC7010E949E0C8FEF99E628E1A7
:10083000815090402040E1F700C00000C7010E94B5
:10084000DD0C45E850E067E870E0C8010E94A807A9
:100850008FEF99E628E1815090402040E1F700C0F9
:10086000000065E270E0C5010E9458056C857D8539
:1008700042E0C6010E94C0068B89FE01E80FF11D0F
:1008800092E097878F5F8B8BBBCF8E010F5F1F4FDF
:10089000C8010E94BC0765E270E0CE0103960E9489
:1008A00060057E018AE0E80EF11C4CAD5DAD6EADD9
:1008B0007FADC7010E949E0C9FEF29E688E1915011
:1008C00020408040E1F700C00000C7010E94DD0C1D
:1008D00045E850E067E870E0C8010E94A8079FEF74
:1008E00029E688E1915020408040E1F700C00000F7
:1008F0006C857D8541E0CE010B9674CFEF92FF921F
:100900000F931F93CF93DF93EC018B017A010E9429
:100910008F01EF81E931A0F4E1110AC0CE01019607
:10092000DF91CF911F910F91FF90EF900C94BC0736
:10093000E150E83198F7F0E0EE5CFF4E0C943F0E8A
:10094000E951E73058F791E0892F0E2E01C0880F4A
:100950000A94EAF7282F257109F083C0887209F0FC
:100960008EC0E630D9F6998708531240B9F6A70130
:1009700068E372E0CE010E948B02D0CF40E452E0E7
:1009800060E0CE01DF91CF911F910F91FF90EF902A
:100990000C94AB01CE010196DF91CF911F910F9185
:1009A000FF90EF900C94D70781E089874EE150E0EB
:1009B00060E570E0CE010196DF91CF911F910F911C
:1009C000FF90EF900C94E107CE010196DF91CF915B
:1009D0001F910F91FF90EF900C94CF0740E452E0ED
:1009E00060E0CE01DF91CF911F910F91FF90EF90CA
:1009F0000C941B0240E550E06EE170E0CE010196E0
:100A00000E94DF0781E08987DF91CF911F910F91CD
:100A1000FF90EF900895CE01019622E0093212076F
:100A200019F00854124061F44AE550E06CE570E0BA
:100A3000DF91CF911F910F91FF90EF900C94A80739
:100A4000DF91CF911F910F91FF90EF900C94A00731
:100A5000CE01DF91CF911F910F91FF90EF900C94F9
:100A60004A0381E08887D0CFA701B801CE01DF918A
:100A7000CF911F910F91FF90EF900C948B02A701E3
:100A8000B801CE01DF91CF911F910F91FF90EF90B0
:100A90000C94D8020895089529B18FE19EE401973E
:100AA000F1F700C0000099B181E0291380E00895BA
:100AB000FB0180818E7F80838081826080830895A6
:100AC000FB0180818D7F8083808181608083089598
:100AD000FB0180818D7F808380818E7F808308955C
:100AE000CF92DF92FF920F931F93CF93DF93D82F74
:100AF000C92F8B01CA0160E971E00E942B0E6B01C6
:100B0000F12CB8018D2F9C2FFC141D044CF0DF91AB
:100B1000CF911F910F91FF90DF90CF900C946805BB
:100B20000E9458052FEF81EE94E0215080409040C4
:100B3000E1F700C00000B8018D2F9C2F0E946005D6
:100B40002FEF81EE94E0215080409040E1F700C00B
:100B50000000F394D6CFDF92EF92FF920F931F9392
:100B6000CF93DF938C017B01EA0157FD279683E049
:100B7000D595C7958A95E1F7D12CB701C801DC1648
:100B80001D064CF0DF91CF911F910F91FF90EF90D8
:100B9000DF900C9468050E9458058FE39FE1019750
:100BA000F1F700C00000B701C8010E9460058FE79F
:100BB0009EE30197F1F700C00000D394DECF0895C3
:100BC00080EA809300011092B90080E28093B8001F
:100BD0000895FC0180E88083CF010C94E005982FF4
:100BE0009370891305C0880F806A8093000108956F
:100BF0008FEF0895FA0194EA24E89093BC00809165
:100C0000BC0087FFFCCF809100018093BB00209344
:100C1000BC008091BC0087FFFCCF8091B900883177
:100C200061F784EA8093BC008091BC0087FFFCCF11
:100C3000809100018093BB0084E88093BC00809188
:100C4000BC0087FFFCCF7093BB0084E88093BC009E
:100C50008091BC0087FFFCCF6093BB0084E8809349
:100C6000BC008091BC0087FFFCCF8091BC0087FF57
:100C7000FCCF84EA8093BC008091BC0087FFFCCF4E
:100C8000809100018F5F8093BB0084E88093BC005B
:100C90008091BC0087FFFCCF84E88093BC008091EA
:100CA000BC0087FFFCCF8091BB00808384E98093E8
:100CB000BC0080E0089594EA34E89093BC008091F1
:100CC000BC0087FFFCCF809100018093BB00309374
:100CD000BC008091BC0087FFFCCF8091B9008831B7
:100CE00061F784EA8093BC008091BC0087FFFCCF51
:100CF000809100018093BB0084E88093BC008091C8
:100D0000BC0087FFFCCF7093BB0084E88093BC00DD
:100D10008091BC0087FFFCCF6093BB0084E8809388
:100D2000BC008091BC0087FFFCCF84EA8093BC00AC
:100D30008091BC0087FFFCCF809100018F5F809382
:100D4000BB0084E88093BC008091BC0087FFFCCF8F
:100D500084EC211105C084E98093BC0080E00895F3
:100D6000213009F484E88093BC009091BC0097FF87
:100D7000FCCFFA019091BB0091932150AF01E9CFD4
:100D800094EA24E89093BC008091BC0087FFFCCFDC
:100D9000809100018093BB002093BC008091BC0037
:100DA00087FFFCCF8091B900883161F784EA809396
:100DB000BC008091BC0087FFFCCF80910001809334
:100DC000BB0084E88093BC008091BC0087FFFCCF0F
:100DD0007093BB0084E88093BC008091BC0087FFC7
:100DE000FCCF6093BB0084E88093BC008091BC0082
:100DF00087FFFCCF4093BB0084E88093BC008091C8
:100E0000BC0087FFFCCF84E98093BC0080E008959C
:100E1000FB01260F372F311DDC018C918150990B7E
:100E2000862B9F2B2817390718F09C012F5F3F4F07
:100E3000822F8E1B24EA34E82093BC009091BC00E2
:100E400097FFFCCF909100019093BB003093BC00C2
:100E50009091BC0097FFFCCF9091B900983161F759
:100E600094EA9093BC009091BC0097FFFCCF9091C6
:100E700000019093BB0094E89093BC009091BC005B
:100E800097FFFCCFF093BB0094E89093BC00909147
:100E9000BC0097FFFCCFE093BB0094E89093BC00AC
:100EA0009091BC0097FFFCCF982F24E8911104C0CB
:100EB00094E99093BC000895FA0131913093BB00FE
:100EC0002093BC003091BC0037FFFCCF9150AF01A4
:100ED000EDCFDF92EF92FF920F931F93CF93DF93AB
:100EE000D82ED92F7B018A01C22F2C2FA801B70140
:100EF0008D2D9D2F0E940807282F30E0E20EF31E53
:100F0000C81B020F131FC111F0CF80E0DF91CF91FA
:100F10001F910F91FF90EF90DF900895FC0184E600
:100F20008083118284B18FEF84B984B5816A84BDD6
:100F300085B5826085BD0895089567BD48BD089553
:100F400085B18B7D85B981E687BD8FE588BD089524
:100F500085B18B7D85B967BD48BD089567BD48BD26
:100F600085B1846285B908958BE587BD86E688BD25
:100F700085B1846285B9089517BC18BC089585B100
:100F80008B7D85B986E287BD8FE588BD089585B1E3
:100F90008B7D85B981E687BD8FE188BD089585B1D8
:100FA0008B7D85B988E287BD85E588BD089585B1CB
:100FB0008B7D85B98FE587BD88E288BD08950C9447
:100FC000A8070C94A807CF93DF93EC010E940C0DA7
:100FD000CE018D559F4F0E944301CE01855B9E4FF0
:100FE0000E948E07FE01E35BFE4F82E49FE0918347
:100FF0008083CE01815B9E4FDF91CF910C94E905F8
:10100000CF93DF93EC01815B9E4F0E94DF05CE0101
:10101000855B9E4F0E949C07CE018D559F4F0E947D
:101020007701CE01DF91CF910C94390D9C0178941A
:10103000109278021092850010928400235B3E4F3C
:10104000F901808191819093890080938800E0E884
:10105000F0E0808188608083E1E8F0E08081856055
:101060008083EFE6F0E080818260808308951F92A4
:101070001FB61F9211248F93109285001092840046
:10108000809178028F5F80937802843118F081E03C
:10109000809377028F911F901FBE1F9018950F931A
:1010A0001F93CF93DF938B01EC01C15BDE4FFB01FC
:1010B000408170E060E0CE010E94C006F8014181ED
:1010C00061E070E0CE010E94C006F801428162E05A
:1010D00070E0CE01DF91CF911F910F910C94C0066B
:1010E0000F931F93CF93DF9300D00F92CDB7DEB74E
:1010F0008C01015B1E4FAE014D5F5F4F70E060E001
:10110000C8010E94FA05AE014E5F5F4F61E070E0DA
:10111000C8010E94FA05AE014F5F5F4F62E070E0C8
:10112000C8010E94FA0590E080E00F900F900F90A8
:10113000DF91CF911F910F910895CF93DF93EC0131
:1011400046E750E068E770E0855B9E4F0E94A80785
:101150002FEF89E698E1215080409040E1F700C0F0
:101160000000CD55DF4FCE010E94A001882319F069
:10117000DF91CF910895CE010E946E0347E552E0C2
:1011800060E472E0CE010E947E04EDCF2F923F9288
:101190004F925F926F927F928F929F92AF92BF9287
:1011A000CF92DF92EF92FF920F931F93CF93DF9333
:1011B00000D000D000D00F92CDB7DEB74C010E9416
:1011C00070088D839E833E0124E0620E711CC30172
:1011D0000E944A056E0183E0C80ED11CC6010E9420
:1011E0008C0C8E010F5F1F4FC8010E948E07F12CDF
:1011F000E12CA12CB12C2C2CDF82280184010D556F
:101200001F4F640195EBC91A9EEFD90AC8010E94CD
:101210009A01882341F165E270E0C3010E946005F4
:10122000C2010E949C07822D9F810E949D0CC301D8
:101230000E944B0527960FB6F894DEBF0FBECDBFB8
:10124000DF91CF911F910F91FF90EF90DF90CF90A2
:10125000BF90AF909F908F907F906F905F904F90D6
:101260003F902F900895E3E0EE16F10409F4A5C134
:1012700094F421E0E216F10461F182E0E816F10451
:1012800009F45DC0E114F104B9F065E270E0C30156
:101290000E946805BBCF94E0E916F10409F4D0C1BF
:1012A000E5E0EE16F10489F747E552E068E372E005
:1012B000C8010E947E04AACF47E552E068E372E0CD
:1012C000C8010E947E04C8010E949401E82EF12CFE
:1012D0009DCF65E270E0C3010E945805C2010E94E3
:1012E000A007FFE72AE186E0F15020408040E1F7C7
:1012F00000C0000065E270E0C3010E946805ED8156
:10130000FE818081813091F448E452E061E0C801BF
:101310000E941B02AA24A394C4010E94160860E044
:10132000C8010E94A80132E0E32ED1CF49E252E089
:1013300061E0C8010E94AB01BB24B394EDCF4CE641
:1013400052E0A11004C0BB2039F045E652E068E34A
:1013500072E0C8010E947E04C8010E94A50190911C
:101360007802882309F454C0933108F451C065E22F
:1013700070E0C3010E9460054AE750E06BE770E04F
:10138000C2010E94A807FFEF29E688E1F150204042
:101390008040E1F700C0000065E270E0C3010E94F8
:1013A0006805C2010E94BC079FEFE2E5F7E091509B
:1013B000E040F040E1F700C0000060E0C8010E949A
:1013C000A801AA2009F493C044E750E070E060E06F
:1013D000C6010E94DF072FEF84E39CE0215080408C
:1013E0009040E1F700C00000C4010E9416084EE7DB
:1013F00050E068E770E0C6010E94A8078FEF91EE09
:10140000E4E081509040E040E1F700C00000FECEF3
:10141000943009F0FBCE80917702882309F4F6CE50
:10142000F894C2010E94BC0765E270E0C3010E940B
:101430006005FFE72AE186E0F15020408040E1F7B7
:1014400000C0000065E270E0C3010E9468059FEFE4
:10145000E9E6F8E19150E040F040E1F700C000001B
:10146000ED81FE818181813009F053C050E040E080
:101470006DE770E0C6010E94E107FFEF2BEA8DE007
:10148000F15020408040E1F700C00000C6010E94FA
:10149000BC079FEFE9E6F8E19150E040F040E1F74A
:1014A00000C000004DE750E070E060E0C6010E941F
:1014B000DF072FEF8DEB9AE0215080409040E1F75D
:1014C00000C0000060E0C8010E949701C2010E94B4
:1014D000BC078FE79AE1E6E081509040E040E1F7F9
:1014E00000C00000A12CB12C23E0E22EF0CEBB20E6
:1014F00009F47ACF50E040E068E770E0C6010E944E
:10150000E107EFEFF5EA2EE0E150F0402040E1F78F
:1015100069CF823059F54DE750E070E060E0C601D8
:101520000E94DF07EFE7F6EF2BE0E150F0402040AC
:10153000E1F700C00000C6010E94BC078FEF99E6EA
:10154000E8E181509040E040E1F700C0000050E049
:1015500040E06DE770E0C6010E94E107FFEF2BEA73
:101560008DE0F15020408040E1F7AACFC6010E94F3
:10157000B4079FEFE9E6F8E19150E040F040E1F771
:1015800000C00000C6010E94BC072FEF89E698E169
:10159000215080409040E1F700C0000046E750E055
:1015A00068E770E0C2010E94A807EFEFF4E32CE0C7
:1015B000E150F0402040E1F783CF47E552E068E397
:1015C00072E0C8010E947E04C8010E949401382E76
:1015D000882309F41BCE65E270E0C3010E94580520
:1015E000C2010E94A007FFE72AE186E0F1502040F7
:1015F0008040E1F700C0000065E270E0C3010E9496
:101600006805ED81FE818281813099F448E452E0E1
:1016100061E0C8010E941B02A32C3B2CC4010E9464
:10162000160860E0C8010E949D01B32C94E0E92EE9
:101630004ECE49E252E061E0C8010E94AB01EECF1C
:101640004CE652E068E472E0A11006C0BB2039F01D
:1016500045E652E069E272E0C8010E947E0460E063
:10166000C8010E949D01C8010E94A501882309F4B8
:10167000CDCD80917802823108F4C8CD65E270E06A
:10168000C3010E9460054AE750E06BE770E0C201C9
:101690000E94A807FFEF29E688E1F1502040804032
:1016A000E1F700C0000065E270E0C3010E94680538
:1016B000C2010E94BC079FEFE2E5F7E09150E040D5
:1016C000F040E1F700C0000060E0C8010E94A801FE
:1016D000AA20A1F040E750E070E060E0C6010E945F
:1016E000DF072FE78BE898E0215080409040E1F73A
:1016F00000C00000F89485E0E82EE9CDBB20D1F3CE
:1017000050E040E062E770E0C6010E94E107EFEFC1
:10171000F2E527E0E150F0402040E1F7E9CFCF9338
:10172000DF93EC01C55BDE4F46E950E066E970E00F
:10173000CE010E94AE072FE785EF90E22150804056
:101740009040E1F700C00000CE010E94BC072FEFDF
:1017500083ED90E3215080409040E1F700C000000D
:1017600046E950E070E060E0CE010E94DF072FEF15
:101770008CEB9FE1215080409040E1F700C00000D9
:10178000CE010E94BC072FEF83ED90E321508040F3
:101790009040E1F700C0000046E950E066E970E0E3
:1017A000CE010E94A8072FEF85EA9EE021508040DD
:1017B0009040E1F700C00000CE01DF91CF910C9482
:1017C000BC078F929F92BF92CF92DF92EF92FF92CF
:1017D0000F931F93CF93DF9300D00F92CDB7DEB757
:1017E0008C017E0123E0E20EF11CC7010E944A0534
:1017F000CE0101966C010E948E074EE650E06EE627
:1018000070E0C6010E94A8079FEF29E688E1915089
:1018100020408040E1F700C00000C8010E94160887
:10182000480193EA890E911C80917802883008F46F
:101830005EC0B0B04FE550E070E060E0C6010E94CD
:10184000DF07B4FEF6CFC6010E94BC072FEF89E682
:1018500098E1215080409040E1F700C00000C801AD
:101860000E941608809178028C3108F448C065E225
:1018700070E0C7010E945805F89480B18F7109F497
:1018800042C065E270E0C7010E946005B0B047E564
:1018900052E060E472E0C4010E947E048B2D8F71DF
:1018A000A9F72FEF89E698E1215080409040E1F7B9
:1018B00000C0000065E270E0C7010E946805C80131
:1018C0000E948F0BC6010E949C07C7010E944B0516
:1018D0000F900F900F90DF91CF911F910F91FF907C
:1018E000EF90DF90CF90BF909F908F90089547E545
:1018F00052E060E472E0C4010E947E0495CFC4010E
:101900000E942503AFCFB0B0C6010E94A0078B2D67
:101910008F718031C1F7B5CF8AB1806C8AB95E987A
:10192000E0EBF0E0808182648083E1EBF0E0808195
:10193000846080831092B20008950895CF93DF935E
:1019400000D000D0CDB7DEB7942F852F20E030E057
:1019500040E054E499838A836B837C8369817A8134
:101960008B819C810E94B80F9B01AC0160E074E206
:1019700084EF9AE40E94C60E20E030E040E85FE386
:1019800069837A838B839C8369817A818B819C8133
:101990000E94590E69837A838B839C8369817A8143
:1019A0008B819C810E94380F6093B3000F900F9041
:1019B0000F900F90DF91CF9108951092B30008958A
:1019C00010927C0086E880937A00089510927A0045
:1019D000089580917C00807E80937C0080917C00C3
:1019E0006770682B60937C0080917A00806480939C
:1019F0007A0080917A0084FFFCCF80917A00806128
:101A000080937A00209178008091790090E0982F5F
:101A10008827820F911D0895CF93DF93EC011882E0
:101A20008FEF8983CE0102960E948E07CE01049625
:101A30000E948C0CCE0105960E944A05CE010696A6
:101A40000E94E00C18861F821A8619861C861B8647
:101A50001E8684E9E5E9F1E0DE011F9601900D9212
:101A60008A95E1F7888181B9898184B9DF91CF9125
:101A70000895CF93DF93EC0106960E94E60CCE0109
:101A800005960E944B05CE0104960E949D0CCE0146
:101A90000296DF91CF910C949C07079608958F9240
:101AA0009F92AF92BF92CF92DF92EF92FF920F93ED
:101AB0001F93CF93DF93EC0154E1C52ED12CF12C71
:101AC000E12C8C010A5F1F4F60E0C8010E94E90C05
:101AD00096958795969587958D87E80EF11C81E000
:101AE000C81AD10889F7C70164E170E00E942B0E83
:101AF0004B0160E0C8010E94E90C96958795969588
:101B000087958D876E0182E0C80ED11C5E0185E04D
:101B1000A80EB11C8E010C5F1F4F84E3E81683E012
:101B2000F8068CF588E5E81682E0F8069CF1C60117
:101B30000E94BC074F85588969897A89C8010E942B
:101B40009E0CC8010E94DD0C65E270E0C5010E9498
:101B500058058E85E82FF0E0EE0FFF1FEC0FFD1FFC
:101B600022E030E0308727838F5F8E87DF91CF912F
:101B70001F910F91FF90EF90DF90CF90BF90AF90AB
:101B80009F908F9008958FE5881A91088AE18816B2
:101B90009104B8F065E270E0C5010E946805C801D3
:101BA0000E94DD0CC601DF91CF911F910F91FF9034
:101BB000EF90DF90CF90BF90AF909F908F900C945C
:101BC000A007C6010E94BC0765E270E0C5010E9443
:101BD00060054F89588D698D7A8DC8010E949E0CD1
:101BE000C8010E94DD0CC6010E94A0078E85E82F67
:101BF000F0E0EE0FFF1FEC0FFD1F21E030E0B2CF51
:101C0000CDB7DEB7CC5FD1400FB6F894DEBF0FBEC4
:101C1000CDBF8E010F5F1F4FC8010E946A00C8012F
:101C20000E948700C8010E949000CE0184509E4F00
:101C30000E944A05CE018C5A9E4F0E944301C80162
:101C40000E94C400FCCF86E792E00C948C0C86E7DF
:101C500092E00C949D0C97FB072E16F4009407D08D
:101C600077FD09D00E94450E07FC05D03EF4909503
:101C700081959F4F0895709561957F4F0895EE0F60
:101C8000FF1F0590F491E02D0994AA1BBB1B51E1A5
:101C900007C0AA1FBB1FA617B70710F0A61BB70BDC
:101CA000881F991F5A95A9F780959095BC01CD0181
:101CB00008955058BB27AA270E94710E0C947E0FDE
:101CC0000E94700F38F00E94770F20F039F49F3F88
:101CD00019F426F40C946D0F0EF4E095E7FB0C94C8
:101CE000670FE92F0E948F0F58F3BA176207730727
:101CF0008407950720F079F4A6F50C94B10F0EF443
:101D0000E0950B2EBA2FA02D0B01B90190010C010B
:101D1000CA01A0011124FF27591B99F0593F50F423
:101D2000503E68F11A16F040A22F232F342F44277B
:101D3000585FF3CF469537952795A795F040539573
:101D4000C9F77EF41F16BA0B620B730B840BBAF043
:101D50009150A1F0FF0FBB1F661F771F881FC2F7AE
:101D60000EC0BA0F621F731F841F48F487957795C2
:101D70006795B795F7959E3F08F0B0CF9395880F7C
:101D800008F09927EE0F9795879508950E94DA0E2F
:101D90000C947E0F0E94770F58F00E94700F40F055
:101DA00029F45F3F29F00C94670F51110C94B20F86
:101DB0000C946D0F0E948F0F68F39923B1F3552394
:101DC00091F3951B550BBB27AA276217730784074E
:101DD00038F09F5F5F4F220F331F441FAA1FA9F3E4
:101DE00035D00E2E3AF0E0E832D091505040E695D2
:101DF000001CCAF72BD0FE2F29D0660F771F881F33
:101E0000BB1F261737074807AB07B0E809F0BB0B25
:101E1000802DBF01FF2793585F4F3AF09E3F510539
:101E200078F00C94670F0C94B20F5F3FE4F3983E88
:101E3000D4F3869577956795B795F7959F5FC9F722
:101E4000880F911D9695879597F90895E1E0660FA3
:101E5000771F881FBB1F621773078407BA0720F01C
:101E6000621B730B840BBA0BEE1F88F7E095089585
:101E70000E94970F88F09F5798F0B92F9927B75174
:101E8000B0F0E1F0660F771F881F991F1AF0BA951E
:101E9000C9F714C0B13091F00E94B10FB1E00895BC
:101EA0000C94B10F672F782F8827B85F39F0B93FAE
:101EB000CCF3869577956795B395D9F73EF49095D1
:101EC0008095709561957F4F8F4F9F4F089597F93B
:101ED0009F6780E870E060E008959FEF80EC0895D0
:101EE00000240A94161617061806090608950024F9
:101EF0000A9412161306140605060895092E039473
:101F0000000C11F4882352F0BB0F40F4BF2B11F4E6
:101F100060FF04C06F5F7F4F8F4F9F4F089557FD45
:101F20009058440F551F59F05F3F71F04795880F47
:101F300097FB991F61F09F3F79F0879508951216DE
:101F400013061406551FF2CF4695F1DF08C016168A
:101F500017061806991FF1CF86957105610508943B
:101F60000895E894BB2766277727CB0197F9089552
:101F70000E94CB0F0C947E0F0E94700F38F00E94CD
:101F8000770F20F0952311F00C94670F0C946D0FD0
:101F900011240C94B20F0E948F0F70F3959FC1F320
:101FA000950F50E0551F629FF001729FBB27F00D07
:101FB000B11D639FAA27F00DB11DAA1F649F66275C
:101FC000B00DA11D661F829F2227B00DA11D621FAB
:101FD000739FB00DA11D621F839FA00D611D221F65
:101FE000749F3327A00D611D231F849F600D211D49
:101FF000822F762F6A2F11249F5750409AF0F1F0CC
:1020000088234AF0EE0FFF1FBB1F661F771F881F34
:1020100091505040A9F79E3F510580F00C94670FF6
:102020000C94B20F5F3FE4F3983ED4F38695779516
:102030006795B795F795E7959F5FC1F7FE2B880FDA
:10204000911D9695879597F9089510E0CFE3D0E01C
:1020500004C0FE010E943F0E2196C034D107C9F78B
:10206000F894FFCFBE04CA04D4040B058E04CA043E
:102070003405E4048E048E048E04E4048E042805E2
:102080003405EE0431058E0431058E048E048E0471
:042090003105FA0418
:10209400A00000DC427B14E942A4F0F6425CCF02CB
:1020A400430A970A437BD412435C8F1B435CCF24BF
:1020B40043299C2E43000039430000444366A64F45
:1020C4004300005C437B146943A4F07643A4D082AC
:1020D400430A978A437BD49243A4909B43A4D0A4FD
:1020E40043719DAE43B8FEB8430000C44366A6CF17
:1020F400430000DC437B14E943A4F0F64300D00220
:1021040044AE970A441FD5124400901B44A4D02423
:1021140044719D2E445CFF38445CFF43440AA74F3E
:102124004400005C440000DC427B14E942A4F0F665
:10213400425CCF02430A970A437BD412435C8F1B51
:10214400435CCF2443299C2E4300003943000044C0
:102154004366A64F4300005C437B146943A4F076B6
:1021640043A4D082430A978A437BD49243A4909B8E
:1021740043A4D0A443719DAE43B8FEB8430000C449
:102184004366A6CF430000DC437B14E943A4F0F686
:102194004300D00244AE970A441FD5124400901B5A
:1021A40044A4D02444719D2E445CFF38445CFF4316
:1021B400440AA74F4400005C44506172746965424C
:1021C4005F67617563686500506172746965420098
:1021D4005061727469654100506172746965425F4F
:1021E40064726F69746500646575784469726563C7
:1021F40074696F6E004761756368650044726F6946
:0422040074650000FD
:00000001FF
