:100000000C9440000C945D000C945D000C945D0019
:100010000C945D000C945D000C945D000C945D00EC
:100020000C945D000C945D000C945D000C945D00DC
:100030000C945D000C945D000C945D000C945D00CC
:100040000C945D000C945D000C945D000C945D00BC
:100050000C945D000C945D000C945D000C945D00AC
:100060000C945D000C945D000C945D000C945D009C
:100070000C945D000C945D000C945D00C000C40005
:1000800011241FBECFEFD8E0DEBFCDBF21E0A0E03E
:10009000B1E001C01D92A230B207E1F710E0CFE35A
:1000A000D0E004C02197FE010E94C800CE33D107E2
:1000B000C9F70E94BA000C94CE000C940000299855
:1000C000289A08952898299A08950E9462008FE33B
:1000D0009FE10197F1F700C000000E945F008FE7E9
:1000E0009EE30197F1F700C00000089560E080E012
:1000F00091E00E94970096958795969587958093B5
:10010000010180910101813E28F0815E8E3020F056
:100110000C9462000C945F000C94650010927C00BB
:1001200086E880937A00089510927A00089580916D
:100130007C00807E80937C0080917C006770682BBF
:1001400060937C0080917A00806480937A00809133
:100150007A0084FFFCCF80917A00806180937A00DE
:10016000209178008091790090E0982F8827820F65
:10017000911D089511B88FEF84B90E947600FDCFCC
:1001800080E091E00C948E0080E091E00C9494006B
:10019000EE0FFF1F0590F491E02D099410E0CFE3DE
:1001A000D0E004C0FE010E94C8002196C034D107EF
:0601B000C9F7F894FFCF2F
:00000001FF
