:100000000C943E000C9448000C9448000C9448005A
:100010000C9448000C9448000C9448000C94480040
:100020000C9448000C9448000C9448000C94480030
:100030000C9448000C9448000C9448000C94480020
:100040000C9448000C9448000C9448000C94480010
:100050000C9448000C9448000C9448000C94480000
:100060000C9448000C9448000C9448000C944800F0
:100070000C9448000C9448000C94480011241FBEB6
:10008000CFEFD8E0DEBFCDBF0E9453000C948400B8
:100090000C9400001098119A08951198109A0895E0
:1000A0001098119808958FEF81B9D0E0C0E008EE64
:1000B00013E08FEC97E00197F1F700C000000E9479
:1000C0004A0090E080E098012C1B3D0B82179307BB
:1000D0007CF00E94500090E080E08C179D0774F047
:1000E0002196C83B4BE0D40721F790E080E00895CB
:1000F00042E04A95F1F700C00196E8CF22E02A9548
:0C010000F1F700C00196E9CFF894FFCFA2
:00000001FF
