:100000000C9440000C9468000C9468000C946800F8
:100010000C9468000C9468000C9468000C946800C0
:100020000C9468000C9468000C9468000C946800B0
:100030000C9468000C9468000C9468000C946800A0
:100040000C9468000C9468000C9468000C94680090
:100050000C9468000C9468000C9468000C94680080
:100060000C9468000C9468000C9468000C94680070
:100070000C9468000C9468000C946800690479047E
:1000800011241FBECFEFD8E0DEBFCDBF11E0A0E04E
:10009000B1E0E0EDFCE002C005900D92A03EB1079A
:1000A000D9F721E0A0EEB1E001C01D92A53EB20754
:1000B000E1F710E0CFE3D0E004C02197FE010E94F9
:1000C0008904CE33D107C9F70E947F030C945B06E5
:1000D0000C940000CF93DF9300D000D0CDB7DEB7F3
:1000E000A0E0B1E030E020E090E0F9014D915D91B9
:1000F0002F5F3F4F84179507C1F7EE0FFF1FEE0FDD
:10010000FF1FE65BFE4F80819181A281B381BC011C
:10011000CD010F900F900F900F90DF91CF91089528
:10012000CF93DF93EC01AB016881798184EE91E09C
:100130000E94210188819981019699838883DF91AA
:10014000CF9108950F931F93CF93DF9300D0CDB736
:10015000DEB78C01FC016081718122E0AE014F5F4E
:100160005F4F84EE91E00E948201F80180819181CD
:1001700002969183808389819A819827892798277D
:100180000F900F90DF91CF911F910F910895982FAD
:1001900081E0913009F080E0089508950895FB0111
:1001A00080818E7F80838081826080830895FB01BF
:1001B00080818D7F808380818160808308950F930B
:1001C0001F93CF93DF93D82FC92F8B010E94CF00AD
:1001D0008FE39FE10197F1F700C00000B8018D2F78
:1001E0009C2F0E94D7008FE79EE30197F1F700C094
:1001F0000000DF91CF911F910F910895FB01808145
:100200008D7F808380818E7F80830895089580EA2A
:100210008093DE011092B90080E28093B8000895C7
:10022000FC0180E88083CF010C940701982F937024
:10023000891305C0880F806A8093DE0108958FEFCF
:100240000895FA0194EA24E89093BC008091BC00E0
:1002500087FFFCCF8091DE018093BB002093BC0020
:100260008091BC0087FFFCCF8091B900883161F795
:1002700084EA8093BC008091BC0087FFFCCF809112
:10028000DE018093BB0084E88093BC008091BC00B9
:1002900087FFFCCF7093BB0084E88093BC00809103
:1002A000BC0087FFFCCF6093BB0084E88093BC0058
:1002B0008091BC0087FFFCCF8091BC0087FFFCCF02
:1002C00084EA8093BC008091BC0087FFFCCF8091C2
:1002D000DE018F5F8093BB0084E88093BC00809137
:1002E000BC0087FFFCCF84E88093BC008091BC00F9
:1002F00087FFFCCF8091BB00808384E98093BC00A2
:1003000080E0089594EA34E89093BC008091BC00AA
:1003100087FFFCCF8091DE018093BB003093BC004F
:100320008091BC0087FFFCCF8091B900883161F7D4
:1003300084EA8093BC008091BC0087FFFCCF809151
:10034000DE018093BB0084E88093BC008091BC00F8
:1003500087FFFCCF7093BB0084E88093BC00809142
:10036000BC0087FFFCCF6093BB0084E88093BC0097
:100370008091BC0087FFFCCF84EA8093BC00809111
:10038000BC0087FFFCCF8091DE018F5F8093BB00B4
:1003900084E88093BC008091BC0087FFFCCF84EC94
:1003A000211105C084E98093BC0080E008952130CC
:1003B00009F484E88093BC009091BC0097FFFCCFC7
:1003C000FA019091BB0091932150AF01E9CF94EADB
:1003D00024E89093BC008091BC0087FFFCCF809103
:1003E000DE018093BB002093BC008091BC0087FF9E
:1003F000FCCF8091B900883161F784EA8093BC001A
:100400008091BC0087FFFCCF8091DE018093BB0010
:1004100084E88093BC008091BC0087FFFCCF709380
:10042000BB0084E88093BC008091BC0087FFFCCFB8
:100430006093BB0084E88093BC008091BC0087FF80
:10044000FCCF4093BB0084E88093BC008091BC004B
:1004500087FFFCCF84E98093BC0080E00895FB0116
:10046000260F372F311DDC018C918150990B862B83
:100470009F2B2817390718F09C012F5F3F4F822FC1
:100480008E1B24EA34E82093BC009091BC0097FFB7
:10049000FCCF9091DE019093BB003093BC00909113
:1004A000BC0097FFFCCF9091B900983161F794EAB6
:1004B0009093BC009091BC0097FFFCCF9091DE011F
:1004C0009093BB0094E89093BC009091BC0097FF80
:1004D000FCCFF093BB0094E89093BC009091BC00DB
:1004E00097FFFCCFE093BB0094E89093BC00909101
:1004F000BC0097FFFCCF982F24E8911104C094E929
:100500009093BC000895FA0131913093BB00209381
:10051000BC003091BC0037FFFCCF9150AF01EDCF54
:10052000DF92EF92FF920F931F93CF93DF93D82E1A
:10053000D92F7B018A01C22F2C2FA801B7018D2D45
:100540009D2F0E942F02282F30E0E20EF31EC81BC1
:10055000020F131FC111F0CF80E0DF91CF911F91E7
:100560000F91FF90EF90DF900895FC018FEF808353
:1005700011828AB18C638AB9E0E8F0E08081816AF7
:100580008083E1E8F0E080818260808310928200C5
:1005900008950895709389006093880050938B00AC
:1005A00040938A0008957093890060938800509367
:1005B0008B0040938A0008957093890060938800AF
:1005C00050938B0040938A008BB18C608BB9089557
:1005D000109289001092880010928B0010928A006D
:1005E0000895FC01818190E0208130E0A8E8B0E02E
:1005F00011963C932E93EAE8F0E0918380832FEFED
:1006000088E09DE3215080409040E1F700C0000069
:1006100011961C921E92118210820895FC01808115
:1006200090E0218130E0A8E8B0E011963C932E9351
:10063000EAE8F0E0918380832FEF88E09DE321508A
:1006400080409040E1F700C0000011961C921E927D
:100650001182108208958AB1806C8AB95E98E0EBAD
:10066000F0E0808182648083E1EBF0E0808186604D
:1006700080831092B20008950895CF93DF9300D045
:1006800000D0CDB7DEB7942F852F20E030E040E0DA
:1006900054E499838A836B837C8369817A818B811B
:1006A0009C810E94EE059B01AC0160E074E284EF46
:1006B0009AE40E94FC0420E030E040E85FE36983B4
:1006C0007A838B839C8369817A818B819C810E9450
:1006D0008F0469837A838B839C8369817A818B8180
:1006E0009C810E946E056093B3000F900F900F9055
:1006F0000F90DF91CF9108951092B300089500D02C
:1007000000D0CDB7DEB78FEF81B91A8219828E0182
:100710000F5F1F4FC8010E94A2005C01F12E4E0125
:1007200084E0880E911C6E01E3E0CE0ED11CB40172
:10073000802F9F2D0E949000B601802F9F2D0E9438
:1007400090001C81782C692C5C2C4D2C113079F791
:10075000D12CC12C9924939421C0672D762D802F04
:100760009F2D0E949000652D742D802F9F2D0E943B
:1007700090008C81823609F48BC078F5853409F4B9
:1007800076C0C0F4893009F479C0843409F45BC0C0
:10079000823009F456C0FFEFCF1ADF0ACA14DB0417
:1007A000E0F2911093C090E080E00F900F900F90D6
:1007B0000F900895803609F466C0813609F463C04D
:1007C000883449F78B810E946A00462F572FBC015D
:1007D00080EE91E00E943D03DECF803C09F46AC0C8
:1007E00080F4843609F45CC0853609F45EC0833633
:1007F00091F66B8170E0AB0182EE91E00E94DC0229
:10080000CACF813C09F45AC08F3F29F682EE91E0AD
:100810000E94E80280EE91E00E947C0362E270E0B8
:1008200081EE91E00E94FE00912CB5CFEFE4F3EC55
:100830003197F1F700C000008F5F9B818917B0F3FB
:10084000AACF80E0FACF8B81813039F462E270E088
:1008500081EE91E00E94D7009ECF823009F09BCFBD
:1008600062E270E081EE91E00E94CF0094CF62E2FC
:1008700070E081EE91E00E94FE008DCF80EE91E06D
:100880000E947C0388CF82EE91E00E94E80283CF31
:100890006B8170E0AB0182EE91E00E94D3027BCFCE
:1008A00082EE91E00E94F10276CF82EE91E00E940A
:1008B0000E0371CF8B81180FE9806DCF115009F4B1
:1008C0006ACF8E2D90E09A83898365CFD12CC12C7D
:1008D00065CF84EE91E00E94100182EE91E00E94CB
:1008E000B50281EE91E00E94CD0080EE91E00C9483
:1008F0002B0380EE91E00E943C0381EE91E00E9488
:10090000CE0082EE91E00E94C90284EE91E00C9448
:100910000601EE0FFF1F0590F491E02D0994505849
:10092000BB27AA270E94A7040C94B4050E94A60521
:1009300038F00E94AD0520F039F49F3F19F426F4F9
:100940000C94A3050EF4E095E7FB0C949D05E92FAC
:100950000E94C50558F3BA17620773078407950705
:1009600020F079F4A6F50C94E7050EF4E0950B2E33
:10097000BA2FA02D0B01B90190010C01CA01A001F1
:100980001124FF27591B99F0593F50F4503E68F14C
:100990001A16F040A22F232F342F4427585FF3CF8D
:1009A000469537952795A795F0405395C9F77EF45E
:1009B0001F16BA0B620B730B840BBAF09150A1F0A7
:1009C000FF0FBB1F661F771F881FC2F70EC0BA0F2D
:1009D000621F731F841F48F4879577956795B795B5
:1009E000F7959E3F08F0B0CF9395880F08F09927B0
:1009F000EE0F9795879508950E9410050C94B40505
:100A00000E94AD0558F00E94A60540F029F45F3F12
:100A100029F00C949D0551110C94E8050C94A30544
:100A20000E94C50568F39923B1F3552391F3951BF3
:100A3000550BBB27AA2762177307840738F09F5FFF
:100A40005F4F220F331F441FAA1FA9F335D00E2E6C
:100A50003AF0E0E832D091505040E695001CCAF7D9
:100A60002BD0FE2F29D0660F771F881FBB1F26179C
:100A700037074807AB07B0E809F0BB0B802DBF0173
:100A8000FF2793585F4F3AF09E3F510578F00C9442
:100A90009D050C94E8055F3FE4F3983ED4F38695FA
:100AA00077956795B795F7959F5FC9F7880F911D63
:100AB0009695879597F90895E1E0660F771F881F4F
:100AC000BB1F621773078407BA0720F0621B730B02
:100AD000840BBA0BEE1F88F7E09508950E94CD05B0
:100AE00088F09F5798F0B92F9927B751B0F0E1F0EF
:100AF000660F771F881F991F1AF0BA95C9F714C09F
:100B0000B13091F00E94E705B1E008950C94E7053B
:100B1000672F782F8827B85F39F0B93FCCF38695D7
:100B200077956795B395D9F73EF490958095709534
:100B300061957F4F8F4F9F4F089597F99F6780E88A
:100B400070E060E008959FEF80EC089500240A941F
:100B50001616170618060906089500240A94121698
:100B60001306140605060895092E0394000C11F4CB
:100B7000882352F0BB0F40F4BF2B11F460FF04C078
:100B80006F5F7F4F8F4F9F4F089557FD9058440FD1
:100B9000551F59F05F3F71F04795880F97FB991FDC
:100BA00061F09F3F79F08795089512161306140699
:100BB000551FF2CF4695F1DF08C016161706180626
:100BC000991FF1CF86957105610508940895E89401
:100BD000BB2766277727CB0197F908950E94010666
:100BE0000C94B4050E94A60538F00E94AD0520F0D3
:100BF000952311F00C949D050C94A30511240C94DD
:100C0000E8050E94C50570F3959FC1F3950F50E06C
:100C1000551F629FF001729FBB27F00DB11D639FAE
:100C2000AA27F00DB11DAA1F649F6627B00DA11D54
:100C3000661F829F2227B00DA11D621F739FB00DFA
:100C4000A11D621F839FA00D611D221F749F33276A
:100C5000A00D611D231F849F600D211D822F762F03
:100C60006A2F11249F5750409AF0F1F088234AF0E0
:100C7000EE0FFF1FBB1F661F771F881F915050404C
:100C8000A9F79E3F510580F00C949D050C94E80552
:100C90005F3FE4F3983ED4F3869577956795B795D3
:100CA000F795E7959F5FC1F7FE2B880F911D9695ED
:100CB000879597F9089510E0CFE3D0E004C0FE01D6
:100CC0000E9489042196C034D107C9F7F894FFCF58
:100CD0002D002E002F003000310032003300340090
:100CE000350036003700380039003A003B003C0040
:100CF0003D003E003F0040004100420043004400F0
:100D0000450046004700480049004A004B004C009F
:100D10004D004E004F00500051000000DC427B149B
:100D2000E942A4F0F6425CCF02430A970A437BD41F
:100D300012435C8F1B435CCF2443299C2E4300004D
:100D400039430000444366A64F4300005C437B14D4
:100D50006943A4F07643A4D082430A978A437BD4A4
:100D60009243A4909B43A4D0A443719DAE43B8FE8C
:100D7000B8430000C44366A6CF430000DC437B14A5
:100D8000E943A4F0F64300D00244AE970A441FD5CD
:100D9000124400901B44A4D02444719D2E445CFF57
:100DA00038445CFF43440AA74F4400005C44A00061
:00000001FF
