:100000000C943E000C9448000C9448000C9448005A
:100010000C9448000C9448000C9448000C94480040
:100020000C9448000C9448000C9448000C94480030
:100030000C9448000C9448000C9448000C94480020
:100040000C9448000C9448000C9448000C94480010
:100050000C9448000C9448000C9448000C94480000
:100060000C9448000C9448000C9448000C944800F0
:100070000C9448000C9448000C94480011241FBEB6
:10008000CFEFD8E0DEBFCDBF0E946C000C94B00073
:100090000C9400001098119A08951198109A0895E0
:1000A0001098119808951098119A82E08A95F1F7A6
:1000B00000C01198109A8AE08A95F1F700C008955F
:1000C00029B18FE19EE40197F1F700C0000099B1DA
:1000D00081E0291380E008958FEF81B91AB8D0E04C
:1000E000C0E00E9460008823E1F3C230D10561F1D5
:1000F00034F4209769F02197F9F082E019C0C330F9
:10010000D10579F789B18111ECCF0E944A0008C06E
:1001100089B1811102C00E944A0089B1843029F05E
:1001200080E0C82F07C00E9453004A99FCCF81E0AD
:10013000C82F80E0D82FD5CF89B14A9BF8CF4A9BF2
:10014000DCCF0E944A00FBCF89B1811102C00E941E
:1001500050004A9BD2CF4A9BE3CF0E944D00FBCF79
:04016000F894FFCF41
:00000001FF
