:100000000C943E000C9448000C9448000C9448005A
:100010000C9448000C9448000C9448000C94480040
:100020000C9448000C9448000C9448000C94480030
:100030000C9448000C9448000C9448000C94480020
:100040000C9448000C9448000C9448000C94480010
:100050000C9448000C9448000C9448000C94480000
:100060000C9448000C9448000C9448000C944800F0
:100070000C9448000C9448000C94480011241FBEB6
:10008000CFEFD8E0DEBFCDBF0E9460000C948600A9
:100090000C9400001098119A08951198109A0895E0
:1000A0001098119808951098119A82E08A95F1F7A6
:1000B00000C01198109A8AE08A95F1F700C008955F
:1000C0008FEF81B90E9450002FEF83ED90E3215014
:1000D00080409040E1F700C00000C8E7D0E00E94F7
:1000E0004A008FE39FE10197F1F700C000000E94F2
:1000F00050008FEB9DE50197F1F700C000002197BC
:1001000071F70E94500090E080E00895F894FFCFCE
:00000001FF
