:100000000C943E000C9453000C9453000C94530039
:100010000C9453000C9453000C9453000C94530014
:100020000C9453000C9453000C9453000C94530004
:100030000C9453000C9453000C9453000C945300F4
:100040000C9453000C9453000C9453000C945300E4
:100050000C9453000C9453000C9453000C945300D4
:100060000C9453000C9453000C9453000C945300C4
:100070000C9453000C9453000C94530011241FBE95
:10008000CFEFD8E0DEBFCDBF11E0A0E0B1E0E8E304
:10009000F5E002C005900D92A230B107D9F70E9499
:1000A0003C020C949A020C940000089580EA80931C
:1000B00000011092B90080E28093B8000895FC011D
:1000C00080E88083CF010C945600982F9370891399
:1000D00005C0880F806A8093000108958FEF08950E
:1000E000FA0194EA24E89093BC008091BC0087FF59
:1000F000FCCF809100018093BB002093BC008091D5
:10010000BC0087FFFCCF8091B900883161F784EA99
:100110008093BC008091BC0087FFFCCF80910001E0
:100120008093BB0084E88093BC008091BC0087FF73
:10013000FCCF7093BB0084E88093BC008091BC002E
:1001400087FFFCCF6093BB0084E88093BC00809164
:10015000BC0087FFFCCF8091BC0087FFFCCF84EA06
:100160008093BC008091BC0087FFFCCF8091000190
:100170008F5F8093BB0084E88093BC008091BC00BB
:1001800087FFFCCF84E88093BC008091BC0087FF90
:10019000FCCF8091BB00808384E98093BC0080E029
:1001A000089594EA34E89093BC008091BC0087FFE6
:1001B000FCCF809100018093BB003093BC00809104
:1001C000BC0087FFFCCF8091B900883161F784EAD9
:1001D0008093BC008091BC0087FFFCCF8091000120
:1001E0008093BB0084E88093BC008091BC0087FFB3
:1001F000FCCF7093BB0084E88093BC008091BC006E
:1002000087FFFCCF6093BB0084E88093BC008091A3
:10021000BC0087FFFCCF84EA8093BC008091BC00C7
:1002200087FFFCCF809100018F5F8093BB0084E843
:100230008093BC008091BC0087FFFCCF84EC21112F
:1002400005C084E98093BC0080E00895213009F462
:1002500084E88093BC009091BC0097FFFCCFFA012A
:100260009091BB0091932150AF01E9CF94EA24E82B
:100270009093BC008091BC0087FFFCCF809100016F
:100280008093BB002093BC008091BC0087FFFCCF13
:100290008091B900883161F784EA8093BC00809135
:1002A000BC0087FFFCCF809100018093BB0084E8F5
:1002B0008093BC008091BC0087FFFCCF7093BB0093
:1002C00084E88093BC008091BC0087FFFCCF6093E2
:1002D000BB0084E88093BC008091BC0087FFFCCF0A
:1002E0004093BB0084E88093BC008091BC0087FFF2
:1002F000FCCF84E98093BC0080E00895FB01260FC9
:10030000372F311DDC018C918150990B862B9F2B4F
:100310002817390718F09C012F5F3F4F822F8E1B43
:1003200024EA34E82093BC009091BC0097FFFCCFF6
:10033000909100019093BB003093BC009091BC0061
:1003400097FFFCCF9091B900983161F794EA9093B0
:10035000BC009091BC0097FFFCCF9091000190935E
:10036000BB0094E89093BC009091BC0097FFFCCF39
:10037000F093BB0094E89093BC009091BC0097FF71
:10038000FCCFE093BB0094E89093BC009091BC003C
:1003900097FFFCCF982F24E8911104C094E9909323
:1003A000BC000895FA0131913093BB002093BC004A
:1003B0003091BC0037FFFCCF9150AF01EDCFDF9201
:1003C000EF92FF920F931F93CF93DF93D82ED92FE5
:1003D0007B018A01C22F2C2FA801B7018D2D9D2FE3
:1003E0000E947E01282F30E0E20EF31EC81B020F90
:1003F000131FC111F0CF80E0DF91CF911F910F91BA
:10040000FF90EF90DF9008951092C5008FEC8093DD
:10041000C400E0ECF0E08081806C8083E1ECF0E0EF
:10042000808188618083E2ECF0E080818660808357
:10043000089508958091C00085FFFCCF6093C600A9
:1004400008958091C00087FFFCCF8091C600089579
:100450000F931F93CF93DF93182F092FEB0169910F
:10046000611105C0DF91CF911F910F910895812FE8
:10047000902F0E941A02F3CF00D000D0CDB7DEB784
:100480002DB73EB73C832B835E0132E0A30EB11C37
:10049000C5010E945F008E010F5F1F4FC8010E94BF
:1004A0000402C8010E942102982EC8010E94210264
:1004B000D92CC82EEDB7FEB7EC19FD090FB6F8948C
:1004C000FEBF0FBEEDBF2DB73EB72F5F3F4F790187
:1004D0009182F901818382E0982E702E812E092D60
:1004E00010E00C151D05E0F02C2DA70170E060E078
:1004F000C5010E94DF01872D982D0E941902C501B8
:100500000E94550090E080E02B813C810FB6F8946A
:100510003EBF0FBE2DBF0F900F900F900F9008950C
:10052000872D982D0E942102F701E00FF11F808393
:080530009394D5CFF894FFCF9E
:02053800A00021
:00000001FF
